:020000040000FA
:10000000780400206D0200007102000073020000FD
:100010007502000077020000790200000000000075
:100020000000000000000000000000007B02000053
:100030007D020000000000007F020000810200003D
:10004000830200008302000083020000830200009C
:10005000830200008302000083020000830200008C
:10006000830200008302000083020000830200007C
:10007000830200008302000083020000830200006C
:10008000830200008302000083020000830200005C
:10009000830200008302000083020000830200004C
:1000A000830200008302000083020000830200003C
:1000B000830200008302000083020000830200002C
:1000C000830200008302000083020000830200001C
:1000D000830200008302000083020000830200000C
:1000E00083020000830200008302000083020000FC
:1000F00083020000830200008302000083020000EC
:1001000083020000830200008302000083020000DB
:1001100083020000830200008302000083020000CB
:1001200083020000830200008302000083020000BB
:1001300083020000830200008302000083020000AB
:1001400000000000000000000000000000000000AF
:10015000830200008302000083020000830200008B
:10016000000000000000000000000000000000008F
:10017000000000000000000000000000000000007F
:10018000000000000000000000000000000000006F
:10019000000000000000000000000000000000005F
:1001A000000000000000000000000000000000004F
:1001B000830200008302000083020000830200002B
:1001C000830200008302000083020000830200001B
:1001D000830200008302000083020000830200000B
:1001E00083020000830200008302000083020000FB
:1001F00083020000830200008302000083020000EB
:10020000830200008302000083020000000000005F
:1002100083020000830200008302000083020000CA
:1002200083020000830200008302000083020000BA
:1002300083020000830200008302000083020000AA
:10024000830200008302000083020000830200009A
:10025000830200008302000083020000830200008A
:1002600083020000830200008302000000F00AB84D
:10027000FEE7FEE7FEE7FEE7FEE7FEE7FEE7FEE756
:10028000FEE7FEE700F002F800F050F814A696E84A
:10029000000CB244B344DA4501D100F047F8BAE8A3
:1002A0000F000FA696E83000A5EB040504EB060747
:1002B000AAEB0704A7F101074FEA15154FEA34141A
:1002C000A4F10104AC4201D300F030F813F0010FA7
:1002D00018BFFB1A43F0010300F001F8DBE71847F1
:1002E0001C1100003C110000103A24BF78C878C1EE
:1002F000FAD8520724BF30C830C144BF04680C602C
:1003000070470000704700000023002400250026ED
:10031000103A28BF78C1FBD8520728BF30C148BF68
:100320000B6070471FB51FBD10B510BD00F029F858
:100330001146FFF7F7FF00F0B9FD00F047F803B4EE
:10034000FFF7F2FF03BC00F04FF8000072B67047F1
:1003500062B67047EFF3108072B6704780F3108872
:10036000704730BF704702480249014A024B70474C
:100370007800002078040020780000207047704743
:100380007047754600F02CF8AE46050069465346A6
:1003900020F00700854618B020B5FFF7E4FFBDE860
:1003A00020404FF000064FF000074FF000084FF0DC
:1003B000000BAC46ACE8C009ACE8C009ACE8C00929
:1003C000ACE8C00921F007018D46704710B504461E
:1003D000AFF300802046BDE81040FFF7B0BF00003B
:1003E000004870471800002001491820ABBEFEE706
:1003F000260002007047000084B08DF80E008DF8D2
:100400000D1002920193029818B1FFE7019820B9EC
:10041000FFE701208DF80F00BAE0FFE741F204008A
:10042000C4F202000068C00708B1FFE7F6E79DF8D4
:100430000E00400041F20001C4F2020108609DF884
:100440000D0041F20801C4F20201086041F204010A
:10045000C4F2020107200860FFE741F20400C4F281
:1004600002000068C00708B1FFE7F6E741F20400A8
:10047000C4F20200006800F09E008DF803009DF8B1
:100480000300A8B1FFE741F20401C4F20201042015
:100490000860FFE741F20400C4F202000068C007F0
:1004A00008B1FFE7F6E79DF803008DF80F006FE055
:1004B000FFE7019802283FD3FFE70298411C029111
:1004C000007841F20801C4F20201086041F204011F
:1004D000C4F2020101200860FFE741F20400C4F207
:1004E00002000068C00708B1FFE7F6E741F2040028
:1004F000C4F20200006800F09A008DF803009DF835
:100500000300A8B1FFE741F20401C4F20201042094
:100510000860FFE741F20400C4F202000068C0076F
:1005200008B1FFE7F6E79DF803008DF80F002FE014
:10053000019801380190BCE70298007841F2080167
:10054000C4F20201086041F20401C4F20201052074
:100550000860FFE741F20400C4F202000068C0072F
:1005600008B1FFE7F6E7FFE741F20400C4F202003A
:1005700000684006002801D5FFE7F5E741F20400D6
:10058000C4F20200006800F09A008DF80F00FFE747
:100590009DF80F0004B07047FFE74EF22061C4F2EF
:1005A0000F01086840F002000860FFE7FFE74EF225
:1005B0000861C4F20F01086840F001000860FFE71D
:1005C000FFE74EF62020C4F20F00006880070028E5
:1005D00001D4FFE7F5E7FFE74EF60820C4F20F006D
:1005E0000068C00708B9FFE7F6E744F21C51C4F2FF
:1005F0000001086840F0C000086044F21051C4F2E5
:100600000001086840F0C000086044F22041C4F2D4
:100610000001086840F0C000086044F22C51C4F2A8
:1006200000010868332262F31F60086044F20C5135
:10063000C4F20001086840F08000086044F22851CC
:10064000C4F20001086820F0C000086044F20041D4
:10065000C4F20001086840F040000860086820F01B
:1006600080000860FFE741F22001C4F2020110207F
:100670000860FFE741F20C01C4F2020107200860A4
:100680007047000081B08DF802008DF80110FFE77F
:1006900041F20400C4F202000068C00708B1FFE79D
:1006A000F6E79DF80200400041F20001C4F20201A9
:1006B00008609DF8010041F20801C4F202010860DF
:1006C00041F20401C4F2020103200860FFE741F295
:1006D0000400C4F202000068C00708B1FFE7F6E7B3
:1006E00041F20400C4F20200006800F09E008DF8A0
:1006F00000009DF80000A0B1FFE741F20401C4F240
:10070000020104200860FFE741F20400C4F2020085
:100710000068C00708B1FFE7F6E700208DF8030086
:1007200057E09DF802004000013041F20001C4F2A0
:100730000201086041F20401C4F2020107200860CE
:10074000FFE741F20400C4F202000068C00708B1EC
:10075000FFE7F6E741F20400C4F20200006800F08F
:100760009E008DF800009DF80000F8B1FFE741F20F
:100770000401C4F2020104200860FFE741F2040012
:10078000C4F202000068C00708B1FFE7F6E7FFE720
:1007900041F20400C4F2020000684006002801D5BE
:1007A000FFE7F5E700208DF8030012E0FFE741F2D4
:1007B0000400C4F2020000684006002801D5FFE7EB
:1007C000F5E741F20800C4F2020000688DF803006A
:1007D000FFE79DF8030001B07047000082B08DF87C
:1007E00006008DF805108DF80420FFE741F20400A3
:1007F000C4F202000068C00708B1FFE7F6E79DF801
:100800000600400041F20001C4F2020108609DF8B8
:10081000050041F20801C4F20201086041F204013E
:10082000C4F2020103200860FFE741F20400C4F2B1
:1008300002000068C00708B1FFE7F6E741F20400D4
:10084000C4F20200006800F09E008DF803009DF8DD
:100850000300A8B1FFE741F20401C4F20201042041
:100860000860FFE741F20400C4F202000068C0071C
:1008700008B1FFE7F6E79DF803008DF807002BE0CD
:100880009DF8040041F20801C4F20201086041F23F
:100890000401C4F2020105200860FFE741F20400F0
:1008A000C4F202000068C00708B1FFE7F6E7FFE7FF
:1008B00041F20400C4F2020000684006002801D59D
:1008C000FFE7F5E741F20400C4F20200006800F01F
:1008D0009E008DF80700FFE79DF8070002B0704703
:1008E00080B582B08DF807009DF8070000F008F889
:1008F0009DF80700322100F087F802B080BD0000AB
:1009000080B582B08DF807009DF8070000212122F4
:1009100000F09EFC9DF807000121042200F098FCE5
:100920004CF2503000F05EF902B080BD80B582B06C
:100930008DF807008DF80610ADF80420BDF804000E
:1009400040F20001C2F20001098841434AF220103E
:10095000C0F2070000EB01304DF68361C4F21B3199
:10096000A0FB0110800C00900098B0F5805F04D3CC
:10097000FFE740F6FF700090FFE79DF807009DF845
:100980000610BDF80030002200F002F802B080BD71
:1009900010B584B08DF80F008DF80E10ADF80C2056
:1009A000ADF80A309DF80E00102801DBFFE729E0C2
:1009B000BDF80C006FF31F30ADF80C00BDF80A0055
:1009C0006FF31F30ADF80A009DF80E10062000EB03
:1009D00081008DF809009DF80F009DF80910BDF801
:1009E0000C30DAB2C3F30323BDF80AE05FFA8EFCE1
:1009F000CEF30324EE46CEF80440CEF800C000F05B
:100A0000F9FBFFE704B010BD80B588B08DF81F007A
:100A1000ADF81C10BDF81C00172804DCFFE71820F7
:100A2000ADF81C00FFE7BDF81C0040F2F75188420A
:100A300005DBFFE740F2F650ADF81C00FFE747F694
:100A40004000C0F27D100690BDF81C10090305910E
:100A5000059900EB5100B0FBF1F00490049818B92F
:100A6000FFE701200490FFE70498B0F5807F04D9E8
:100A7000FFE74FF480700490FFE7049820B1FFE790
:100A800004980138029002E000200290FFE70298EB
:100A900004909DF81F000021019100F06BFB01996B
:100AA0008DF80F009DF80F0000F06F0010308DF8EA
:100AB0000E009DF81F009DF80E2000F0C9FB9DF868
:100AC0001F009DF81020FE2100F0C2FB01999DF847
:100AD0001F009DF80F2000F0BBFB4CF2503000F0DF
:100AE00081F801999DF81F009DF80F2042F0A002A7
:100AF00000F0AEFBBDF81C0040F20001C2F20001A4
:100B0000088008B080BD000080B584B08446069897
:100B10008DF80FC08DF80E10ADF80C20ADF80A302E
:100B2000ADF80800BDF90C00B0F1FF3F04DCFFE7B1
:100B30000020ADF80C00FFE7BDF90C00B52804DB80
:100B4000FFE7B420ADF80C00FFE7BDF80A00B0F5F0
:100B5000C87F05DAFFE74FF4C870ADF80A00FFE779
:100B6000BDF8080040F6B931884205DBFFE740F6E2
:100B7000B830ADF80800FFE7BDF80800BDF80A106E
:100B8000884206DCFFE7BDF80A000130ADF8080036
:100B9000FFE7BDF80800BDF80A10401A0190BDF843
:100BA0000A00BDF90C10019A5143890846F6174214
:100BB000C1F2C162A1FB022100EB910000909DF8FF
:100BC0000F009DF80E10BDF80020FFF7AFFE04B037
:100BD00080BD00004EF21001CEF20001042008603A
:100BE0007047000081B00090009801384EF2140167
:100BF000CEF2000108604EF21801CEF20001002092
:100C000008604EF21001CEF20001086840F00100C9
:100C10000860FFE74EF21000CEF200000068C0034B
:100C2000002801D4FFE7F5E74EF21001CEF20001F3
:100C3000086820F00100086001B07047FFE74CF23F
:100C40001800C4F200000068C006002801D5FFE7C4
:100C5000F5E74CF20000C4F200000068C0B2704733
:100C60004EF20411C4F20F01086840F00100086060
:100C70004EF20811C4F20F01086840F0010008604C
:100C80004CF23001C4F20001086820F00100086055
:100C90004CF22400C4F20000112202604CF228033E
:100CA000C4F20003172018604CF22C03C4F20003B6
:100CB00070201860086840F201331843086044F25D
:100CC0002041C4F20001086840F00300086044F2CB
:100CD0001C51C4F20001086840F00300086044F2AF
:100CE0002C51C4F20001086862F30700086044F266
:100CF0002851C4F20001086820F003000860704722
:100D000080B50D2000F004F80A2000F001F880BD45
:100D100081B08DF80300FFE74CF21800C4F2000028
:100D200000688006002801D5FFE7F5E79DF803007D
:100D30004CF20001C4F20001086001B070470000ED
:100D400080B582B00190FFE70198007840B1FFE7DD
:100D500001980078FFF7DCFF019801300190F3E77C
:100D600002B080BD80B50320002100F041F84FF4AF
:100D7000967000F08BF880BD80B582B000F02EF840
:100D8000FFF7F0FF00205A21019100F031F801999E
:100D9000012000F02DF84FF4FA7000F077F802B05F
:100DA00080BD000080B582B08DF807009DF8070077
:100DB00040F20201C2F2000100910870FFF70AFF41
:100DC000FFF7EAFB00980078FFF78AFD00980078AB
:100DD0003221FFF719FE02B080BD000080B502206D
:100DE000002100F005F84FF4967000F04FF880BD38
:100DF00080B586B08DF81700ADF814109DF8170077
:100E0000032804DCFFE79DF81700029002E00020B1
:100E10000290FFE702988DF813009DF8131040F23E
:100E20000C00C2F2000030F81100ADF810009DF87F
:100E3000131040F20400C2F2000030F81100ADF8C7
:100E40000E0040F20200C2F2000000789DF8171078
:100E5000BDF91420BDF81030BDF80EC0EE46CEF836
:100E600000C0FFF751FE06B080BD000080B582B023
:100E70000190FFE70198411E019128B1FFE74CF274
:100E80005030FFF7AFFEF5E702B080BD80B582B00D
:100E90000190FFE70198411E019128B1FFE74CF254
:100EA0005030FFF79FFEF5E702B080BD80B58EB0F1
:100EB00000200D90FFF7D4FE4020FFF773FF4EF6A1
:100EC0002020C4F20F0000688007002807D4FFE745
:100ED00041F2A230C0F20000FFF732FFFFE74020EE
:100EE0000021FFF7CFFB8DF832009DF8320038B9B2
:100EF000FFE741F2DA20C0F20000FFF721FF2FE008
:100F00009DF8320000F02100212828D0FFE741F2AF
:100F1000DF30C0F20000FFF713FF41F2CE30C0F225
:100F200000000A900A989DF832100909405C8DF87B
:100F30002F000A989DF8321001F00F01405C8DF8E7
:100F4000300000208DF831000DF12F00FFF7F8FE82
:100F500041F2B630C0F20000FFF7F2FEFFE7FFE714
:100F6000FFF70AFF00F014F9FFE7FFF767FE8DF8BF
:100F700033009DF83300FFF7CBFEFFF7C1FE9DF86D
:100F80003300413801460191362800F2E48001998E
:100F9000DFE811F03700E100E1006000E100E1006E
:100FA000E100DB00E100E100E100E100DE00E10042
:100FB000E100E100E100E100B200E100E100E10058
:100FC0008900E100E100E100E100E100E100E10071
:100FD000E100E1003700E100E1006000E100E10034
:100FE000E100DB00E100E100E100E100DE00E10002
:100FF000E100E100E100E100B200E100E100E10018
:10100000890000200990FFE70998B4280DDCFFE76C
:10101000BDF924100120FFF7EBFE1920FFF726FF92
:10102000FFE7099805300990EEE7B4200890FFE744
:10103000089800280DD4FFE7BDF920100120FFF724
:10104000D7FE0F20FFF712FFFFE70898053808903A
:10105000EEE787E0B4200790FFE7079800280DD45B
:10106000FFE7BDF91C100120FFF7C2FE1920FFF7B2
:10107000FDFEFFE7079805380790EEE70020069091
:10108000FFE70698B4280DDCFFE7BDF91810012032
:10109000FFF7AEFE0F20FFF7E9FEFFE706980530E9
:1010A0000690EEE75EE000200590FFE70598B42883
:1010B0000DDCFFE7BDF914100020FFF799FE1920A1
:1010C000FFF7D4FEFFE7059805300590EEE7B42062
:1010D0000490FFE7049800280DD4FFE7BDF9101035
:1010E0000020FFF785FE0F20FFF7C0FEFFE7049802
:1010F00005380490EEE735E0B4200390FFE703984D
:1011000000280DD4FFE7BDF90C100020FFF770FE9A
:101110001920FFF7ABFEFFE7039805380390EEE7D1
:1011200000200290FFE70298B4280DDCFFE7BDF92C
:1011300008100020FFF75CFE0F20FFF797FEFFE787
:10114000029805300290EEE70CE0FFF715FE09E08B
:1011500000F01EF806E041F2A120C0F20000FFF707
:10116000EFFDFFE741F2B930C0F20000FFF7E8FD04
:10117000FBE6000080B582B08DF807008DF8061000
:101180009DF807009DF80610FFF77CFA02B080BDBD
:1011900080B541F2C620C0F20000FFF7D1FD41F258
:1011A0000130C0F20000FFF7CBFD41F24630C0F243
:1011B0000000FFF7C5FD41F22430C0F20000FFF748
:1011C000BFFD41F26930C0F20000FFF7B9FD41F206
:1011D0007420C0F20000FFF7B3FD41F28B30C0F283
:1011E0000000FFF7ADFD41F2B930C0F20000FFF79B
:1011F000A7FD80BD10B584B08C4686460798069939
:101200008DF80FE08DF80EC08DF80D208DF80C30A4
:101210008DF80B108DF80A009DF80D008DF8060072
:101220009DF80C008DF807009DF80B008DF8080064
:101230009DF80A008DF809009DF80F009DF80E102A
:101240000DF106020423FFF7D7F804B010BD00002B
:1012500080B582B08DF807008DF806108DF8052056
:101260009DF807009DF806109DF80520FFF7B6FAD7
:1012700002B080BD482F68203A20486F6D6520611C
:10128000726D202870656E2F6572617365722075AE
:10129000702C206D696420616E676C6573290D0A7E
:1012A00000556E6B6E6F776E20636F6D6D616E644F
:1012B0002E205072657373204D20666F72206D650D
:1012C0006E752E0D0A0057726974696E672041723F
:1012D0006D204D656E753A0D0A004572726F723A57
:1012E0002050434139363835206E6F742072657353
:1012F000706F6E64696E67206F6E204932430D0A0D
:1013000000412F61203A2053776565702062617338
:1013100065206368616E6E656C20666F72776172BE
:10132000640D0A00572F77203A20537765657020A7
:1013300070656E206368616E6E656C20666F727793
:101340006172640D0A00442F64203A20537765656A
:10135000702062617365206368616E6E656C2072D7
:101360006576657273650D0A00532F73203A20531A
:10137000776565702070656E206368616E6E656C60
:1013800020726576657273650D0A004D2F6D203AE7
:101390002053686F772074686973206D656E750DD2
:1013A0000A004572726F723A20493243206E6F74A0
:1013B0002072656164790D0A000D0A4177616974D4
:1013C000696E6720636F6D6D616E643E2000303121
:1013D0003233343536373839414243444546005775
:1013E00061726E696E673A20504341393638352054
:1013F0004D4F4445313D3078000000001C14000082
:101400000000002014000000E8020000301400007A
:1014100018000020600400000803000032004000B3
:10142000C409C40960096009F401F40158025802B2
:040000050000026D88
:00000001FF
