:020000040000FA
:10000000A00400206D0200007102000073020000D5
:100010007502000077020000790200000000000075
:100020000000000000000000000000007B02000053
:100030007D020000000000007F020000810200003D
:10004000830200008302000083020000830200009C
:10005000830200008302000083020000830200008C
:10006000830200008302000083020000830200007C
:10007000830200008302000083020000830200006C
:10008000830200008302000083020000830200005C
:10009000830200008302000083020000830200004C
:1000A000830200008302000083020000830200003C
:1000B0008302000083020000A90500008302000003
:1000C000830200008302000083020000830200001C
:1000D000830200008302000083020000830200000C
:1000E00083020000830200008302000083020000FC
:1000F00083020000830200008302000083020000EC
:1001000083020000830200008302000083020000DB
:1001100083020000830200008302000083020000CB
:1001200083020000830200008302000083020000BB
:1001300083020000830200008302000083020000AB
:1001400000000000000000000000000000000000AF
:10015000830200008302000083020000830200008B
:10016000000000000000000000000000000000008F
:10017000000000000000000000000000000000007F
:10018000000000000000000000000000000000006F
:10019000000000000000000000000000000000005F
:1001A000000000000000000000000000000000004F
:1001B000830200008302000083020000830200002B
:1001C000830200008302000083020000830200001B
:1001D000830200008302000083020000830200000B
:1001E00083020000830200008302000083020000FB
:1001F00083020000830200008302000083020000EB
:10020000830200008302000083020000000000005F
:1002100083020000830200008302000083020000CA
:1002200083020000830200008302000083020000BA
:1002300083020000830200008302000083020000AA
:10024000830200008302000083020000830200009A
:10025000830200008302000083020000830200008A
:1002600083020000830200008302000000F00AB84D
:10027000FEE7FEE7FEE7FEE7FEE7FEE7FEE7FEE756
:10028000FEE7FEE700F002F800F050F814A696E84A
:10029000000CB244B344DA4501D100F047F8BAE8A3
:1002A0000F000FA696E83000A5EB040504EB060747
:1002B000AAEB0704A7F101074FEA15154FEA34141A
:1002C000A4F10104AC4201D300F030F813F0010FA7
:1002D00018BFFB1A43F0010300F001F8DBE71847F1
:1002E0006824000088240000103A24BF78C878C130
:1002F000FAD8520724BF30C830C144BF04680C602C
:1003000070470000704700000023002400250026ED
:10031000103A28BF78C1FBD8520728BF30C148BF68
:100320000B6070471FB51FBD10B510BD00F029F858
:100330001146FFF7F7FF01F03DF800F047F803B46E
:10034000FFF7F2FF03BC00F04FF8000072B67047F1
:1003500062B67047EFF3108072B6704780F3108872
:10036000704730BF704702480249014A024B70474C
:10037000A0000020A0040020A000002070477047CB
:100380007047754600F02CF8AE46050069465346A6
:1003900020F00700854618B020B5FFF7E4FFBDE860
:1003A00020404FF000064FF000074FF000084FF0DC
:1003B000000BAC46ACE8C009ACE8C009ACE8C00929
:1003C000ACE8C00921F007018D46704710B504461E
:1003D000AFF300802046BDE81040FFF7B0BF00003B
:1003E000004870473000002001491820ABBEFEE7EE
:1003F000260002007047000081B040F29400C2F273
:100400000000007820B9FFE700208DF803001FE00E
:1004100040F29000C2F20000006840F29801C2F27F
:1004200000010968401A32280ED3FFE745F2FC307C
:10043000C4F202000068C006002804D4FFE70120CF
:100440008DF8030004E0FFE700208DF80300FFE7CC
:100450009DF8030001B0704740F29401C2F2000120
:10046000002008707047000081B04EF20861C4F2AD
:100470000F01086840F02000086000200090FFE7AE
:100480000098632805DCFFE7FFE700980130009043
:10049000F6E745F20041C4F20201086840F00E00A0
:1004A0000860086820F01000086045F21C51C4F292
:1004B0000201086840F01E00086045F2FC31C4F2F9
:1004C0000201086820F00E00086045F21051C4F2E5
:1004D0000201086840F01000086045F20441C4F2CF
:1004E0000201086820F01000086045F20841C4F2DB
:1004F0000201086820F01000086045F20C41C4F2C7
:100500000201086820F01000086045F21C41C4F2A6
:1005100002011020086045F21041C4F2020108688F
:1005200040F0100008604EF20011CEF200014FF0D2
:100530008040086001B0704781B08DF803008DF8ED
:1005400002108DF8012000208DF800009DF80300B6
:1005500038B1FFE79DF8000040F002008DF8000080
:10056000FFE79DF8010038B1FFE79DF8000040F07B
:1005700004008DF80000FFE79DF8020038B1FFE7A6
:100580009DF8000040F008008DF80000FFE745F2FC
:10059000FC31C4F2020108689DF80020520862F3A1
:1005A0004300086001B0704745F21C41C4F20201EB
:1005B0001020086040F29000C2F20000006840F293
:1005C0009801C2F20001086040F29401C2F20001F9
:1005D0000120087070470000FFE74EF22061C4F26E
:1005E0000F01086840F002000860FFE7FFE74EF2E5
:1005F0000861C4F20F01086840F001000860FFE7DD
:10060000FFE74EF62020C4F20F00006880070028A4
:1006100001D4FFE7F5E7FFE74EF60820C4F20F002C
:100620000068C00708B9FFE7F6E744F21C51C4F2BE
:100630000001086840F0C000086044F21051C4F2A4
:100640000001086840F0C000086044F22041C4F294
:100650000001086840F0C000086044F22C51C4F268
:1006600000010868332262F31F60086044F20C51F5
:10067000C4F20001086840F08000086044F228518C
:10068000C4F20001086820F0C000086044F2004194
:10069000C4F20001086840F040000860086820F0DB
:1006A00080000860FFE741F22001C4F2020110203F
:1006B0000860FFE741F20C01C4F202010720086064
:1006C0007047000081B08DF802008DF80110FFE73F
:1006D00041F20400C4F202000068C00708B1FFE75D
:1006E000F6E79DF80200400041F20001C4F2020169
:1006F00008609DF8010041F20801C4F2020108609F
:1007000041F20401C4F2020103200860FFE741F254
:100710000400C4F202000068C00708B1FFE7F6E772
:1007200041F20400C4F20200006800F09E008DF85F
:1007300000009DF80000A0B1FFE741F20401C4F2FF
:10074000020104200860FFE741F20400C4F2020045
:100750000068C00708B1FFE7F6E700208DF8030046
:1007600057E09DF802004000013041F20001C4F260
:100770000201086041F20401C4F20201072008608E
:10078000FFE741F20400C4F202000068C00708B1AC
:10079000FFE7F6E741F20400C4F20200006800F04F
:1007A0009E008DF800009DF80000F8B1FFE741F2CF
:1007B0000401C4F2020104200860FFE741F20400D2
:1007C000C4F202000068C00708B1FFE7F6E7FFE7E0
:1007D00041F20400C4F2020000684006002801D57E
:1007E000FFE7F5E700208DF8030012E0FFE741F294
:1007F0000400C4F2020000684006002801D5FFE7AB
:10080000F5E741F20800C4F2020000688DF8030029
:10081000FFE79DF8030001B07047000082B08DF83B
:1008200006008DF805108DF80420FFE741F2040062
:10083000C4F202000068C00708B1FFE7F6E79DF8C0
:100840000600400041F20001C4F2020108609DF878
:10085000050041F20801C4F20201086041F20401FE
:10086000C4F2020103200860FFE741F20400C4F271
:1008700002000068C00708B1FFE7F6E741F2040094
:10088000C4F20200006800F09E008DF803009DF89D
:100890000300A8B1FFE741F20401C4F20201042001
:1008A0000860FFE741F20400C4F202000068C007DC
:1008B00008B1FFE7F6E79DF803008DF807002BE08D
:1008C0009DF8040041F20801C4F20201086041F2FF
:1008D0000401C4F2020105200860FFE741F20400B0
:1008E000C4F202000068C00708B1FFE7F6E7FFE7BF
:1008F00041F20400C4F2020000684006002801D55D
:10090000FFE7F5E741F20400C4F20200006800F0DE
:100910009E008DF80700FFE79DF8070002B07047C2
:1009200080B582B08DF807009DF8070000F01CF834
:100930009DF807000121042200F048FA9DF8070005
:100940000021212200F042FA40F20000C2F2000031
:10095000006800F031FA9DF807000021C4F2482138
:1009600000F06AF802B080BD80B582B08DF8070053
:100970009DF807000021802200F028FA4AF220109A
:10098000C0F2070000F09AFA02B080BD80B582B0D4
:100990008DF807008DF80610ADF804209DF80700CB
:1009A0009DF80610BDF8042000F022FA02B080BDC8
:1009B00010B586B08DF817008DF81610ADF814201C
:1009C000ADF81230BDF814006FF31F30ADF814000D
:1009D000BDF812006FF31F30ADF81200BDF814001F
:1009E0008DF80E009DF8150000F00F008DF80F0037
:1009F000BDF812008DF810009DF8130000F00F00F4
:100A00008DF811009DF817009DF81620062101EBC6
:100A100082019DF80E209DF80F309DF810C09DF8C2
:100A20001140EE46CEF80440CEF800C0C9B201F045
:100A300015F9002006B010BD80B586B08DF81700FE
:100A4000049104984FF07E5101F0B9F920B9FFE705
:100A50004FF07E500490FFE704984CF20001C4F27E
:100A60005A5101F0B3F930B9FFE74CF20000C4F27B
:100A70005A500490FFE740F20000C2F20000006804
:100A800001F0E8FA019004984FF08B4101F05EFB11
:100A90000146019801F0B4F94FF07C5101F018F9CA
:100AA0000021CBF6807101F013F903900398002127
:100AB000C4F2400101F083F928B9FFE70020C4F235
:100AC00040000390FFE703980021C4F27F3101F05A
:100AD0007DF928B9FFE70020C4F27F300390FFE7DB
:100AE000039801F083FA8DF80B009DF817000021A0
:100AF000009100F047F900998DF80A009DF80A006E
:100B000000F06F0010308DF809009DF817009DF877
:100B1000092000F05BF99DF817009DF80B20FE21DD
:100B200000F054F900999DF817009DF80A2000F094
:100B30004DF94DF29000C0F2030000F0BFF90099AA
:100B40009DF817009DF80A2042F0A00200F03EF93F
:100B5000049801F04BFA40F21001C2F20001088043
:100B600006B080BD80B582B08DF807008DF8061004
:100B7000ADF804208DF80330BDF80400B0F5805FB7
:100B800005DBFFE740F6FF70ADF80400FFE79DF8D6
:100B9000030078B3FFE7BDF8040050B9FFE79DF804
:100BA00007009DF806104FF480520023FFF700FF66
:100BB0001FE0BDF8040040F6FF7188420AD1FFE74C
:100BC0009DF807009DF8061000224FF48053FFF7B0
:100BD000EFFE0DE09DF807009DF80610BDF804300B
:100BE00040F6FF72D21A93B20022FFF7E1FEFFE750
:100BF000FFE72AE0BDF8040040F6FF7188420AD101
:100C0000FFE79DF807009DF806104FF4805200237F
:100C1000FFF7CEFE18E0BDF8040050B9FFE79DF8DD
:100C200007009DF8061000224FF48053FFF7C0FE26
:100C300009E09DF807009DF80610BDF80430002279
:100C4000FFF7B6FEFFE7FFE7FFE702B080BD000059
:100C500080B584B0844606988DF80FC08DF80E10CC
:100C6000ADF80C20ADF80A30ADF80800BDF90C0065
:100C7000B0F1FF3F04DCFFE70020ADF80C00FFE718
:100C8000BDF90C00B52804DBFFE7B420ADF80C007B
:100C9000FFE7BDF80A00B0F5C87F05DAFFE74FF4BB
:100CA000C870ADF80A00FFE7BDF8080040F6B9319A
:100CB000884205DBFFE740F6B830ADF80800FFE7F3
:100CC000BDF80800BDF80A10884206DCFFE7BDF851
:100CD0000A000130ADF80800FFE7BDF80800BDF8D4
:100CE0000A10401A0190BDF80A00BDF90C10019AD3
:100CF0005143890846F61742C1F2C162A1FB0221A5
:100D000000EB910000909DF80F009DF80E10BDF8CB
:100D10000020FFF73BFE04B080BD000080B582B02C
:100D20008DF807008DF806108DF805209DF8061047
:100D3000062000EB81008DF804009DF8050030B11D
:100D4000FFE79DF8040002308DF80400FFE79DF8EE
:100D500007009DF804100131C9B200F013F88DF8B6
:100D600003009DF807009DF8041000F00BF88DF8C3
:100D700002009DF802009DF8031040EA012002B035
:100D800080BD000080B582B08DF807008DF8061098
:100D90009DF807009DF80610FFF794FC02B080BD97
:100DA00080B582B08DF807009DF80700FE21FFF79F
:100DB000E9FF02B080BD000081B00090009840F2D1
:100DC0000001C2F20001086001B0704780B582B036
:100DD0008DF807008DF806108DF805209DF80700A6
:100DE0009DF806109DF80520FFF718FD02B080BDA4
:100DF00080B586B08DF817008DF81610ADF8142068
:100E00009DF81700FFF7CCFF8DF8130042F2004069
:100E1000C4F6741003909DF81300013001F002F93C
:100E20000146039801F092F9039040F20000C2F2EB
:100E30000000006801F00EF90146039800F0E0FFA1
:100E40000390BDF8140001F005F9039900F0D8FFF4
:100E500002900298002100F0B2FF18B9FFE70020CD
:100E60000290FFE702984FF20001C4F27F5100F0B8
:100E7000ADFF30B9FFE74FF20000C4F27F5002909F
:100E8000FFE79DF8170001909DF81600009002986A
:100E90004FF07C5100F01CFF01F0A8F800990346C8
:100EA00001980022FFF784FD06B080BD4EF21001CC
:100EB000CEF20001042008607047000081B000906D
:100EC000009801384EF21401CEF2000108604EF293
:100ED0001801CEF20001002008604EF21001CEF29F
:100EE0000001086840F001000860FFE74EF21000C2
:100EF000CEF200000068C003002801D4FFE7F5E748
:100F00004EF21001CEF20001086820F001000860E6
:100F100001B07047FFE74CF21800C4F2000000680F
:100F2000C006002801D5FFE7F5E74CF20000C4F247
:100F300000000068C0B270474EF20411C4F20F0105
:100F4000086840F0010008604EF20811C4F20F0179
:100F5000086840F0010008604CF23001C4F2000162
:100F6000086820F0010008604CF22400C4F2000080
:100F7000112202604CF22803C4F20003172018600B
:100F80004CF22C03C4F2000370201860086840F291
:100F900001331843086044F22041C4F2000108689C
:100FA00040F00300086044F21C51C4F200010868DC
:100FB00040F00300086044F22C51C4F200010868BC
:100FC00062F30700086044F22851C4F20001086887
:100FD00020F003000860704780B50D2000F004F891
:100FE0000A2000F001F880BD81B08DF80300FFE712
:100FF0004CF21800C4F2000000688006002801D5F9
:10100000FFE7F5E79DF803004CF20001C4F2000190
:10101000086001B07047000080B582B00190FFE722
:101020000198007840B1FFE701980078FFF7DCFFF6
:10103000019801300190F3E702B080BD80B58CB01B
:101040008DF82F000A91099200F03CF99DF92F00CC
:1010500061280BDBFFE79DF92F007A2806DCFFE70C
:101060009DF82F0020388DF82F00FFE79DF92F0005
:10107000412805DBFFE79DF92F005B2806DBFFE732
:101080000A980630099900F017FD75E09DF92F00C8
:1010900000EB800042F2CE31C0F200010844A0F221
:1010A0004510089000200790FFE70798042863DCAC
:1010B000FFE708980799405C8DF81B000020059019
:1010C000FFE70598042852DCFFE7FFE705990020B9
:1010D000042902900BDCFFE79DF81B000599C1F184
:1010E000040120FA01F1012088430290FFE70298F1
:1010F000C00720B1FFE7059801300590E6E70598A5
:10110000052801DBFFE732E005980490FFE7059929
:101110000020042901900ADCFFE79DF81B000599D7
:10112000C1F10401C84000F001000190FFE70198FF
:10113000C00720B1FFE7059801300590E7E7059863
:10114000013803900A98049908440999079A1144B0
:1011500000F0B2FC00F0ACF80A9803990844099931
:10116000079A114400F0A8FC00F0ACF8A9E7FFE7EB
:1011700007980130079098E70CB080BD80B586B025
:10118000059004910498039000200290FFE70599D0
:101190000020009041B1FFE7059890F90000002879
:1011A00018BF01200090FFE70098C00788B3FFE751
:1011B0000598411C059100788DF807009DF90700FE
:1011C0000A2805D0FFE79DF907000D2806D1FFE7A3
:1011D00004980390029807300290D8E703980630ED
:1011E0005B2806DBFFE70498039002980730029023
:1011F000FFE702980530242801DBFFE709E09DF9AD
:1012000007000399029AFFF719FF0398063003902D
:10121000BDE706B080BD000080B50320002100F0CE
:101220005BF84FF4967000F095F880BD80B500F043
:1012300049F8FFF7F1FF00205A2100F04DF8012096
:101240006E2100F049F84FF4FA7000F083F880BD89
:1012500080B582B08DF807009DF8070040F21801B4
:10126000C2F2000100910870FFF720FEFFF7B4F909
:1012700000980078FFF754FB009800780021C4F232
:101280004821FFF7D9FB02B080BD000080B582B0D5
:10129000ADF80600ADF80410BDF90610002000F00E
:1012A0001BF8BDF90410012000F016F802B080BD53
:1012B00080B50220692100F00FF8FA2000F04AF80A
:1012C00080BD000080B50220A02100F005F8FA20C2
:1012D00000F040F880BD000080B586B08DF81700A2
:1012E000ADF814109DF81700032804DCFFE79DF803
:1012F0001700029002E000200290FFE702988DF8AC
:1013000013009DF8131040F22200C2F2000030F8E2
:101310001100ADF810009DF8131040F21A00C2F24F
:10132000000030F81100ADF80E0040F21800C2F2D3
:10133000000000789DF81710BDF91420BDF810309A
:10134000BDF80EC0EE46CEF800C0FFF781FC06B037
:1013500080BD000080B582B00190FFE70198411E7A
:10136000019128B1FFE74CF25030FFF7A7FDF5E7F8
:1013700002B080BD84B00390029101920093019865
:10138000B0F1FF3F03DCFFE700200190FFE7019889
:101390000099884203DDFFE700980190FFE703987A
:1013A0000199029A121A5143009A91FBF2F10844F2
:1013B00004B0704780B5B6B000200E903590FFF7AE
:1013C000BBFDFFF751F80E9A10461146FFF7B4F82F
:1013D0004020FFF73DFF4EF62020C4F20F000068CA
:1013E0008007002807D4FFE742F2B360C0F2000094
:1013F000FFF712FEFFE740200021FFF763F98DF8A9
:10140000D2009DF8D20038B9FFE742F2EB50C0F2AB
:101410000000FFF701FE2FE09DF8D20000F0210050
:10142000212828D0FFE742F2F860C0F20000FFF761
:10143000F3FD42F2E760C0F20000329032989DF86E
:10144000D2100909405C8DF8CF0032989DF8D21077
:1014500001F00F01405C8DF8D00000208DF8D10024
:101460000DF1CF00FFF7D8FD42F2C760C0F20000D7
:10147000FFF7D2FDFFE7FFE7FFF7D8FE40F20801D4
:10148000C2F200015A20086040F20402C2F20002D7
:101490006E21116040F21401C2F20001086040F2B6
:1014A0000C01C2F200010020086000F093FBFFE78E
:1014B000FEF7A2FF002863D0FFE7FEF7CDFF40F262
:1014C0009C00C2F200000178B1FA81F14909017073
:1014D000007860B3FFE7012000220D921146FFF76C
:1014E0002BF842F26D50C0F20000FFF795FDFFF7B8
:1014F0009DFE0D9840F20802C2F200025A211160CE
:1015000040F20403C2F200036E221A6040F2140299
:10151000C2F20002116040F20C01C2F20001086048
:1015200042F2DF60C0F20000FFF776FD27E0002204
:101530000C9210461146FEF7FFFF42F23250C0F205
:101540000000FFF769FDFFF771FE0C9840F20802FA
:10155000C2F200025A21116040F20403C2F20003F9
:101560006E221A6040F21402C2F20002116040F2D0
:101570000C01C2F20001086000F02CFBFFE7FFE75E
:1015800040F29C00C2F200000078002800F0D280F7
:10159000FFE70020ADF84600FFE740F29C00C2F2F2
:1015A00000000078002800F0C480FFE7FEF724FF69
:1015B00078B3FFE7FEF750FF40F29C00C2F2000054
:1015C00000220B92027010461146FEF7B5FF42F260
:1015D0004A50C0F20000FFF71FFDFFF727FE0B98EF
:1015E00040F20802C2F200025A21116040F20403E4
:1015F000C2F200036E221A6040F21402C2F200022C
:10160000116040F20C01C2F20001086000F0E2FA41
:101610008FE04CF21800C4F200000068C0060028F9
:1016200079D4FFE7FFF776FC8DF845009DF845007B
:101630000D2805D0FFE79DF845000A2831D1FFE7C6
:10164000FFF7CAFCBDF8460008B3FFE7BDF8462027
:1016500012A9089100200A908854FFF7E7FD089826
:101660000A99FFF78BFDFFF7E1FD0A9A0121099125
:101670001046FEF761FF49F28060C0F29800FFF764
:101680001DFC09980A9A1146FEF756FFFFE7002055
:10169000ADF8460042F2DF60C0F20000FFF7BCFC8C
:1016A00038E09DF84500082805D0FFE79DF8450083
:1016B0007F2815D1FFE7BDF8460080B1FFE7BDF8F0
:1016C00046000138ADF8460008200790FFF78CFC73
:1016D0002020FFF789FC0798FFF786FCFFE718E05A
:1016E0009DF84500202813DBFFE7BDF846007E2863
:1016F0000ED8FFE79DF84500BDF84620511CADF817
:10170000461012A988549DF84500FFF76DFCFFE7CD
:10171000FFE7FFE7FFE74DF29000C0F20300FFF79D
:10172000CDFB40F29001C2F200010868053008606C
:1017300033E7BDE64CF21800C4F200000068C006B2
:10174000002800F1AA81FFE7FFF7E4FB8DF8D30042
:101750009DF8D300FFF748FCFFF73EFC9DF8D3004F
:10176000413801460691362800F289810699DFE862
:1017700011F037008601860153008601860186013B
:10178000E2008601A900C500860183018601860169
:101790008601860186018C000101860186017000A8
:1017A0008601860186018601860186018601860101
:1017B0008601370086018601530086018601860175
:1017C000E2008601A900C500860183018601860129
:1017D0008601860186018C00010186018601700068
:1017E00040F20400C2F200000168053101600068A7
:1017F000B52807DBFFE740F20401C2F20001B42084
:101800000860FFE740F20400C2F20000B0F90010E7
:101810000120FFF761FD39E140F20400C2F200004F
:101820000168053901600068B0F1FF3F07DCFFE7A0
:1018300040F20401C2F2000100200860FFE740F21C
:101840000400C2F20000B0F900100120FFF744FDCF
:101850001CE140F20800C2F200000168053101609D
:101860000068B52807DBFFE740F20801C2F200017B
:10187000B4200860FFE740F20800C2F20000B0F9AF
:1018800000100020FFF728FD00E140F20800C2F23E
:1018900000000168053901600068B0F1FF3F07DC16
:1018A000FFE740F20801C2F2000100200860FFE7F4
:1018B00040F20800C2F20000B0F900100020FFF76B
:1018C0000BFDE3E040F21400C2F2000001680531B4
:1018D00001600068B52807DBFFE740F21401C2F29F
:1018E0000001B4200860FFE740F21400C2F20000DB
:1018F000B0F900100220FFF7EFFCC7E040F214003F
:10190000C2F200000168053901600068B0F1FF3FD4
:1019100007DCFFE740F21401C2F20001002008607A
:10192000FFE740F21400C2F20000B0F900100220FC
:10193000FFF7D2FCAAE0FFF779FC40F20801C2F2FF
:1019400000015A20086040F20402C2F200026E2137
:10195000116040F21401C2F20001086040F20C0074
:10196000C2F2000000230360402008211A46FFF75E
:10197000F9F88BE042F2C750C0F20000FFF74CFBD1
:101980004020029000210191FFF7FCF98DF84400FE
:1019900042F20970C0F20000FFF73EFB9DF84400E0
:1019A00000F0F8F842F2C760C0F200000590FFF7BF
:1019B00033FB029801210491FFF7E4F98DF843000D
:1019C00042F21270C0F20000FFF726FB9DF84300C0
:1019D00000F0E0F80598FFF71FFB0298FFF7E0F929
:1019E0008DF8420042F21B70C0F20000FFF714FBBA
:1019F0009DF8420000F0CEF80598FFF70DFB42F28B
:101A00001650C0F20000FFF707FB019B0298082167
:101A100003914FF40062FFF7A5F844F64030C0F29E
:101A20004C00FFF74BFA019A02980399FFF776F9F9
:101A3000ADF8400042F23770C0F20000FFF7ECFA58
:101A4000BDF8400000F074F80598FFF7E5FA029839
:101A50000399049AFFF762F9ADF83E0042F227704D
:101A6000C0F20000FFF7D8FABDF83E0000F060F8C1
:101A70000598FFF7D1FA09E000F0ACF806E042F271
:101A8000A250C0F20000FFF7C7FAFFE742F2CA60B7
:101A9000C0F20000FFF7C0FAFFE74DF29000C0F27D
:101AA0000300FFF70BFA40F29001C2F20001086850
:101AB00005300860FCE4000080B586B00590049114
:101AC0000598B0F1FF3F03DCFFE700200590FFE73A
:101AD0000498B0F1FF3F03DCFFE700200490FFE72C
:101AE00005985B2803DBFFE75A200590FFE7049881
:101AF000242803DBFFE723200490FFE7059A3C201E
:101B0000782101915A23FFF735FC0390049A552060
:101B100087212323FFF72EFC0290BDF90C00BDF9AD
:101B20000810FFF7B3FB0198FFF714FC06B080BD67
:101B300080B584B0ADF80E0042F2E760C0F200005C
:101B400001900198BDF80E10090B405C8DF809005A
:101B500001989DF80F1001F00F01405C8DF80A000C
:101B60000198BDF80E10C1F30311405C8DF80B0015
:101B70000198BDF80E1001F00F01405C8DF80C00CB
:101B800000208DF80D000DF10900FFF745FA04B0B3
:101B900080BD000080B582B08DF8070042F2E7609A
:101BA000C0F20000009000989DF807100909405C01
:101BB0008DF8040000989DF8071001F00F01405CBB
:101BC0008DF8050000208DF8060001A8FFF724FA23
:101BD00002B080BD80B542F2D750C0F20000FFF7DE
:101BE0001BFA42F21260C0F20000FFF715FA42F24F
:101BF0005760C0F20000FFF70FFA42F23560C0F202
:101C00000000FFF709FA42F27A60C0F20000FFF725
:101C100003FA42F29340C0F20000FFF7FDF942F2EE
:101C2000BE40C0F20000FFF7F7F942F2E940C0F20F
:101C30000000FFF7F1F942F29C60C0F20000FFF7EC
:101C4000EBF942F25040C0F20000FFF7E5F942F232
:101C5000CA60C0F20000FFF7DFF980BD10B582B0A6
:101C60008C468646059804998DF807E08DF806C0E5
:101C70008DF805208DF804308DF803108DF80200E2
:101C80009DF807009DF806109DF80520FEF7C6FD9B
:101C90009DF807009DF8061001319DF80420C9B297
:101CA000FEF7BCFD9DF807009DF8061002319DF877
:101CB0000320C9B2FEF7B2FD9DF807009DF806109B
:101CC00003319DF80220C9B2FEF7A8FD02B010BD95
:101CD00090EA010F48BF81F0004100F10A83421AE7
:101CE0003CBF801A89184FEAD052A2EBD1534FF073
:101CF0007F4C1CEA410F18BF9CEA026F00F03B804A
:101D00004FF0004C4CEA00204CEA012121FA03FC80
:101D100010EB0C0C1ED202F1FF325FEA1C2040EBEC
:101D2000C25038BF70471CF07F0F4FEA400C18BFFD
:101D3000BCF17F4F38BF7047C3F12003994008BF03
:101D400020F00100BCF17F4F38BF7047A0F1C040C8
:101D500000F0C3BA4FEA3C00000A40EBC25028BF73
:101D60001CF0FF0F4FEA400CE6D018BFBCF17F4FCC
:101D700038BF7047EAE79CEA026F05D010EA5C0FB3
:101D800008BF00F00040704710B500F060FA00BFD7
:101D900064FBBE3E10B500F0F5F80CBF012000203A
:101DA00010BD10B500F0EEF814BF0120002010BDEA
:101DB00010B500F063F98CBF0120002010BD10B5F4
:101DC00000F05CF92CBF0120002010BD10B500F020
:101DD00089F994BF0120002010BD10B500F082F9F0
:101DE00034BF0120002010BD401058BFC0F140405A
:101DF000491058BFC1F140418142EFF30080704764
:101E00004FF47F0C1CEAD0121EBF1CEAD11392EAD9
:101E10000C0F93EA0C0F00F0858090EA010F48BF89
:101E200042F4807240F4000C41F400002CF07F4139
:101E300020F07F4000B5A2EB030281420FF2081CA4
:101E4000ACEB504E9EF800E0C0F100004FEA4E0EA1
:101E500000FB0EFC38BF49004FEA2C1C0CFB0EF3B4
:101E60004FEACE1E0EEB635E4FEA112C0EFB0CFC0C
:101E70004FEAC1214FEA1C5300FB031102F5FA029D
:101E80004FEA112C0EFB0CFC4FEA01314FEADC4CFF
:101E900000FB0C1142EB2242C14228BF09184CEB57
:101EA00003335DF804EB10EB410143EBC250B2F594
:101EB0007C0F38BF704729D512F0F00F1CBF00F11E
:101EC000C04000F00040704700818283848586878F
:101ED00088898B8C8D8E8F919293959697999A9CE9
:101EE0009D9FA0A2A3A5A7A8AAACAEB0B2B3B5B758
:101EF000B9BCBEC0C2C5C7C9CCCED1D4D7D9DCDF2E
:101F0000E2E6E9ECF0F3F7FAFE0000004FEA400CDD
:101F10000CF1807CBCF17E4F28BF7047B0F1C0400F
:101F200000F0DBB90CEAD11390EA010F48BF42F48C
:101F30008072624538BF634507D213F47F0F16D015
:101F400080EA010000F00040704710B500F07FF912
:101F5000097EFC3E00F005B880EA010000F0004078
:101F6000704780EA010000F0004000F0B6B912F4BA
:101F70007F0F04BF0248704780EA010000F0ADB94E
:101F80000000C07F50EA010C00F113801CF5000F27
:101F900058BFBCF5000F01D48842704707D710F531
:101FA000000F58BF11F5000F15D4884270478942C1
:101FB00070471CF5000F04D5BCF5000FF7D5814222
:101FC00070474FF0807C1CEB400F38BF1CEB410F7B
:101FD00001D28142704710B500F039F992244900CE
:101FE0004FF000504FF08051FFF7FEBE41000B0E46
:101FF000D3F19E0208D950F400034FEA032323FAD9
:1020000002F048BF4042704710B500F020F900BF11
:1020100049922480002070476FF0004282EA20003D
:102020007047000010F0004148BF4042B0FA80F312
:1020300010FA03F2C3F19D030BD051EAC35101EB37
:102040001220530638BF704700F1010008BF20F08E
:1020500001007047B0FA80F310FA03F2C3F19D0358
:102060000AD0D90501EB1220530638BF704700F1A2
:10207000010008BF20F001007047000050EA010C89
:1020800000F113801CF5000F58BFBCF5000F01D400
:102090008842704707D710F5000F58BF11F5000FA1
:1020A00015D488427047894270471CF5000F04D54B
:1020B000BCF5000FF7D5814270474FF0807C1CEBD8
:1020C000400F38BF1CEB410F01D28142704710B561
:1020D00000F0BDF8922449004FF080504FF00051BD
:1020E000FFF782BE50EA010C00F113801CF5000FCF
:1020F00058BFBCF5000F01D48842704707D710F5D0
:10210000000F58BF11F5000F15D48842704789425F
:1021100070471CF5000F04D5BCF5000FF7D58142C0
:1021200070474FF0807C1CEB400F38BF1CEB410F19
:1021300001D28142704710B500F089F8922449001D
:102140004FF000504FF08051FFF74EBE4FF47F0C20
:102150001CEAD0121EBF1CEAD11392EA0C0F93EABC
:102160000C0F00F0478090EA010F48BF42F48072E4
:102170004FF0004C4CEA00204CEA012102EB030234
:10218000A0FB0113A2F50002002918BF43F00103D0
:102190005B0028BF4FEA330342EB22425FEA132C75
:1021A0004CEBC2502EBFBCEB436FB2F57C0F7047B7
:1021B0004FEA036CBCF1004F08BF20F00100B2F5FC
:1021C0007C0F38BF70470BD582F0FF0212F5803FBD
:1021D000C8BF704700F1C040D8BF00F00040704752
:1021E00000F5000C5FEA4C0C48BF7047B0F1C040EE
:1021F00000F073B80CEAD11390EA010F48BF42F423
:102200008072624538BF634504D280EA010000F065
:102210000040704710B500F01AF800BF8900013E79
:1022200000F007B800F009B85FEA410C5FEA1C6CE7
:1022300008D080EA010000F050B85FEA400C5FEA85
:102240001C6CF6D14FF00040A0F5800070470EF1F5
:10225000020E2EF0030E5EF8044B244204D44FEA23
:102260004102B2F17F4F11D84FEA4003B3F17F4FE3
:102270000CD80ED14FEAD07C0CEB4C0C0CF1020CBC
:10228000B2F17F4F08BF4CEBD17C04E04FF0080C5B
:1022900001E04FEAD17C0CEB4C0324FA03F404F088
:1022A0000704B4F1040C06D20EEB840CBDE8104018
:1022B0004CF0010C6047DFE80CF0070802024FF019
:1022C0000040A0F5800010BD0846420018BFD2F1C2
:1022D000807288BF00F0004010BDFF2141EAD0505D
:1022E000C005704790EA010F48BF81F000413FF5FB
:1022F000F6AC421A04D882F00042A0EB020011446E
:102300004FEAD052A2EBD1534FF07F4C1CEA410F61
:1023100018BF9CEA026F4AD04FF0004C4CEA0020F4
:102320004CEA012121FA03FCB0EB0C0C0FD412F0A3
:10233000FE0F36D05FEA4C001DD5001240EBC250B4
:1023400038BF70471CF03F0F18BF70470BE05FEAC3
:102350001C20A2F1010240EBC25038BF70471CF0B4
:102360007F0F18BF7047C3F12003994014BF401E70
:1023700020F0010070474FEA1223800808BF704721
:10238000B0FA80FCA2EB0C02CCF1280C60FA0CF045
:1023900093EA122F04BF00EBC25070474FEAC3709C
:1023A0007047130A5FEADC1008BF7047F6E79CEA43
:1023B000026F04D010EA5C0F08BF0020704710B510
:1023C000FFF745FF40DFF63E81F0004070470E11F9
:1023D0001F11111E111E111E0E1110110E1E1111B2
:1023E000111E1F101E101F1F101E10100E1017118F
:1023F0000E11111F11110E0404040E070202120C1B
:1024000011121C1211101010101F111B1511111197
:10241000191513110E1111110E1E111E10100E118F
:10242000110E031E111E12110F100E011E1F0404A7
:102430000404111111110E11110A0A041111151BB6
:1024400011110A040A11110A0404041F0204081FCE
:10245000542F74203A205043413936383520726564
:10246000676973746572207465737420287072696B
:102470006E7473204D4F4445312F505245534341A4
:102480004C452C20746F67676C657320434838296E
:102490000D0A004A2F6A203A205377656570207034
:1024A000656E206368616E6E656C20666F72776121
:1024B0007264202850454E5F4348290D0A004B2F77
:1024C0006B203A2053776565702070656E206368D5
:1024D000616E6E656C20726576657273652028503A
:1024E000454E5F4348290D0A00482F68203A20488E
:1024F0006F6D652061726D202870656E2F65726149
:102500007365722075702C206D696420616E676C34
:102510006573290D0A0053657474696E672043481A
:102520003820746F20353025202874657374290D88
:102530000A000D0A45786974696E6720575249543C
:1025400045206D6F64652E0D0A000D0A577269747F
:1025500065206D6F64652063616E63656C656420E2
:10256000627920627574746F6E2E0D0A000D0A4533
:102570006E746572696E67205752495445206D6FBD
:1025800064652E20507265737320627574746F6E6B
:1025900020616761696E20746F20657869742E0D03
:1025A0000A00556E6B6E6F776E20636F6D6D616E96
:1025B000642E205072657373204D20666F72206DFB
:1025C000656E752E0D0A005043413936383520545A
:1025D0006573743A0D0A0057726974696E67204119
:1025E000726D204D656E753A0D0A004572726F72FC
:1025F0003A2050434139363835206E6F7420726569
:1026000073706F6E64696E67206F6E204932430D80
:102610000A00412F61203A2053776565702062617E
:102620007365206368616E6E656C20666F7277619A
:1026300072640D0A00572F77203A20537765657032
:102640002070656E206368616E6E656C20666F72C7
:10265000776172640D0A00442F64203A2053776535
:1026600065702062617365206368616E6E656C20C1
:10267000726576657273650D0A00532F73203A20D8
:1026800053776565702070656E206368616E6E6556
:102690006C20726576657273650D0A004D2F6D2092
:1026A0003A2053686F772074686973206D656E7582
:1026B0000D0A004572726F723A20493243206E6FE4
:1026C000742072656164790D0A000D0A41776169B1
:1026D00074696E6720636F6D6D616E643E20005794
:1026E000726974653E200030313233343536373804
:1026F00039414243444546005761726E696E673AFC
:102700002050434139363835204D4F4445313D3016
:1027100078004D4F4445323D307800505245534388
:10272000414C453D307800434838204F46462072A2
:102730006561643D307800434838204F4E20726513
:1027400061643D3078000000682700000000002030
:102750002C000000E8020000942700003000002058
:10276000700400000803000040787D016E00000046
:102770005A0000005A000000320000005A00000019
:102780004000C409C40960096009F401F401580259
:0427900058020000EB
:040000050000026D88
:00000001FF
