:020000040000FA
:10000000780400206D0200007102000073020000FD
:100010007502000077020000790200000000000075
:100020000000000000000000000000007B02000053
:100030007D020000000000007F020000810200003D
:10004000830200008302000083020000830200009C
:10005000830200008302000083020000830200008C
:10006000830200008302000083020000830200007C
:10007000830200008302000083020000830200006C
:10008000830200008302000083020000830200005C
:10009000830200008302000083020000830200004C
:1000A000830200008302000083020000830200003C
:1000B000830200008302000083020000830200002C
:1000C000830200008302000083020000830200001C
:1000D000830200008302000083020000830200000C
:1000E00083020000830200008302000083020000FC
:1000F00083020000830200008302000083020000EC
:1001000083020000830200008302000083020000DB
:1001100083020000830200008302000083020000CB
:1001200083020000830200008302000083020000BB
:1001300083020000830200008302000083020000AB
:1001400000000000000000000000000000000000AF
:10015000830200008302000083020000830200008B
:10016000000000000000000000000000000000008F
:10017000000000000000000000000000000000007F
:10018000000000000000000000000000000000006F
:10019000000000000000000000000000000000005F
:1001A000000000000000000000000000000000004F
:1001B000830200008302000083020000830200002B
:1001C000830200008302000083020000830200001B
:1001D000830200008302000083020000830200000B
:1001E00083020000830200008302000083020000FB
:1001F00083020000830200008302000083020000EB
:10020000830200008302000083020000000000005F
:1002100083020000830200008302000083020000CA
:1002200083020000830200008302000083020000BA
:1002300083020000830200008302000083020000AA
:10024000830200008302000083020000830200009A
:10025000830200008302000083020000830200008A
:1002600083020000830200008302000000F00AB84D
:10027000FEE7FEE7FEE7FEE7FEE7FEE7FEE7FEE756
:10028000FEE7FEE700F002F800F050F814A696E84A
:10029000000CB244B344DA4501D100F047F8BAE8A3
:1002A0000F000FA696E83000A5EB040504EB060747
:1002B000AAEB0704A7F101074FEA15154FEA34141A
:1002C000A4F10104AC4201D300F030F813F0010FA7
:1002D00018BFFB1A43F0010300F001F8DBE71847F1
:1002E000401B0000601B0000103A24BF78C878C192
:1002F000FAD8520724BF30C830C144BF04680C602C
:1003000070470000704700000023002400250026ED
:10031000103A28BF78C1FBD8520728BF30C148BF68
:100320000B6070471FB51FBD10B510BD00F029F858
:100330001146FFF7F7FF00F037FE00F047F803B46F
:10034000FFF7F2FF03BC00F04FF8000072B67047F1
:1003500062B67047EFF3108072B6704780F3108872
:10036000704730BF704702480249014A024B70474C
:100370007800002078040020780000207047704743
:100380007047754600F02CF8AE46050069465346A6
:1003900020F00700854618B020B5FFF7E4FFBDE860
:1003A00020404FF000064FF000074FF000084FF0DC
:1003B000000BAC46ACE8C009ACE8C009ACE8C00929
:1003C000ACE8C00921F007018D46704710B504461E
:1003D000AFF300802046BDE81040FFF7B0BF00003B
:1003E000004870471800002001491820ABBEFEE706
:1003F0002600020070470000FFE74EF22061C4F2C1
:100400000F01086840F002000860FFE7FFE74EF2C6
:100410000861C4F20F01086840F001000860FFE7BE
:10042000FFE74EF62020C4F20F0000688007002886
:1004300001D4FFE7F5E7FFE74EF60820C4F20F000E
:100440000068C00708B9FFE7F6E744F21C51C4F2A0
:100450000001086840F0C000086044F21051C4F286
:100460000001086840F0C000086044F22041C4F276
:100470000001086840F0C000086044F22C51C4F24A
:1004800000010868332262F31F60086044F20C51D7
:10049000C4F20001086840F08000086044F228516E
:1004A000C4F20001086820F0C000086044F2004176
:1004B000C4F20001086840F040000860086820F0BD
:1004C00080000860FFE741F22001C4F20201102021
:1004D0000860FFE741F20C01C4F202010720086046
:1004E0007047000081B08DF802008DF80110FFE721
:1004F00041F20400C4F202000068C00708B1FFE73F
:10050000F6E79DF80200400041F20001C4F202014A
:1005100008609DF8010041F20801C4F20201086080
:1005200041F20401C4F2020103200860FFE741F236
:100530000400C4F202000068C00708B1FFE7F6E754
:1005400041F20400C4F20200006800F09E008DF841
:1005500000009DF80000A0B1FFE741F20401C4F2E1
:10056000020104200860FFE741F20400C4F2020027
:100570000068C00708B1FFE7F6E700208DF8030028
:1005800057E09DF802004000013041F20001C4F242
:100590000201086041F20401C4F202010720086070
:1005A000FFE741F20400C4F202000068C00708B18E
:1005B000FFE7F6E741F20400C4F20200006800F031
:1005C0009E008DF800009DF80000F8B1FFE741F2B1
:1005D0000401C4F2020104200860FFE741F20400B4
:1005E000C4F202000068C00708B1FFE7F6E7FFE7C2
:1005F00041F20400C4F2020000684006002801D560
:10060000FFE7F5E700208DF8030012E0FFE741F275
:100610000400C4F2020000684006002801D5FFE78C
:10062000F5E741F20800C4F2020000688DF803000B
:10063000FFE79DF8030001B07047000082B08DF81D
:1006400006008DF805108DF80420FFE741F2040044
:10065000C4F202000068C00708B1FFE7F6E79DF8A2
:100660000600400041F20001C4F2020108609DF85A
:10067000050041F20801C4F20201086041F20401E0
:10068000C4F2020103200860FFE741F20400C4F253
:1006900002000068C00708B1FFE7F6E741F2040076
:1006A000C4F20200006800F09E008DF803009DF87F
:1006B0000300A8B1FFE741F20401C4F202010420E3
:1006C0000860FFE741F20400C4F202000068C007BE
:1006D00008B1FFE7F6E79DF803008DF807002BE06F
:1006E0009DF8040041F20801C4F20201086041F2E1
:1006F0000401C4F2020105200860FFE741F2040092
:10070000C4F202000068C00708B1FFE7F6E7FFE7A0
:1007100041F20400C4F2020000684006002801D53E
:10072000FFE7F5E741F20400C4F20200006800F0C0
:100730009E008DF80700FFE79DF8070002B07047A4
:1007400080B582B08DF807009DF8070000F01CF816
:100750009DF807000121042200F048FA9DF80700E7
:100760000021212200F042FA40F20000C2F2000013
:10077000006800F031FA9DF807000021C4F248211A
:1007800000F06AF802B080BD80B582B08DF8070035
:100790009DF807000021802200F028FA4AF220107C
:1007A000C0F2070000F09AFA02B080BD80B582B0B6
:1007B0008DF807008DF80610ADF804209DF80700AD
:1007C0009DF80610BDF8042000F022FA02B080BDAA
:1007D00010B586B08DF817008DF81610ADF81420FE
:1007E000ADF81230BDF814006FF31F30ADF81400EF
:1007F000BDF812006FF31F30ADF81200BDF8140001
:100800008DF80E009DF8150000F00F008DF80F0018
:10081000BDF812008DF810009DF8130000F00F00D5
:100820008DF811009DF817009DF81620062101EBA8
:1008300082019DF80E209DF80F309DF810C09DF8A4
:100840001140EE46CEF80440CEF800C0C9B200F028
:1008500019FE002006B010BD80B586B08DF81700D7
:10086000049104984FF07E5100F0BDFE20B9FFE7DF
:100870004FF07E500490FFE704984CF20001C4F260
:100880005A5100F0B7FE30B9FFE74CF20000C4F255
:100890005A500490FFE740F20000C2F200000068E6
:1008A00000F0ECFF019004984FF08B4101F062F8EA
:1008B0000146019800F0B8FE4FF07C5100F01CFE9C
:1008C0000021CBF6807100F017FE03900398002101
:1008D000C4F2400100F087FE28B9FFE70020C4F20F
:1008E00040000390FFE703980021C4F27F3100F03D
:1008F00081FE28B9FFE70020C4F27F300390FFE7B4
:10090000039800F087FF8DF80B009DF81700002179
:10091000009100F047F900998DF80A009DF80A004F
:1009200000F06F0010308DF809009DF817009DF859
:10093000092000F05BF99DF817009DF80B20FE21BF
:1009400000F054F900999DF817009DF80A2000F076
:100950004DF94DF29000C0F2030000F0BFF900998C
:100960009DF817009DF80A2042F0A00200F03EF921
:10097000049800F04FFF40F20401C2F20001088029
:1009800006B080BD80B582B08DF807008DF80610E6
:10099000ADF804208DF80330BDF80400B0F5805F99
:1009A00005DBFFE740F6FF70ADF80400FFE79DF8B8
:1009B000030078B3FFE7BDF8040050B9FFE79DF8E6
:1009C00007009DF806104FF480520023FFF700FF48
:1009D0001FE0BDF8040040F6FF7188420AD1FFE72E
:1009E0009DF807009DF8061000224FF48053FFF792
:1009F000EFFE0DE09DF807009DF80610BDF80430ED
:100A000040F6FF72D21A93B20022FFF7E1FEFFE731
:100A1000FFE72AE0BDF8040040F6FF7188420AD1E2
:100A2000FFE79DF807009DF806104FF48052002361
:100A3000FFF7CEFE18E0BDF8040050B9FFE79DF8BF
:100A400007009DF8061000224FF48053FFF7C0FE08
:100A500009E09DF807009DF80610BDF8043000225B
:100A6000FFF7B6FEFFE7FFE7FFE702B080BD00003B
:100A700080B584B0844606988DF80FC08DF80E10AE
:100A8000ADF80C20ADF80A30ADF80800BDF90C0047
:100A9000B0F1FF3F04DCFFE70020ADF80C00FFE7FA
:100AA000BDF90C00B52804DBFFE7B420ADF80C005D
:100AB000FFE7BDF80A00B0F5C87F05DAFFE74FF49D
:100AC000C870ADF80A00FFE7BDF8080040F6B9317C
:100AD000884205DBFFE740F6B830ADF80800FFE7D5
:100AE000BDF80800BDF80A10884206DCFFE7BDF833
:100AF0000A000130ADF80800FFE7BDF80800BDF8B6
:100B00000A10401A0190BDF80A00BDF90C10019AB4
:100B10005143890846F61742C1F2C162A1FB022186
:100B200000EB910000909DF80F009DF80E10BDF8AD
:100B30000020FFF73BFE04B080BD000080B582B00E
:100B40008DF807008DF806108DF805209DF8061029
:100B5000062000EB81008DF804009DF8050030B1FF
:100B6000FFE79DF8040002308DF80400FFE79DF8D0
:100B700007009DF804100131C9B200F013F88DF898
:100B800003009DF807009DF8041000F00BF88DF8A5
:100B900002009DF802009DF8031040EA012002B017
:100BA00080BD000080B582B08DF807008DF806107A
:100BB0009DF807009DF80610FFF794FC02B080BD79
:100BC00080B582B08DF807009DF80700FE21FFF781
:100BD000E9FF02B080BD000081B00090009840F2B3
:100BE0000001C2F20001086001B0704780B582B018
:100BF0008DF807008DF806108DF805209DF8070088
:100C00009DF806109DF80520FFF718FD02B080BD85
:100C100080B586B08DF817008DF81610ADF8142049
:100C20009DF81700FFF7CCFF8DF8130042F200404B
:100C3000C4F6741003909DF81300013000F006FE16
:100C40000146039800F096FE039040F20000C2F2C5
:100C50000000006800F012FE0146039800F0E4FC7A
:100C60000390BDF8140000F009FE039900F0DCFCCD
:100C700002900298002100F0B6FC18B9FFE70020AE
:100C80000290FFE702984FF20001C4F27F5100F09A
:100C9000B1FC30B9FFE74FF20000C4F27F50029080
:100CA000FFE79DF8170001909DF81600009002984C
:100CB0004FF07C5100F020FC00F0ACFD00990346A1
:100CC00001980022FFF784FD06B080BD4EF21001AE
:100CD000CEF20001042008607047000081B000904F
:100CE000009801384EF21401CEF2000108604EF275
:100CF0001801CEF20001002008604EF21001CEF281
:100D00000001086840F001000860FFE74EF21000A3
:100D1000CEF200000068C003002801D4FFE7F5E729
:100D20004EF21001CEF20001086820F001000860C8
:100D300001B07047FFE74CF21800C4F200000068F1
:100D4000C006002801D5FFE7F5E74CF20000C4F229
:100D500000000068C0B270474EF20411C4F20F01E7
:100D6000086840F0010008604EF20811C4F20F015B
:100D7000086840F0010008604CF23001C4F2000144
:100D8000086820F0010008604CF22400C4F2000062
:100D9000112202604CF22803C4F2000317201860ED
:100DA0004CF22C03C4F2000370201860086840F273
:100DB00001331843086044F22041C4F2000108687E
:100DC00040F00300086044F21C51C4F200010868BE
:100DD00040F00300086044F22C51C4F2000108689E
:100DE00062F30700086044F22851C4F20001086869
:100DF00020F003000860704780B50D2000F004F873
:100E00000A2000F001F880BD81B08DF80300FFE7F3
:100E10004CF21800C4F2000000688006002801D5DA
:100E2000FFE7F5E79DF803004CF20001C4F2000172
:100E3000086001B07047000080B582B00190FFE704
:100E40000198007840B1FFE701980078FFF7DCFFD8
:100E5000019801300190F3E702B080BD80B5032016
:100E6000002100F043F84FF4967000F08DF880BD3B
:100E700080B582B000F030F8FFF7F0FF00205A2173
:100E8000019100F033F80199012000F02FF84FF4A0
:100E9000FA7000F079F802B080BD000080B582B031
:100EA0008DF807009DF8070040F20601C2F200012C
:100EB00000910870FFF70AFFFFF79EFA009800788C
:100EC000FFF73EFC009800780021C4F24821FFF7AC
:100ED000C3FC02B080BD000080B50220002100F0FC
:100EE00005F84FF4967000F04FF880BD80B586B0DD
:100EF0008DF81700ADF814109DF81700032804DCD6
:100F0000FFE79DF81700029002E000200290FFE743
:100F100002988DF813009DF8131040F21000C2F2F1
:100F2000000030F81100ADF810009DF8131040F2E9
:100F30000800C2F2000030F81100ADF80E0040F2D7
:100F40000600C2F2000000789DF81710BDF91420C9
:100F5000BDF81030BDF80EC0EE46CEF800C0FFF769
:100F600087FD06B080BD000080B582B00190FFE72C
:100F70000198411E019128B1FFE74CF25030FFF774
:100F8000ADFEF5E702B080BD80B582B00190FFE70D
:100F90000198411E019128B1FFE74CF25030FFF754
:100FA0009DFEF5E702B080BD80B594B0002013909F
:100FB000FFF7D2FE4020FFF771FF4EF62020C4F26B
:100FC0000F0000688007002807D4FFE741F6935020
:100FD000C0F20000FFF730FFFFE740200021FFF7DD
:100FE00081FA8DF84A009DF84A0038B9FFE741F6CA
:100FF000CB40C0F20000FFF71FFF2FE09DF84A0032
:1010000000F02100212828D0FFE741F6D050C0F29F
:101010000000FFF711FF41F6BF50C0F20000109032
:1010200010989DF84A100909405C8DF84700109807
:101030009DF84A1001F00F01405C8DF84800002037
:101040008DF849000DF14700FFF7F6FE41F6A75075
:10105000C0F20000FFF7F0FEFFE7FFE7FFF708FF31
:1010600000F0D8F9FFE7FFF765FE8DF84B009DF81B
:101070004B00FFF7C9FEFFF7BFFE9DF84B0041385C
:1010800001460591362800F265810599DFE811F0E7
:101090003700620162016000620162016201DB00EF
:1010A00062016201620162015F016201620162012B
:1010B00062016201B200DE00620162018900620128
:1010C0006201620162016201620162016201620108
:1010D0003700620162016000620162016201DB00AF
:1010E00062016201620162015F01620162016201EB
:1010F00062016201B200DE0062016201890000202B
:101100000F90FFE70F98B4280DDCFFE7BDF93C1006
:101110000120FFF7EBFE1920FFF726FFFFE70F98EE
:1011200005300F90EEE7B4200E90FFE70E980028F0
:101130000DD4FFE7BDF938100120FFF7D7FE0F20CF
:10114000FFF712FFFFE70E9805380E90EEE708E173
:10115000B4200D90FFE70D9800280DD4FFE7BDF9EE
:1011600034100120FFF7C2FE1920FFF7FDFEFFE754
:101170000D9805380D90EEE700200C90FFE70C98D5
:10118000B4280DDCFFE7BDF930100120FFF7AEFEFB
:101190000F20FFF7E9FEFFE70C9805300C90EEE713
:1011A000DFE000200B90FFE70B98B4280DDCFFE791
:1011B000BDF92C100020FFF799FE1920FFF7D4FE8F
:1011C000FFE70B9805300B90EEE7B4200A90FFE79D
:1011D0000A9800280DD4FFE7BDF928100020FFF77A
:1011E00085FE0F20FFF7C0FEFFE70A9805380A903A
:1011F000EEE7B6E0B4200990FFE7099800280DD487
:10120000FFE7BDF924100020FFF770FE1920FFF75B
:10121000ABFEFFE7099805380990EEE7002008903B
:10122000FFE70898B4280DDCFFE7BDF92010002087
:10123000FFF75CFE0F20FFF797FEFFE708980530E9
:101240000890EEE78DE0FFF713FE8AE041F6A74035
:10125000C0F20000FFF7F0FD402001900021029154
:10126000FFF7A0FC8DF81F0041F6E150C0F200002E
:10127000FFF7E2FD9DF81F0000F0ACF841F6A75023
:10128000C0F200000490FFF7D7FD019801210391FF
:10129000FFF788FC8DF81E0041F6EA50C0F200000E
:1012A000FFF7CAFD9DF81E0000F094F80498FFF7C0
:1012B000C3FD0198FFF784FC8DF81D0041F6F35043
:1012C000C0F20000FFF7B8FD9DF81D0000F082F8A5
:1012D0000498FFF7B1FD41F66640C0F20000FFF749
:1012E000ABFD0198029B4FF400621946FFF74AFBE1
:1012F00044F64030C0F24C00FFF7F0FC0198029A2F
:101300001146FFF71BFCADF81A0041F60F60C0F262
:101310000000FFF791FDBDF81A0000F029F80498CD
:10132000FFF78AFD01980299039AFFF707FCADF8D1
:10133000180041F6FF50C0F20000FFF77DFDBDF838
:10134000180000F015F80498FFF776FD09E000F0AA
:1013500061F806E041F68240C0F20000FFF76CFD44
:10136000FFE741F6AA50C0F20000FFF765FD7AE6FC
:1013700080B584B0ADF80E0041F6BF50C0F2000059
:1013800001900198BDF80E10090B405C8DF8090022
:1013900001989DF80F1001F00F01405C8DF80A00D4
:1013A0000198BDF80E10C1F30311405C8DF80B00DD
:1013B0000198BDF80E1001F00F01405C8DF80C0093
:1013C00000208DF80D000DF10900FFF735FD04B088
:1013D00080BD000080B582B08DF8070041F6BF5097
:1013E000C0F20000009000989DF807100909405CC9
:1013F0008DF8040000989DF8071001F00F01405C83
:101400008DF8050000208DF8060001A8FFF714FDF7
:1014100002B080BD80B541F6B740C0F20000FFF7D2
:101420000BFD41F6F240C0F20000FFF705FD41F66A
:101430003750C0F20000FFF7FFFC41F61550C0F234
:101440000000FFF7F9FC41F65A50C0F20000FFF728
:10145000F3FC41F63940C0F20000FFF7EDFC41F625
:101460007C50C0F20000FFF7E7FC41F6F630C0F216
:101470000000FFF7E1FC41F6AA50C0F20000FFF7C0
:10148000DBFC80BD10B582B08C4686460598049979
:101490008DF807E08DF806C08DF805208DF8043032
:1014A0008DF803108DF802009DF807009DF80610D6
:1014B0009DF80520FFF7C2F89DF807009DF806107B
:1014C00001319DF80420C9B2FFF7B8F89DF8070074
:1014D0009DF8061002319DF80320C9B2FFF7AEF85F
:1014E0009DF807009DF8061003319DF80220C9B24F
:1014F000FFF7A4F802B010BD90EA010F48BF81F0D9
:10150000004100F10A83421A3CBF801A89184FEA51
:10151000D052A2EBD1534FF07F4C1CEA410F18BFC1
:101520009CEA026F00F03B804FF0004C4CEA002038
:101530004CEA012121FA03FC10EB0C0C1ED202F143
:10154000FF325FEA1C2040EBC25038BF70471CF0EE
:101550007F0F4FEA400C18BFBCF17F4F38BF704778
:10156000C3F12003994008BF20F00100BCF17F4F78
:1015700038BF7047A0F1C04000F0C3BA4FEA3C004A
:10158000000A40EBC25028BF1CF0FF0F4FEA400C8E
:10159000E6D018BFBCF17F4F38BF7047EAE79CEA3E
:1015A000026F05D010EA5C0F08BF00F000407047E2
:1015B00010B500F060FA00BF64FBBE3E10B500F04D
:1015C000F5F80CBF0120002010BD10B500F0EEF8BA
:1015D00014BF0120002010BD10B500F063F98CBFCE
:1015E0000120002010BD10B500F05CF92CBF0120D7
:1015F000002010BD10B500F089F994BF0120002033
:1016000010BD10B500F082F934BF0120002010BDDC
:10161000401058BFC0F14040491058BFC1F140418F
:101620008142EFF3008070474FF47F0C1CEAD01228
:101630001EBF1CEAD11392EA0C0F93EA0C0F00F0C4
:10164000858090EA010F48BF42F4807240F4000C9C
:1016500041F400002CF07F4120F07F4000B5A2EB68
:10166000030281420FF2081CACEB504E9EF800E0E2
:10167000C0F100004FEA4E0E00FB0EFC38BF4900DF
:101680004FEA2C1C0CFB0EF34FEACE1E0EEB635EF2
:101690004FEA112C0EFB0CFC4FEAC1214FEA1C5300
:1016A00000FB031102F5FA024FEA112C0EFB0CFCB1
:1016B0004FEA01314FEADC4C00FB0C1142EB2242B5
:1016C000C14228BF09184CEB03335DF804EB10EB63
:1016D000410143EBC250B2F57C0F38BF704729D5AA
:1016E00012F0F00F1CBF00F1C04000F00040704746
:1016F000008182838485868788898B8C8D8E8F91EB
:101700009293959697999A9C9D9FA0A2A3A5A7A80E
:10171000AAACAEB0B2B3B5B7B9BCBEC0C2C5C7C93A
:10172000CCCED1D4D7D9DCDFE2E6E9ECF0F3F7FA9E
:10173000FE0000004FEA400C0CF1807CBCF17E4FB3
:1017400028BF7047B0F1C04000F0DBB90CEAD113FC
:1017500090EA010F48BF42F48072624538BF63458A
:1017600007D213F47F0F16D080EA010000F000408A
:10177000704710B500F07FF9097EFC3E00F005B817
:1017800080EA010000F00040704780EA010000F0AC
:10179000004000F0B6B912F47F0F04BF0248704752
:1017A00080EA010000F0ADB90000C07F50EA010CF2
:1017B00000F113801CF5000F58BFBCF5000F01D4D9
:1017C0008842704707D710F5000F58BF11F5000F7A
:1017D00015D488427047894270471CF5000F04D524
:1017E000BCF5000FF7D5814270474FF0807C1CEBB1
:1017F000400F38BF1CEB410F01D28142704710B53A
:1018000000F039F9922449004FF000504FF0805118
:10181000FFF7FEBE41000B0ED3F19E0208D950F433
:1018200000034FEA032323FA02F048BF4042704707
:1018300010B500F020F900BF4992248000207047C5
:101840006FF0004282EA20007047000010F0004173
:1018500048BF4042B0FA80F310FA03F2C3F19D038F
:101860000BD051EAC35101EB1220530638BF704729
:1018700000F1010008BF20F001007047B0FA80F3CA
:1018800010FA03F2C3F19D030AD0D90501EB12202F
:10189000530638BF704700F1010008BF20F0010077
:1018A0007047000050EA010C00F113801CF5000F96
:1018B00058BFBCF5000F01D48842704707D710F518
:1018C000000F58BF11F5000F15D4884270478942A8
:1018D00070471CF5000F04D5BCF5000FF7D5814209
:1018E00070474FF0807C1CEB400F38BF1CEB410F62
:1018F00001D28142704710B500F0BDF89224490032
:101900004FF080504FF00051FFF782BE50EA010CBB
:1019100000F113801CF5000F58BFBCF5000F01D477
:101920008842704707D710F5000F58BF11F5000F18
:1019300015D488427047894270471CF5000F04D5C2
:10194000BCF5000FF7D5814270474FF0807C1CEB4F
:10195000400F38BF1CEB410F01D28142704710B5D8
:1019600000F089F8922449004FF000504FF0805168
:10197000FFF74EBE4FF47F0C1CEAD0121EBF1CEACC
:10198000D11392EA0C0F93EA0C0F00F0478090EA13
:10199000010F48BF42F480724FF0004C4CEA002027
:1019A0004CEA012102EB0302A0FB0113A2F50002A5
:1019B000002918BF43F001035B0028BF4FEA33033F
:1019C00042EB22425FEA132C4CEBC2502EBFBCEB21
:1019D000436FB2F57C0F70474FEA036CBCF1004FC8
:1019E00008BF20F00100B2F57C0F38BF70470BD55F
:1019F00082F0FF0212F5803FC8BF704700F1C0407F
:101A0000D8BF00F00040704700F5000C5FEA4C0CB6
:101A100048BF7047B0F1C04000F073B80CEAD11372
:101A200090EA010F48BF42F48072624538BF6345B7
:101A300004D280EA010000F00040704710B500F0C9
:101A40001AF800BF8900013E00F007B800F009B89D
:101A50005FEA410C5FEA1C6C08D080EA010000F0EC
:101A600050B85FEA400C5FEA1C6CF6D14FF00040C2
:101A7000A0F5800070470EF1020E2EF0030E5EF806
:101A8000044B244204D44FEA4102B2F17F4F11D8F3
:101A90004FEA4003B3F17F4F0CD80ED14FEAD07C10
:101AA0000CEB4C0C0CF1020CB2F17F4F08BF4CEB6D
:101AB000D17C04E04FF0080C01E04FEAD17C0CEB44
:101AC0004C0324FA03F404F00704B4F1040C06D226
:101AD0000EEB840CBDE810404CF0010C6047DFE8D1
:101AE0000CF0070802024FF00040A0F5800010BD86
:101AF0000846420018BFD2F1807288BF00F0004053
:101B000010BDFF2141EAD050C005704790EA010F97
:101B100048BF81F000413FF5F6AC421A04D882F08C
:101B20000042A0EB020011444FEAD052A2EBD15385
:101B30004FF07F4C1CEA410F18BF9CEA026F4AD05D
:101B40004FF0004C4CEA00204CEA012121FA03FC42
:101B5000B0EB0C0C0FD412F0FE0F36D05FEA4C0045
:101B60001DD5001240EBC25038BF70471CF03F0F2C
:101B700018BF70470BE05FEA1C20A2F1010240EBA6
:101B8000C25038BF70471CF07F0F18BF7047C3F1B9
:101B90002003994014BF401E20F0010070474FEA17
:101BA0001223800808BF7047B0FA80FCA2EB0C0239
:101BB000CCF1280C60FA0CF093EA122F04BF00EB72
:101BC000C25070474FEAC3707047130A5FEADC10D7
:101BD00008BF7047F6E79CEA026F04D010EA5C0F7A
:101BE00008BF0020704710B5FFF745FF40DFF63E05
:101BF00081F000407047542F74203A2050434139FF
:101C00003638352072656769737465722074657340
:101C10007420287072696E7473204D4F4445312FC3
:101C20005052455343414C452C20746F67676C6597
:101C30007320434830290D0A00482F68203A204875
:101C40006F6D652061726D202870656E2F65726101
:101C50007365722075702C206D696420616E676CED
:101C60006573290D0A0053657474696E67204348D3
:101C70003020746F20353025202874657374290D49
:101C80000A00556E6B6E6F776E20636F6D6D616EBF
:101C9000642E205072657373204D20666F72206D24
:101CA000656E752E0D0A0050434139363835205483
:101CB0006573743A0D0A0057726974696E67204142
:101CC000726D204D656E753A0D0A004572726F7225
:101CD0003A2050434139363835206E6F7420726592
:101CE00073706F6E64696E67206F6E204932430DAA
:101CF0000A00412F61203A205377656570206261A8
:101D00007365206368616E6E656C20666F727761C3
:101D100072640D0A00572F77203A2053776565705B
:101D20002070656E206368616E6E656C20666F72F0
:101D3000776172640D0A00442F64203A205377655E
:101D400065702062617365206368616E6E656C20EA
:101D5000726576657273650D0A00532F73203A2001
:101D600053776565702070656E206368616E6E657F
:101D70006C20726576657273650D0A004D2F6D20BB
:101D80003A2053686F772074686973206D656E75AB
:101D90000D0A004572726F723A20493243206E6F0D
:101DA000742072656164790D0A000D0A41776169DA
:101DB00074696E6720636F6D6D616E643E200030E4
:101DC00031323334353637383941424344454600A1
:101DD0005761726E696E673A205043413936383523
:101DE000204D4F4445313D3078004D4F4445323D04
:101DF0003078005052455343414C453D30780043C4
:101E00004830204F464620726561643D307800437B
:101E10004830204F4E20726561643D3078000000EC
:101E2000401E00000000002018000000E802000032
:101E3000581E000018000020600400000803000085
:101E400040787D0132004000C409C409600960097E
:081E5000F401F40158025802EC
:040000050000026D88
:00000001FF
