:020000040000FA
:10000000B80400206D0200007102000073020000BD
:100010007502000077020000790200000000000075
:100020000000000000000000000000007B02000053
:100030007D020000000000007F020000810200003D
:10004000830200008302000083020000830200009C
:10005000830200008302000083020000830200008C
:10006000830200008302000083020000830200007C
:10007000830200008302000083020000830200006C
:10008000830200008302000083020000830200005C
:10009000830200008302000083020000830200004C
:1000A000830200008302000083020000830200003C
:1000B0008302000083020000150600008302000096
:1000C000830200008302000083020000830200001C
:1000D000830200008302000083020000830200000C
:1000E00083020000830200008302000083020000FC
:1000F00083020000830200008302000083020000EC
:1001000083020000830200008302000083020000DB
:1001100083020000830200008302000083020000CB
:1001200083020000830200008302000083020000BB
:1001300083020000830200008302000083020000AB
:1001400000000000000000000000000000000000AF
:10015000830200008302000083020000830200008B
:10016000000000000000000000000000000000008F
:10017000000000000000000000000000000000007F
:10018000000000000000000000000000000000006F
:10019000000000000000000000000000000000005F
:1001A000000000000000000000000000000000004F
:1001B000830200008302000083020000830200002B
:1001C000830200008302000083020000830200001B
:1001D000830200008302000083020000830200000B
:1001E00083020000830200008302000083020000FB
:1001F00083020000830200008302000083020000EB
:10020000830200008302000083020000000000005F
:1002100083020000830200008302000083020000CA
:1002200083020000830200008302000083020000BA
:1002300083020000830200008302000083020000AA
:10024000830200008302000083020000830200009A
:10025000830200008302000083020000830200008A
:1002600083020000830200008302000000F00AB84D
:10027000FEE7FEE7FEE7FEE7FEE7FEE7FEE7FEE756
:10028000FEE7FEE700F002F800F050F814A696E84A
:10029000000CB244B344DA4501D100F047F8BAE8A3
:1002A0000F000FA696E83000A5EB040504EB060747
:1002B000AAEB0704A7F101074FEA15154FEA34141A
:1002C000A4F10104AC4201D300F030F813F0010FA7
:1002D00018BFFB1A43F0010300F001F8DBE71847F1
:1002E0002C4000004C400000103A24BF78C878C170
:1002F000FAD8520724BF30C830C144BF04680C602C
:1003000070470000704700000023002400250026ED
:10031000103A28BF78C1FBD8520728BF30C148BF68
:100320000B6070471FB51FBD10B510BD00F064F81D
:100330001146FFF7F7FF01F0D9FD00F082F803B492
:10034000FFF7F2FF03BC00F085F8000072B67047BB
:1003500062B67047EFF3108072B6704780F3108872
:10036000704730BF704702480249014A024B70474C
:10037000B8000020B8040020B80000204FF00002B0
:1003800000B5134694469646203922BFA0E80C508B
:10039000A0E80C50B1F12001BFF4F7AF090728BF66
:1003A000A0E80C5048BF0CC05DF804EB890028BFE2
:1003B00040F8042B08BF704748BF20F8022B11F00B
:1003C000804F18BF00F8012B704770477047704787
:1003D00010B500F009F8006810BD10B5044600F033
:1003E00003F8046010BD0000004870473000002092
:1003F00000487047300000207546FFF7F9FFAE4611
:1004000005006946534620F00700854618B020B520
:10041000FFF7A9FFBDE820404FF000064FF00007AE
:100420004FF000084FF0000BAC46ACE8C009ACE858
:10043000C009ACE8C009ACE8C00921F007018D464D
:10044000704710B50446AFF300802046BDE8104069
:10045000FFF775BF01491820ABBEFEE7260002007A
:100460007047000081B040F29800C2F200000078AE
:1004700020B9FFE700208DF803001FE040F2900054
:10048000C2F20000006840F29C01C2F2000109685B
:10049000401A32280ED3FFE745F2FC30C4F20200C6
:1004A0000068C006002804D4FFE701208DF803008F
:1004B00004E0FFE700208DF80300FFE79DF803004C
:1004C00001B0704740F29801C2F2000100200870AC
:1004D0007047000081B04EF20861C4F20F01086855
:1004E00040F02000086000200090FFE7009863289B
:1004F00005DCFFE7FFE7009801300090F6E745F2E2
:100500000041C4F20201086840F00E00086008686B
:1005100020F01000086045F21C51C4F20201086886
:1005200040F01E00086045F2FC31C4F20201086888
:1005300020F00E00086045F21051C4F20201086874
:1005400040F01000086045F20441C4F2020108685E
:1005500020F01000086045F20841C4F2020108686A
:1005600020F01000086045F20C41C4F20201086856
:1005700020F01000086045F21C41C4F20201102076
:10058000086045F21041C4F20201086840F0100012
:1005900008604EF20011CEF200014FF0804008607A
:1005A00001B0704781B08DF803008DF802108DF80E
:1005B000012000208DF800009DF8030038B1FFE70E
:1005C0009DF8000040F002008DF80000FFE79DF864
:1005D000010038B1FFE79DF8000040F004008DF8FD
:1005E0000000FFE79DF8020038B1FFE79DF800002A
:1005F00040F008008DF80000FFE745F2FC31C4F23E
:10060000020108689DF80020520862F34300086068
:1006100001B0704745F21C41C4F20201102008608D
:1006200040F29000C2F20000006840F29C01C2F269
:100630000001086040F29801C2F200010120087038
:1006400070470000FFE74EF22061C4F20F01086816
:1006500040F002000860FFE7FFE74EF20861C4F2D5
:100660000F01086840F001000860FFE7FFE74EF661
:100670002020C4F20F0000688007002801D4FFE7A3
:10068000F5E7FFE74EF60820C4F20F000068C00748
:1006900008B9FFE7F6E744F21C51C4F2000108680C
:1006A00040F0C000086044F21051C4F20001086834
:1006B00040F0C000086044F22041C4F20001086824
:1006C00040F0C000086044F22C51C4F200010868F8
:1006D000332262F31F60086044F20C51C4F200013F
:1006E000086840F08000086044F22851C4F200011C
:1006F000086820F0C000086044F20041C4F2000124
:10070000086840F040000860086820F08000086039
:10071000FFE741F22001C4F2020110200860FFE768
:1007200041F20C01C4F2020107200860704700008A
:1007300081B08DF802008DF80110FFE741F204004E
:10074000C4F202000068C00708B1FFE7F6E79DF8B1
:100750000200400041F20001C4F2020108609DF86D
:10076000010041F20801C4F20201086041F20401F3
:10077000C4F2020103200860FFE741F20400C4F262
:1007800002000068C00708B1FFE7F6E741F2040085
:10079000C4F20200006800F09E008DF800009DF891
:1007A0000000A0B1FFE741F20401C4F202010420FD
:1007B0000860FFE741F20400C4F202000068C007CD
:1007C00008B1FFE7F6E700208DF8030057E09DF839
:1007D00002004000013041F20001C4F20201086051
:1007E00041F20401C4F2020107200860FFE741F270
:1007F0000400C4F202000068C00708B1FFE7F6E792
:1008000041F20400C4F20200006800F09E008DF87E
:1008100000009DF80000F8B1FFE741F20401C4F2C6
:10082000020104200860FFE741F20400C4F2020064
:100830000068C00708B1FFE7F6E7FFE741F20400F0
:10084000C4F2020000684006002801D5FFE7F5E782
:1008500000208DF8030012E0FFE741F20400C4F22B
:10086000020000684006002801D5FFE7F5E741F2E5
:100870000800C4F2020000688DF80300FFE79DF84D
:10088000030001B07047000082B08DF806008DF8BB
:1008900005108DF80420FFE741F20400C4F20200C5
:1008A0000068C00708B1FFE7F6E79DF806004000C2
:1008B00041F20001C4F2020108609DF8050041F216
:1008C0000801C4F20201086041F20401C4F202010D
:1008D00003200860FFE741F20400C4F20200006850
:1008E000C00708B1FFE7F6E741F20400C4F20200D6
:1008F000006800F09E008DF803009DF80300A8B189
:10090000FFE741F20401C4F2020104200860FFE79E
:1009100041F20400C4F202000068C00708B1FFE71A
:10092000F6E79DF803008DF807002BE09DF8040022
:1009300041F20801C4F20201086041F20401C4F26C
:10094000020105200860FFE741F20400C4F2020042
:100950000068C00708B1FFE7F6E7FFE741F20400CF
:10096000C4F2020000684006002801D5FFE7F5E761
:1009700041F20400C4F20200006800F09E008DF80D
:100980000700FFE79DF8070002B0704780B582B00E
:100990008DF807009DF8070000F01CF89DF807008F
:1009A0000121042200F0E2F99DF807000021212234
:1009B00000F0DCF940F20000C2F20000006800F034
:1009C000CBF99DF807000021C4F2482100F06AF835
:1009D00002B080BD80B582B08DF807009DF8070099
:1009E0000021802200F0C2F94AF22010C0F2070074
:1009F00000F034FA02B080BD80B582B08DF80700F7
:100A00008DF80610ADF804209DF807009DF806103B
:100A1000BDF8042000F0BCF902B080BD10B586B06E
:100A20008DF817008DF81610ADF81420ADF81230BF
:100A3000BDF814006FF31F30ADF81400BDF81200BC
:100A40006FF31F30ADF81200BDF814008DF80E00E2
:100A50009DF8150000F00F008DF80F00BDF8120092
:100A60008DF810009DF8130000F00F008DF81100B4
:100A70009DF817009DF81620062101EB82019DF8D4
:100A80000E209DF80F309DF810C09DF81140EE46E5
:100A9000CEF80440CEF800C0C9B201F0FDFF00203E
:100AA00006B010BD80B586B08DF81700049104988B
:100AB0004FF07E5102F0A1FC20B9FFE74FF07E50CD
:100AC0000490FFE704984CF20001C4F25A5102F07E
:100AD0009BFC30B9FFE74CF20000C4F25A5004907E
:100AE000FFE740F20000C2F20000006802F0D0FD13
:100AF000019004984FF08B4102F046FE01460198A8
:100B000002F09CFC4FF07C5102F0FAFB0021CBF686
:100B1000807102F0F5FB039003980021C4F24001BC
:100B200002F06BFC28B9FFE70020C4F240000390FC
:100B3000FFE703980021C4F27F3102F065FC28B979
:100B4000FFE70020C4F27F300390FFE7039802F034
:100B50006BFD8DF80B009DF817000021009100F04F
:100B6000E1F800998DF80A009DF80A0000F06F0086
:100B700010308DF809009DF817009DF8092000F04D
:100B8000F5F89DF817009DF80B20FE2100F0EEF817
:100B900000999DF817009DF80A2000F0E7F84DF243
:100BA0009000C0F2030000F059F900999DF8170079
:100BB0009DF80A2042F0A00200F0D8F8049802F054
:100BC00033FD40F20C01C2F20001088006B080BD86
:100BD00080B582B08DF807008DF80610ADF80420BE
:100BE0008DF80330BDF80400B0F5805F05DBFFE74A
:100BF00040F6FF70ADF80400FFE79DF8030078B3FE
:100C0000FFE7BDF8040050B9FFE79DF807009DF825
:100C100006104FF480520023FFF700FF1FE0BDF8DD
:100C2000040040F6FF7188420AD1FFE79DF80700F3
:100C30009DF8061000224FF48053FFF7EFFE0DE001
:100C40009DF807009DF80610BDF8043040F6FF72CD
:100C5000D21A93B20022FFF7E1FEFFE7FFE72AE096
:100C6000BDF8040040F6FF7188420AD1FFE79DF805
:100C700007009DF806104FF480520023FFF7CEFEC8
:100C800018E0BDF8040050B9FFE79DF807009DF893
:100C9000061000224FF48053FFF7C0FE09E09DF8D4
:100CA00007009DF80610BDF804300022FFF7B6FEDD
:100CB000FFE7FFE7FFE702B080BD000080B582B02C
:100CC0008DF807008DF806108DF805209DF80610A8
:100CD000062000EB81008DF804009DF8050030B17E
:100CE000FFE79DF8040002308DF80400FFE79DF84F
:100CF00007009DF804100131C9B200F013F88DF817
:100D000003009DF807009DF8041000F00BF88DF823
:100D100002009DF802009DF8031040EA012002B095
:100D200080BD000080B582B08DF807008DF80610F8
:100D30009DF807009DF80610FFF7FAFC02B080BD91
:100D400080B582B08DF807009DF80700FE21FFF7FF
:100D5000E9FF02B080BD000081B00090009840F231
:100D60000001C2F20001086001B0704780B582B096
:100D70008DF807008DF806108DF805209DF8070006
:100D80009DF806109DF80520FFF77EFD02B080BD9E
:100D900080B586B08DF817008DF81610ADF81420C8
:100DA0009DF81700FFF7CCFF8DF8130042F20040CA
:100DB000C4F6741003909DF81300013002F050FC4B
:100DC0000146039802F0E0FC039040F20000C2F2FA
:100DD0000000006802F05CFC0146039802F02EFB64
:100DE0000390BDF8140002F053FC039902F026FBB7
:100DF00002900298002102F000FB18B9FFE70020E2
:100E00000290FFE702984FF20001C4F27F5102F016
:100E1000FBFA30B9FFE74FF20000C4F27F500290B6
:100E2000FFE79DF8170001909DF8160000900298CA
:100E30004FF07C5102F064FA02F0F6FB0099034691
:100E400001980022FFF7EAFD06B080BD4EF21001C6
:100E5000CEF20001042008607047000081B00090CD
:100E6000009801384EF21401CEF2000108604EF2F3
:100E70001801CEF20001002008604EF21001CEF2FF
:100E80000001086840F001000860FFE74EF2100022
:100E9000CEF200000068C003002801D4FFE7F5E7A8
:100EA0004EF21001CEF20001086820F00100086047
:100EB00001B07047FFE74CF21800C4F20000006870
:100EC000C006002801D5FFE7F5E74CF20000C4F2A8
:100ED00000000068C0B270474EF20411C4F20F0166
:100EE000086840F0010008604EF20811C4F20F01DA
:100EF000086840F0010008604CF23001C4F20001C3
:100F0000086820F0010008604CF22400C4F20000E0
:100F1000112202604CF22803C4F20003172018606B
:100F20004CF22C03C4F2000370201860086840F2F1
:100F300001331843086044F22041C4F200010868FC
:100F400040F00300086044F21C51C4F2000108683C
:100F500040F00300086044F22C51C4F2000108681C
:100F600062F30700086044F22851C4F200010868E7
:100F700020F003000860704780B50D2000F004F8F1
:100F80000A2000F001F880BD81B08DF80300FFE772
:100F90004CF21800C4F2000000688006002801D559
:100FA000FFE7F5E79DF803004CF20001C4F20001F1
:100FB000086001B07047000080B582B001900198D0
:100FC000B0F1FF3F07DCFFE72D20FFF7DDFF0198C1
:100FD00040420190FFE7019800F014F802B080BD94
:100FE00080B582B00190FFE70198007840B1FFE73B
:100FF00001980078FFF7C8FF019801300190F3E7EE
:1010000002B080BD80B582B0019001980A280BD350
:10101000FFE701984CF6CD41CCF6CC41A0FB011086
:10102000C008FFF7EFFFFFE701984CF6CD41CCF683
:10103000CC41A0FB0121C90801EB8101A0EB4100DB
:1010400040F03000FFF7A0FF02B080BD80B5A6B031
:101050008DF897002491239240F21C01C2F2000106
:10106000012008609DF9970000F002FC229000F03A
:10107000E3FA0020CDF8830020901F90FFE71F982F
:10108000042800F39480FFE700201E90FFE71E98DD
:10109000062800F38780FFE7FFE71E990020062956
:1010A00005900ADCFFE722981E99405C1F9920FA00
:1010B00001F1012088430590FFE70598C00720B1A2
:1010C000FFE71E9801301E90E7E71E98072801DB16
:1010D000FFE767E01E981D90FFE71E990020062994
:1010E000049009DCFFE722981E99405C1F99C840D4
:1010F00000F001000490FFE70498C00720B1FFE76B
:101100001E9801301E90E8E71E9801381C901C982C
:101110001D99401A01301B901B98022841DBFFE704
:10112000249823991F9A1D9BEE460DF1640CCEF86E
:1011300004C00DF1680CCEF800C001F08FFA2498BD
:1011400023991F9A1C9BEE460DF15C0CCEF804C04F
:101150000DF1600CCEF800C001F080FA1A981999D0
:1011600001F0BCFA00F058FA1898179901F0B6FA95
:1011700000F062FA1D981690FFE716981C998842B5
:101180000EDCFFE71F99012000FA01F3169A20A94F
:10119000885C18438854FFE7169801301690ECE7F6
:1011A000FFE774E7FFE71F9801301F9067E7002013
:1011B0001590FFE71598062800F3A380FFE7229813
:1011C0001599405C00F01F008DF85300159920A878
:1011D000415C9DF85300884300F01F008DF85300D8
:1011E00000201390FFE71398042800F38580FFE7A1
:1011F000FFE7139900200429039009DCFFE79DF81D
:101200005300139920FA01F1012088430390FFE76E
:101210000398C00720B1FFE7139801301390E8E767
:101220001398052801DBFFE766E013981290FFE7AB
:10123000139900200429029008DCFFE79DF8530071
:101240001399C84000F001000290FFE70298C00720
:1012500020B1FFE7139801301390E9E713980138A4
:10126000119011981299401A01301090109802288C
:1012700041DBFFE724982399129A159BEE460DF166
:10128000380CCEF804C00DF13C0CCEF800C001F0D3
:10129000E5F924982399119A159BEE460DF1300C2F
:1012A000CEF804C00DF1340CCEF800C001F0D6F930
:1012B0000F980E9901F012FA00F0AEF90D980C9902
:1012C00001F00CFA00F0B8F912980B90FFE70B98B8
:1012D000119988420EDCFFE70B99012000FA01F317
:1012E000159A20A9885C18438854FFE70B980130B1
:1012F0000B90ECE7FFE776E7FFE7159801301590D4
:1013000058E700200A90FFE70A9806283DDCFFE72F
:1013100022980A99405C00F01F008DF827000A9976
:1013200020A8415C9DF82700884300F01F008DF83D
:10133000270000200890FFE70898042820DCFFE73A
:101340009DF827000899C840C007A0B1FFE724987E
:101350002399089A0A9BEE460DF1180CCEF804C0AA
:101360000DF11C0CCEF800C001F078F90798069931
:1013700001F0DEFAFFE7FFE7089801300890DBE7AD
:10138000FFE70A9801300A90BEE726B080BD000052
:1013900080B586B0059004910498039000200290D7
:1013A000FFE705990020009041B1FFE7059890F90B
:1013B0000000002818BF01200090FFE70098C00738
:1013C00088B3FFE70598411C059100788DF8070068
:1013D0009DF907000A2805D0FFE79DF907000D28B1
:1013E00006D1FFE704980390029812300290D8E7E4
:1013F00003980C305B2806DBFFE704980390029803
:1014000012300290FFE702980E303D2801DBFFE723
:1014100009E09DF907000399029AFFF717FE039868
:101420000C300390BDE706B080BD000080B596B0DB
:10143000FFF752FD0CA82821FEF7A0FF5A200E90BE
:101440003C210F91119112902D2014901E20159087
:1014500000200B90FFE70B98042800F38480FFE73F
:101460000B990CA850F831100A910B9900EBC100B0
:10147000406809900A98099908AA07AB00F086FB12
:101480000020069005900799089806AA05AB00F081
:101490000BFC0698059904AA03AB00F035FA0698F0
:1014A000059902AA01AB00F097FA44F2E220C0F2DB
:1014B0000000FFF795FD0A98FFF77EFD44F2093022
:1014C000C0F200000090FFF78BFD0998FFF774FD54
:1014D00044F2C720C0F20000FFF782FD089802F036
:1014E000A3F8FFF769FD0098FFF77AFD079802F06F
:1014F0009BF8FFF761FD44F2FA20C0F20000FFF70D
:101500006FFD0698FFF758FD0098FFF769FD0598F5
:10151000FFF752FD44F2D320C0F20000FFF760FD58
:10152000049802F081F8FFF747FD0098FFF758FD97
:10153000039802F079F8FFF73FFD44F2F020C0F283
:101540000000FFF74DFD0298FFF736FD0098FFF70A
:1015500047FD0198FFF730FDFFF70EFDFFE70B9801
:1015600001300B9077E716B080BD000080B50320F6
:10157000002100F071F84FF4967000F0B5F980BDCD
:1015800080B582B000F058F8FFF7F0FF002001901E
:101590005A21009100F060F80199012000F05CF8F8
:1015A0004FF4FA7000F0A0F90099019A40F2180087
:1015B000C2F20000016040F2A001C2F200010A6024
:1015C0000068096840F2A402C2F2000240F2A803D7
:1015D000C2F2000300F000FA02B080BD80B582B014
:1015E0008DF807009DF8070040F21401C2F20001D7
:1015F00000910870FFF72AFCFFF724F800980078A4
:10160000FFF7C4F9009800780021C4F24821FFF7E1
:1016100049FA02B080BD000080B50220322100F0FE
:101620001BF8FA2000F060F940F2AC01C2F20001B0
:101630000120086080BD000080B50220B42100F0C8
:101640000BF8FA2000F050F940F2AC01C2F20001B0
:101650000020086080BD000080B588B08DF81F00B4
:10166000ADF81C109DF81F00032804DCFFE79DF86F
:101670001F00019002E000200190FFE701988DF823
:101680001B009DF81B1043F63070C0F2000050F8AC
:10169000210005909DF81B1040F22800C2F20000C6
:1016A00030F81100ADF812009DF81B1040F2200038
:1016B000C2F2000030F81100ADF81000BDF91C00B6
:1016C000B0F1FF3F04DCFFE70020ADF81C00FFE7AE
:1016D000BDF91C000599884204DDFFE70598ADF8C7
:1016E0001C00FFE7BDF81000BDF81210401A03906F
:1016F000BDF81200BDF91C10039A5143059AB1FBC5
:10170000F2F10844029040F21400C2F200000078A6
:101710009DF81F10BDF80820FFF76EF908B080BDD6
:1017200080B594B013901291119210931398B0F168
:10173000FF3F03DCFFE700201390FFE71298B0F1B2
:10174000FF3F03DCFFE700201290FFE713985B28C0
:1017500003DBFFE75A201390FFE712983D2803DBD5
:10176000FFE73C201290FFE7139801F079FF00217A
:10177000C4F2B42101F062FE0F90129801F070FFE4
:101780000021C4F2702101F059FE0E904BF233306B
:10179000C4F289300D904EF26660C4F253300C9062
:1017A0000D9803900C99084601F0EEFF0399049000
:1017B000084601F0E9FF049901F0A2FD01F08AFD5D
:1017C0000B9048F6CC40C4F28F300A900B980A99DF
:1017D00001F01AFEB0B9FFE70B98002101F014FEEA
:1017E00080B9FFE70A980B9901F028FE0990099942
:1017F0000D9801F0C9FF0D9009990C9801F0C4FFF4
:101800000C90FFE70D9901910F9801F0BDFF019930
:1018100002F048F908900C9902910E9801F0B4FF7B
:101820000146029802F03EF90790002006900590CC
:101830000799089806AA05AB00F036FA20B1FFE731
:101840005A2006900590FFE706983C21782200F088
:1018500031F8069005980021B42200F02BF805908D
:1018600006981199086005981099086014B080BD19
:1018700082B08DF803009DF90300202805DBFFE707
:101880009DF903007F2806DBFFE743F62970C0F2CD
:10189000000001900BE09DF90300C0EBC00043F68F
:1018A0009041C0F200010844E0380190FFE7019840
:1018B00002B0704784B002900191009202980199A1
:1018C000884203DAFFE7019803900AE00298009942
:1018D000884203DDFFE70098039002E0029803903E
:1018E000FFE7039804B0704780B582B00190FFE72E
:1018F0000198411E019128B1FFE74CF25030FFF7EB
:10190000ADFAF5E702B080BD80B592B011901091AC
:101910000F920E93119801F0A3FE0021C4F2B4219E
:10192000019102F0BFF840F6DB71C4F24901029167
:1019300001F02AFF0021C4F23431039101F07EFD51
:101940000D90109801F08CFE019902F0ABF802990D
:1019500001F01AFF039901F071FD0C900D9801F050
:10196000FDFA04900D980C9901F0CAFC01F0F6FA0A
:101970004BF23331C4F20B31069101F005FF014601
:101980000498059146F26661C4F21831079101F09E
:10199000FBFE059901F0B4FC0B900D9801F0D6FB0D
:1019A00008900D980C9901F0ABFC01F0CFFB069963
:1019B00001F0EAFE079902460898099201F0E4FE58
:1019C000099901F09DFC0A900B980F9908600A98FC
:1019D0000E99086012B080BD80B596B01590149134
:1019E00013921293159811901498109011981099C1
:1019F0000FAA0EABFFF788FF4BF23330C4F28930E9
:101A00000D904EF26660C4F253300C900D98039026
:101A10000C99084601F0B8FE03990490084601F0BD
:101A2000B3FE049901F06CFC01F054FC0B9048F6F5
:101A3000CC40C4F28F300A900B980A9901F0E4FC74
:101A4000B0B9FFE70B98002101F0DEFC80B9FFE799
:101A50000A980B9901F0F2FC099009990D9801F090
:101A600093FE0D9009990C9801F08EFE0C90FFE703
:101A70000D98002101F0BAFC30B9FFE74BF233308A
:101A8000C4F28B300D90FFE70C98002101F0AEFC02
:101A900030B9FFE74EF26660C4F257300C90FFE7B2
:101AA0000F980D99019101F02BFC019901F0C6FCF2
:101AB00008900C9802900E9901F0F4FF029901F041
:101AC000BDFC07900898002101F097FC18B9FFE7CA
:101AD00000200890FFE708984FF07E5101F094FC39
:101AE00020B9FFE74FF07E500890FFE707980021EC
:101AF00001F083FC18B9FFE700200790FFE7079883
:101B00004FF07E5101F080FC20B9FFE74FF07E508E
:101B10000790FFE708980021C4F2B42101F034FED9
:101B200001F0DAFA01F080FD069007980021C4F276
:101B3000702101F029FE01F0CFFA01F075FD05904A
:101B40000698B0F1FF3F03DCFFE700200690FFE7B7
:101B500006985B2803DBFFE75A200690FFE705980D
:101B6000B0F1FF3F03DCFFE700200590FFE7059899
:101B70003D2803DBFFE73C200590FFE7069813991B
:101B8000086005981299086016B080BD80B592B0C3
:101B9000119010910F920E931198B0F1FF3F03DC5A
:101BA000FFE700201190FFE71098B0F1FF3F03DC42
:101BB000FFE700201090FFE711985B2803DBFFE7A9
:101BC0005A201190FFE710983D2803DBFFE73C20E7
:101BD0001090FFE7119801F043FD0021C4F2B421F9
:101BE00001F02CFC0D90109801F03AFD0021C4F298
:101BF000702101F023FC0C904BF23330C4F2893099
:101C00000B904EF26660C4F253300A900B9803902A
:101C10000A99084601F0B8FD03990490084601F0BE
:101C2000B3FD049901F06CFB01F054FB099048F6F8
:101C3000CC40C4F28F3008900998089901F0E4FB79
:101C4000B0B9FFE70998002101F0DEFB80B9FFE79A
:101C50000898099901F0F2FB079007990B9801F099
:101C600093FD0B9007990A9801F08EFD0A90FFE70B
:101C70000B9901910D9801F087FD019901F012FF78
:101C800006900A9902910C9801F07EFD0146029897
:101C900001F008FF059006980F99086005980E99C5
:101CA000086012B080BD000080B5A6B025902491D8
:101CB0002392229346F26660C4F2183021904BF2D0
:101CC0003330C4F20B30209025980A9024990846AE
:101CD00001F05AFD0A990B90084601F055FD0B9949
:101CE00001F00EFB1F901F980C9021990E91084651
:101CF00001F04AFD01460C9801F0D4FE0D902099A8
:101D00000F91084601F040FD01460D9801F0CAFE12
:101D10000E991090084601F0F3FA0F9901F034FD86
:101D20000146109801F08AFB1E901E984FF07E51DC
:101D300001F06AFB20B9FFE74FF07E501E90FFE7ED
:101D40001E980021CBF6807101F057FB28B9FFE700
:101D50000020CBF680701E90FFE71E99084601F028
:101D600013FD01464FF07E5001F09CFE01F0B2FAE7
:101D70001D901D9880F000401C901E991D9800F049
:101D80009BFF1A901E991C9800F096FF1B90002054
:101D9000199018904DF2A541C5F26831179116902F
:101DA000FFE71698012877DCFFE716991AA850F884
:101DB000210015902599249800F07EFF0590209829
:101DC0000190159801F0C2F90146019801F0DCFC80
:101DD00004902198039020980290159801F0BEF885
:101DE0000146029801F0D0FC039901F089FA0146FE
:101DF000049800F061FF0146059801F053FE14902D
:101E000014980021C4F23431069101F0BDFC40F673
:101E1000DB71C4F24901079101F010FB0021C4F20B
:101E2000B421089101F06CFA01F056F901F0FCFBC5
:101E300006991390159801F0A7FC079901F0FEFA96
:101E4000089901F05DFA01F047F901F0EDFB1290FD
:101E5000129801F005FC099040F2A000C2F20000C7
:101E6000006801F0FDFB0146099801F01BFE20F01F
:101E7000004011901198179901F0BFFA38B9FFE7A7
:101E8000119817901398199012981890FFE7FFE790
:101E900016980130169084E71998239908601898CD
:101EA00022990860002026B080BD000084B0039015
:101EB0000291019200930198B0F1FF3F03DCFFE72C
:101EC00000200190FFE701980099884203DDFFE7B9
:101ED00000980190FFE703980199029A121A514362
:101EE000009A91FBF2F1084404B0704780B5B6B097
:101EF00000200E903590FEF7EFFFFEF7EBFA0E9AFA
:101F000010461146FEF74EFB4020FFF767FB4EF6EA
:101F10002020C4F20F0000688007002807D4FFE7E4
:101F200044F21A20C0F20000FFF75AF8FFE7402001
:101F30000021FEF7FDFB8DF8D2009DF8D20038B9E4
:101F4000FFE744F22810C0F20000FFF749F82FE045
:101F50009DF8D20000F02100212828D0FFE744F2AC
:101F60007920C0F20000FFF73BF844F26820C0F28D
:101F70000000329032989DF8D2100909405C8DF82B
:101F8000CF0032989DF8D21001F00F01405C8DF81F
:101F9000D00000208DF8D1000DF1CF00FFF720F820
:101FA00044F22E20C0F20000FFF71AF8FFE7FFE727
:101FB000FFF7E6FA40F20401C2F200015A2008607D
:101FC00040F29401C2F200010020086040F21002C9
:101FD000C2F20002B421116040F20801C2F2000115
:101FE000086000F009FDFFE7FEF73CFA002863D027
:101FF000FFE7FEF767FA40F2B000C2F20000017896
:10200000B1FA81F149090170007860B3FFE701205E
:1020100000220D921146FEF7C5FA44F2AA00C0F262
:102020000000FEF7DDFFFFF7ABFA0D9840F2040267
:10203000C2F200025A21116040F29401C2F2000182
:10204000086040F21002C2F20002B421116040F2B6
:102050000801C2F20001086044F24620C0F200000C
:10206000FEF7BEFF27E000220C9210461146FEF755
:1020700099FA44F26F00C0F20000FEF7B1FFFFF7DB
:102080007FFA0C9840F20402C2F200025A21116059
:1020900040F29401C2F20001086040F21002C2F264
:1020A0000002B421116040F20801C2F20001086090
:1020B00000F0A2FCFFE7FFE740F2B000C2F2000030
:1020C0000078002800F0D280FFE70020ADF846003D
:1020D000FFE740F2B000C2F200000078002800F0F4
:1020E000C480FFE7FEF7BEF978B3FFE7FEF7EAF931
:1020F00040F2B000C2F2000000220B9202701046C3
:102100001146FEF74FFA44F28700C0F20000FEF7D6
:1021100067FFFFF735FA0B9840F20402C2F20002A3
:102120005A21116040F29401C2F20001086040F2AD
:102130001002C2F20002B421116040F20801C2F2A2
:102140000001086000F058FC8FE04CF21800C4F267
:1021500000000068C006002879D4FFE7FEF7AAFE59
:102160008DF845009DF845000D2805D0FFE79DF846
:1021700045000A2831D1FFE7FEF7FEFEBDF8460014
:1021800008B3FFE7BDF8462012A9089100200A9085
:102190008854FFF7F5F908980A99FFF7F9F8FFF75F
:1021A000EFF90A9A012109911046FEF7FBF949F26D
:1021B0008060C0F29800FEF751FE09980A9A114615
:1021C000FEF7F0F9FFE70020ADF8460044F24620A4
:1021D000C0F20000FEF704FF38E09DF84500082833
:1021E00005D0FFE79DF845007F2815D1FFE7BDF832
:1021F000460080B1FFE7BDF846000138ADF8460063
:1022000008200790FEF7C0FE2020FEF7BDFE0798CD
:10221000FEF7BAFEFFE718E09DF84500202813DB23
:10222000FFE7BDF846007E280ED8FFE79DF8450081
:10223000BDF84620511CADF8461012A988549DF8EF
:102240004500FEF7A1FEFFE7FFE7FFE7FFE74DF2DE
:102250009000C0F20300FEF701FE40F29001C2F2CE
:10226000000108680530086033E7BDE64CF218004D
:10227000C4F200000068C006002800F1E181FFE719
:10228000FEF718FE8DF8D3009DF8D300FEF77CFE14
:10229000FEF772FE9DF8D3004138014606913628BC
:1022A00000F2C0810699DFE811F03700BD01BD01E1
:1022B0005300BD01BD01BD011901BD01A900C5004B
:1022C000BD01BA01BD01BD01E200BD01BD018C002F
:1022D0003801BD0110017000BD01BD01BD01BD018E
:1022E000BD01BD01BD01BD01BD013700BD01BD0185
:1022F0005300BD01BD01BD011901BD01A900C5000B
:10230000BD01BA01BD01BD01E200BD01BD018C00EE
:102310003801BD011001700040F29400C2F20000CB
:102320000168053101600068B52807DBFFE740F26E
:102330009401C2F20001B4200860FFE740F294006B
:10234000C2F20000B0F900100120FFF785F970E13A
:1023500040F29400C2F20000016805390160006893
:10236000B0F1FF3F07DCFFE740F29401C2F2000149
:1023700000200860FFE740F29400C2F20000B0F9CC
:1023800000100120FFF768F953E140F20400C2F2A7
:1023900000000168053101600068B52807DBFFE730
:1023A00040F20401C2F20001B4200860FFE740F2ED
:1023B0000400C2F20000B0F900100020FFF74CF951
:1023C00037E140F20400C2F2000001680539016003
:1023D0000068B0F1FF3F07DCFFE740F20401C2F202
:1023E000000100200860FFE740F20400C2F2000094
:1023F000B0F900100020FFF72FF91AE140F21000A9
:10240000C2F200000168053101600068B52807DBF1
:10241000FFE740F21001C2F20001B4200860FFE7BC
:1024200040F21000C2F20000B0F900100220FFF7E5
:1024300013F9FEE040F21000C2F200000168053915
:1024400001600068B0F1FF3F07DCFFE740F21001D8
:10245000C2F2000100200860FFE740F21000C2F263
:102460000000B0F900100220FFF7F6F8E1E044F2B6
:102470004E20C0F20000FEF7B3FD40F20400C2F2AD
:1024800000000068FEF7BEFD44F25C20C0F20000D0
:10249000FEF7A6FD40F29400C2F200000068FEF7CD
:1024A000B1FD44F26220C0F20000FEF799FD40F257
:1024B0001000C2F200000068FEF7A4FD44F22E20D6
:1024C000C0F20000FEF78CFDB3E044F25200C0F20F
:1024D0000000FEF785FDFEF7A9FFAAE0FFF750F820
:1024E00040F20401C2F200015A20086040F2940058
:1024F000C2F200000023036040F21001C2F20001AA
:10250000B420086040F20800C2F2000003604020DE
:1025100008211A46FEF75CFB8BE044F20410C0F27F
:102520000000FEF75DFD4020029000210191FEF7C2
:10253000F9FB8DF8440044F28A20C0F20000FEF757
:102540004FFD9DF8440000F037FA44F22E20C0F20F
:1025500000000590FEF744FD029801210491FEF76A
:10256000E1FB8DF8430044F29320C0F20000FEF737
:1025700037FD9DF8430000F01FFA0598FEF730FD87
:102580000298FEF7DDFB8DF8420044F29C20C0F279
:102590000000FEF725FD9DF8420000F00DFA0598B9
:1025A000FEF71EFD44F23600C0F20000FEF718FDF3
:1025B000019B0298082103914FF40062FEF708FB8B
:1025C00044F64030C0F24C00FEF748FC019A0298F5
:1025D0000399FEF773FBADF8400044F2B820C0F257
:1025E0000000FEF7FDFCBDF8400000F0B3F90598CF
:1025F000FEF7F6FC02980399049AFEF75FFBADF82C
:102600003E0044F2A820C0F20000FEF7E9FCBDF84D
:102610003E0000F09FF90598FEF7E2FC09E000F0AB
:10262000EBF906E044F2DF00C0F20000FEF7D8FC50
:10263000FFE744F23120C0F20000FEF7D1FCFFE7D3
:102640004DF29000C0F20300FEF708FC40F290014A
:10265000C2F20001086805300860C5E488B0DDF802
:1026600024C0DDF820C00790069105920493002055
:102670000390029005984000039004984000029057
:10268000079803990844019006980299084400901D
:102690000198B0F1FF3F03DCFFE700200190FFE766
:1026A00001985B2803DBFFE75A200190FFE70098C1
:1026B000B0F1FF3F03DCFFE700200090FFE7009848
:1026C0003D2803DBFFE73C200090FFE701980899D5
:1026D000086000980999086008B0704780B59AB002
:1026E000199018911998B0F1FF3F03DCFFE7002023
:1026F0001990FFE71898B0F1FF3F03DCFFE70020D7
:102700001890FFE719985B2803DBFFE75A20199020
:10271000FFE718983D2803DBFFE73C201890FFE710
:102720001998189917AA16ABFEF7FAFF40F2AC00F9
:10273000C2F20000006868B1FFE717983F217522D8
:10274000FFF7B8F8179016980321B122FFF7B2F8F7
:102750001690FFE740F21800C2F20000006840F255
:10276000A001C2F20001096815AA14ABFFF7CCF86A
:102770001798169913AA12ABFFF7C6F81398159974
:1027800001F090F911901298149901F08BF91090C2
:10279000119806901099084600F0F6FF06990790E8
:1027A000084600F0F1FF079900F0AAFD00F092FD45
:1027B0000F9040F2AC00C2F2000001684FF081407F
:1027C000002918BF4FF07E500E900F980E9900F020
:1027D00035FE00F029FF01300D900D98002803DC34
:1027E000FFE701200D90FFE701200C90FFE70C9818
:1027F0000D99884200F38280FFE7159802901198A6
:1028000000900C9800F02CFF0146009800F0BCFFEF
:1028100001900D9800F024FF0146019800F00EFE93
:102820000146029800F06CFD0B90149805901098EA
:1028300003900C9800F014FF0146039800F0A4FFE9
:1028400004900D9800F00CFF0146049800F0F6FD8E
:102850000146059800F054FD0A90179809901698C3
:1028600008900A990B9809AA08ABFFF71DFAB8B1AE
:10287000FFE740F21800C2F20000006817990C9AB6
:102880000D9BFFF713FB099040F2A000C2F200007D
:10289000006816990C9A0D9BFFF708FB0890FFE75C
:1028A00040F2AC00C2F20000006868B1FFE709988E
:1028B0003F217522FEF7FEFF099008980321B122FF
:1028C000FEF7F8FF0890FFE7BDF924100020FEF79F
:1028D000C3FEBDF920100120FEF7BEFE40F2AC00A1
:1028E000C2F2000001681620002918BF2D20FEF753
:1028F000FBFFFFE70C9801300C9078E7179840F247
:102900001801C2F200010860169840F2A001C2F25C
:1029100000010860199840F2A401C2F200010860A9
:10292000189840F2A801C2F2000108601AB080BDF8
:1029300080B582B00190009101980099FFF7CEFE1A
:10294000FEF76AFE7820FEF7CFFFFEF775FE02B0B5
:1029500080BD000080B584B0ADF80E0044F2682060
:10296000C0F2000001900198BDF80E10090B405C08
:102970008DF8090001989DF80F1001F00F01405CDF
:102980008DF80A000198BDF80E10C1F30311405CE8
:102990008DF80B000198BDF80E1001F00F01405C9E
:1029A0008DF80C0000208DF80D000DF10900FEF7E8
:1029B00017FB04B080BD000080B582B08DF8070021
:1029C00044F26820C0F20000009000989DF80710C3
:1029D0000909405C8DF8040000989DF8071001F08B
:1029E0000F01405C8DF8050000208DF8060001A85D
:1029F000FEF7F6FA02B080BD80B544F21410C0F2C2
:102A00000000FEF7EDFA44F24F10C0F20000FEF7AE
:102A1000E7FA44F29410C0F20000FEF7E1FA44F243
:102A20007210C0F20000FEF7DBFA44F2B710C0F2F9
:102A30000000FEF7D5FA43F68370C0F20000FEF7FF
:102A4000CFFA43F6AE70C0F20000FEF7C9FA44F2C6
:102A50000900C0F20000FEF7C3FA44F20320C0F2FE
:102A60000000FEF7BDFA43F64070C0F20000FEF72A
:102A7000B7FA44F2D910C0F20000FEF7B1FA43F6FB
:102A8000D970C0F20000FEF7ABFA44F23120C0F278
:102A90000000FEF7A5FA80BD10B582B08C468646D0
:102AA000059804998DF807E08DF806C08DF805208B
:102AB0008DF804308DF803108DF802009DF80700A2
:102AC0009DF806109DF80520FDF7DEFE9DF8070035
:102AD0009DF8061001319DF80420C9B2FDF7D4FE1F
:102AE0009DF807009DF8061002319DF80320C9B239
:102AF000FDF7CAFE9DF807009DF8061003319DF80A
:102B00000220C9B2FDF7C0FE02B010BD41000802AC
:102B100018BF04200A0E18BF40F001004FF07F429A
:102B200032EA010108BF40F00200012808BF052079
:102B30007047012101F05DB800F0E2BB00210846BA
:102B400000F07CBC6FF05E01080701F052B8000095
:102B50002DE9F04D0D4614464FF07F41B1EB440F87
:102B60009EBF4FF0FF312960BDE8F08D4FF000406F
:102B700040EA0421C4F3C750783810F01F024A4BD2
:102B80004FEA601CC2F120067B44C4F3C750A0F199
:102B900078004FEA601003EB800053F82C3008BF38
:102BA000D0E901C612D0D0F804C093402CFA06F741
:102BB0003B4387680CFA02FC27FA06F8C06807FA5C
:102BC00002F2F0404CEA080C42EA0006A3FB013294
:102BD000ACFB01C0A6FB016101EB0C068E4234BFC9
:102BE0004FF0010C4FF0000CC1186144BCF1000F14
:102BF00002D0814202D903E0814201D2012000E0EB
:102C00000020104400F120024FEA92188006CA0CFE
:102C100040EA42304F03C5F8008000F021FD8246B3
:102C2000384600F035FD6FF0120100F0E2FF074674
:102C3000304600F02DFD6FF0250100F0DAFF8346ED
:102C40003946504600F05CFB594600F059FB00F550
:102C500000666FF30B065146304600F023FF3946FD
:102C600000F020FF594600F08BFE104900F08CFD6B
:102C700007460F49304600F087FD394600F040FB1B
:102C800007460C49304600F07FFD394600F038FB1E
:102C900014F0004F08BFBDE8F08DC8F1805180F0FE
:102CA00000402960BDE8F08DE4100000DB0FC92F63
:102CB00022AAFD290000C92F2DE9F0474FF06842F4
:102CC00002EB40030C460546B3F1654F3CBF02EBF7
:102CD0004102B2F1654F80F0CD8000BFC0F3C75212
:102CE000C1F3C753D21A1B2A06DD10F0004F14BFE0
:102CF00087488848BDE8F08712F11A0F2FDA11F0E3
:102D0000004F06D010F0004F0CBF83488348BDE849
:102D1000F0872146284600F091FB0646FFF7F6FEB5
:102D2000042808BFFFF70EFF2846FFF7EFFE054611
:102D30002046FFF7EBFE04463046FFF7E7FE042D82
:102D400018BF052D08D1042C18BF052C04D100286C
:102D500004BF0220FDF741FB3046BDE8F08742008A
:102D6000B2EB410F25D910F0004F19BF6C4F6D4EDB
:102D70006D4F6E4E224685F0004415460A4680F09F
:102D8000004110460A1A5200B2F1807F3ED24840FC
:102D90006749DFF8A0A110F0004F18D04FF03F486E
:102DA000384600F07FFE07465146304600F07AFE76
:102DB00017E011F0004F04BF00263746E2D010F0B4
:102DC000004F19BF5C4F5D4E5D4F5E4EDAE74FF02E
:102DD0007C58384600F094FA07465146304600F0D9
:102DE0008FFA06464146284600F0CEFC214600F008
:102DF00087FA82462146404600F0C6FC294600F08C
:102E0000BFFD514600F01AFB044604E02146284667
:102E100000F014FB0446014600F0B6FC80464A4927
:102E200000F0B2FC494900F06BFA414600F0ACFCFE
:102E3000474900F065FA414600F0A6FC454900F01C
:102E40005FFA414600F0A0FC434900F059FA0546FC
:102E50004146204600F098FC294600F095FC31469A
:102E600000F04EFA214600F04BFA3946BDE8F04733
:102E700000F046BA4FF07F42B2EB400F28BFB2EBF2
:102E8000410F03D2BDE8F047FFF756BE40EA010309
:102E90005B0008BF44F0FF410AD0B2EB400F08BF0F
:102EA000B2EB410F06D125F0804024F08041054669
:102EB0000C4613E7B2EB400F12BF5FEA410345F047
:102EC000FF4004F000413FF409AFB2EB410F12BFE5
:102ED0005FEA400205F0004044F0FF413FF4FEAEDF
:102EE0004A0092EA40033FF5F9AE002AACBF4FF02A
:102EF0009F464FF03E56314600F046FC05463146AF
:102F0000204600F041FC044628462146E6E6000043
:102F1000DB0FC9BFDB0FC93FDB0F4940DB0F49C0E7
:102F20000000C9BF22AAFDB90000C93F22AAFD398D
:102F30000060ED3EC30ACE37000049C022AA7DBA28
:102F40000000494022AA7D3A2DAD65BD8FB8D53D20
:102F50000FB511BE61C84C3EA8AAAABE2DE9F84320
:102F6000044602464F486946B0EB420F09D94FF07C
:102F7000E640B0EB420F94BF00204FF0FF300090CE
:102F800030E0494B22F00040834271D94749204646
:102F900000F0FAFB00F0C4FC804600F045FB00F0B6
:102FA000030000904249404600F0EEFB05464149CF
:102FB000404600F0E9FB06463F49404600F0E4FB8E
:102FC00007463E49404600F0DFFB214600F0D8FCB2
:102FD000394600F067FD314600F064FD294600F0F7
:102FE00061FD04462546009C002C45DB294614F073
:102FF000010F08461CD000F0C7FB0646304900F020
:10300000C3FB304900F07CF9314600F0BDFB2E498E
:1030100000F076F9314600F0B7FB294600F0B4FB2A
:10302000294600F06DF914F0020F1CD0BDE8F883BA
:1030300000F0AAFB0546254900F0A6FB244900F054
:103040005FF9294600F0A0FB224900F059F9294612
:1030500000F09AFB4FF07E5100F052F914F0020F8D
:1030600008BFBDE8F88380F00040BDE8F883FFE7C3
:103070001046FFF76DFDB4E76800B0F17F4F3CBF2D
:103080004FF07E50BDE8F88307D14FF00100FDF707
:10309000A4F9BDE8F843FFF751BD2846BDE8F84361
:1030A000FFF747BDB61F927E490E494683F9223F7E
:1030B0001A61342C0020A23300A0FD390000C93F62
:1030C000336D4CB9DA82083CA0AA2ABEB93AB2BA2A
:1030D000CA9F2A3DDDFFFFBE70B5054600F020FC0B
:1030E00004460146284600F0DDFC15F0004F4FF085
:1030F0007F410ED0B0F13F4F28BFB1EB400F0ED251
:10310000B0F17C5F1DDDB1EB400F1AD313E0044634
:1031100017E0B0F13F4F08D9B1EB400F05D34FF0A6
:103120007E51204600F0BEFCF1E7B0F17C5F08DB89
:10313000B1EB400F05D34FF07E51204600F0E0F890
:10314000E5E7284664F31E0070BD00002DE9F84352
:103150000446024652486946B0EB420F09D94FF087
:10316000E640B0EB420F94BF00204FF0FF300090DC
:1031700030E04C4B22F00040834271D94A4920464E
:1031800000F002FB00F0CCFB804600F04DFA00F0AE
:10319000030000904549404600F0F6FA05464449D0
:1031A000404600F0F1FA06464249404600F0ECFA8B
:1031B00007464149404600F0E7FA214600F0E0FBAF
:1031C000394600F06FFC314600F06CFC294600F0F7
:1031D00069FC04462546009C002C45DB294614F07A
:1031E000010F08461ED000F0CFFA0546334900F023
:1031F000CBFA334900F084F8294600F0C5FA31498A
:1032000000F07EF8294600F0BFFA4FF07E5100F042
:1032100077F814F0020F08BFBDE8F88380F0004093
:10322000BDE8F88300F0B0FA0646274900F0ACFA92
:10323000264900F065F8314600F0A6FA244900F06E
:103240005FF8314600F0A0FA294600F09DFA2946C1
:1032500000F056F814F0020FE0D1BDE8F883FFE764
:103260001046FFF775FCB4E76800B0F17F4F09D254
:103270002846FFF74BFC042808BFFFF763FC2846ED
:10328000BDE8F88306D10120FDF7A7F8BDE8F843B3
:10329000FFF754BC2846BDE8F843FFF74ABC0000DE
:1032A000B61F927E490E494683F9223F1A61342C9B
:1032B0000020A23300A0FD390000C93FB93AB2BADC
:1032C000CA9F2A3DDDFFFFBE336D4CB9DA82083C50
:1032D000A0AA2ABE70B5054600F05CFB044620F0AB
:1032E0000040C0F1FF40C00F08D025F00040C0F101
:1032F000FF40C00F04BF0120FDF76FF8204670BDEE
:1033000090EA010F48BF81F0004100F1D283421AD8
:103310003CBF801A89184FEAD052A2EBD1534FF02C
:103320007F4C1CEA410F18BF9CEA026F00F03B8003
:103330004FF0004C4CEA00204CEA012121FA03FC3A
:1033400010EB0C0C1ED202F1FF325FEA1C2040EBA6
:10335000C25038BF70471CF07F0F4FEA400C18BFB7
:10336000BCF17F4F38BF7047C3F12003994008BFBD
:1033700020F00100BCF17F4F38BF7047A0F1C04082
:1033800000F0C9BA4FEA3C00000A40EBC25028BF27
:103390001CF0FF0F4FEA400CE6D018BFBCF17F4F86
:1033A00038BF7047EAE79CEA026F05D010EA5C0F6D
:1033B00008BF00F00040704710B500F066FA00BF8B
:1033C00064FBBE3E014800F0E2BB00BF0000C07FCE
:1033D00010B500F0F5F80CBF0120002010BD10B5AD
:1033E00000F0EEF814BF0120002010BD10B500F071
:1033F00063F98CBF0120002010BD10B500F05CF90E
:103400002CBF0120002010BD10B500F089F994BF39
:103410000120002010BD10B500F082F934BF01205A
:10342000002010BD401058BFC0F14040491058BFA7
:10343000C1F140418142EFF3008070474FF47F0CAF
:103440001CEAD0121EBF1CEAD11392EA0C0F93EAB9
:103450000C0F00F0858090EA010F48BF42F48072A3
:1034600040F4000C41F400002CF07F4120F07F403C
:1034700000B5A2EB030281420FF2081CACEB504EE8
:103480009EF800E0C0F100004FEA4E0E00FB0EFC7B
:1034900038BF49004FEA2C1C0CFB0EF34FEACE1E3E
:1034A0000EEB635E4FEA112C0EFB0CFC4FEAC121C0
:1034B0004FEA1C5300FB031102F5FA024FEA112CEC
:1034C0000EFB0CFC4FEA01314FEADC4C00FB0C1107
:1034D00042EB2242C14228BF09184CEB03335DF88E
:1034E00004EB10EB410143EBC250B2F57C0F38BF47
:1034F000704729D512F0F00F1CBF00F1C04000F05A
:1035000000407047008182838485868788898B8C00
:103510008D8E8F919293959697999A9C9D9FA0A23C
:10352000A3A5A7A8AAACAEB0B2B3B5B7B9BCBEC08C
:10353000C2C5C7C9CCCED1D4D7D9DCDFE2E6E9EC2D
:10354000F0F3F7FAFE0000004FEA400C0CF1807C2B
:10355000BCF17E4F28BF7047B0F1C04000F0DBB92E
:103560000CEAD11390EA010F48BF42F48072624521
:1035700038BF634507D213F47F0F16D080EA0100ED
:1035800000F00040704710B500F07FF9097EFC3E66
:1035900000F005B880EA010000F00040704780EAC2
:1035A000010000F0004000F0B6B912F47F0F04BF34
:1035B0000248704780EA010000F0ADB90000C07F0A
:1035C00050EA010C00F113801CF5000F58BFBCF548
:1035D000000F01D48842704707D710F5000F58BF7D
:1035E00011F5000F15D488427047894270471CF5C9
:1035F000000F04D5BCF5000FF7D5814270474FF09E
:10360000807C1CEB400F38BF1CEB410F01D2814284
:10361000704710B500F039F9922449004FF000507E
:103620004FF08051FFF7FEBE41000B0ED3F19E021A
:1036300008D950F400034FEA032323FA02F048BFED
:103640004042704710B500F020F900BF4992248035
:10365000002070476FF0004282EA200070470000AF
:1036600010F0004148BF4042B0FA80F310FA03F274
:10367000C3F19D030BD051EAC35101EB1220530655
:1036800038BF704700F1010008BF20F0010070470B
:10369000B0FA80F310FA03F2C3F19D030AD0D90502
:1036A00001EB1220530638BF704700F1010008BF3C
:1036B00020F001007047000050EA010C00F1138077
:1036C0001CF5000F58BFBCF5000F01D488427047AD
:1036D00007D710F5000F58BF11F5000F15D4884219
:1036E0007047894270471CF5000F04D5BCF5000FE8
:1036F000F7D5814270474FF0807C1CEB400F38BFFC
:103700001CEB410F01D28142704710B500F0BDF8AB
:10371000922449004FF080504FF00051FFF782BED5
:1037200050EA010C00F113801CF5000F58BFBCF5E6
:10373000000F01D48842704707D710F5000F58BF1B
:1037400011F5000F15D488427047894270471CF567
:10375000000F04D5BCF5000FF7D5814270474FF03C
:10376000807C1CEB400F38BF1CEB410F01D2814223
:10377000704710B500F089F8922449004FF00050CE
:103780004FF08051FFF74EBE4FF47F0C1CEAD01271
:103790001EBF1CEAD11392EA0C0F93EA0C0F00F043
:1037A000478090EA010F48BF42F480724FF0004C0E
:1037B0004CEA00204CEA012102EB0302A0FB0113BA
:1037C000A2F50002002918BF43F001035B0028BFE7
:1037D0004FEA330342EB22425FEA132C4CEBC25018
:1037E0002EBFBCEB436FB2F57C0F70474FEA036C02
:1037F000BCF1004F08BF20F00100B2F57C0F38BFCC
:1038000070470BD582F0FF0212F5803FC8BF7047AA
:1038100000F1C040D8BF00F00040704700F5000C38
:103820005FEA4C0C48BF7047B0F1C04000F073B87D
:103830000CEAD11390EA010F48BF42F4807262454E
:1038400038BF634504D280EA010000F000407047B1
:1038500010B500F01AF800BF8900013E00F007B86B
:1038600000F009B85FEA410C5FEA1C6C08D080EAFE
:10387000010000F050B85FEA400C5FEA1C6CF6D122
:103880004FF00040A0F5800070470EF1020E2EF0C0
:10389000030E5EF8044B244204D44FEA4102B2F115
:1038A0007F4F11D84FEA4003B3F17F4F0CD80ED1B0
:1038B0004FEAD07C0CEB4C0C0CF1020CB2F17F4FB8
:1038C00008BF4CEBD17C04E04FF0080C01E04FEA5C
:1038D000D17C0CEB4C0324FA03F404F00704B4F19C
:1038E000040C06D20EEB840CBDE810404CF0010C29
:1038F0006047DFE80CF0070802024FF00040A0F537
:10390000800010BD0846420018BFD2F1807288BF07
:1039100000F0004010BDFF2141EAD050C0057047C3
:103920005FEA400C5FEA1C6CBCF17F0314D4D3F156
:10393000170240F31C804FF0010C0CFA02FCACF1B2
:103940000103034020EA0300B3EB5C0208BF10EA66
:103950000C0F88BF60447047B3F1FF3F28BF5FEA98
:10396000002C00F0004088BF40F07E507047BCF152
:10397000FF0FB8BF704710B5FFF787FF40DBB6BE3B
:1039800080F0004090EA010F7FF5C1AC81F000416A
:1039900000F08FB84FEAD051002988BFD1F1FF0263
:1039A00040F275804FEA002040F0004070B501F110
:1039B0007D01490838BF40080EA2430ED25C040CBA
:1039C00002FB02F304FB03F3C3F14043A3FB0254E5
:1039D000ED0D45EA442202FB02F3A0FB03546D42C5
:1039E000C4F1404438BF641EA2FB05350023E2FB4E
:1039F0000453EA0B42EA4342A0FB023212F14004B4
:103A0000E409A2F1210303F07F031F2B32D904EB59
:103A1000C15070BDFEFAF7F3F0ECE9E6E4E1DEDC5C
:103A2000D9D7D4D2D0CECCCAC8C6C4C2C1BFBDBCFF
:103A3000BAB9B7B6B4B3B2B0AFAEACABAAA9A8A787
:103A4000A6A4A3A2A1A09F9E9E9D9C9B9A99989795
:103A5000979695949393929190908F8E8E8D8C8C57
:103A60008B8A8A89898887878686858484838382EE
:103A70008281818004FB04F6B6EB004603D5E64262
:103A800048BF641CC3E7A64258BF641CBFE711F0DF
:103A9000FF0F02D100F00040704710B5FFF7F5FEB0
:103AA0007FDBFFBE90EA010F48BF81F000413FF588
:103AB0002EAC421A04D882F00042A0EB020011445E
:103AC0004FEAD052A2EBD1534FF07F4C1CEA410F8A
:103AD00018BF9CEA026F4AD04FF0004C4CEA00201D
:103AE0004CEA012121FA03FCB0EB0C0C0FD412F0CC
:103AF000FE0F36D05FEA4C001DD5001240EBC250DD
:103B000038BF70471CF03F0F18BF70470BE05FEAEB
:103B10001C20A2F1010240EBC25038BF70471CF0DC
:103B20007F0F18BF7047C3F12003994014BF401E98
:103B300020F0010070474FEA1223800808BF704749
:103B4000B0FA80FCA2EB0C02CCF1280C60FA0CF06D
:103B500093EA122F04BF00EBC25070474FEAC370C4
:103B60007047130A5FEADC1008BF7047F6E79CEA6B
:103B7000026F04D010EA5C0F08BF0020704710B538
:103B8000FFF783FE40DFF63E81F0004070470CF007
:103B90000F03092B08BF082000F051800A2B0BD01F
:103BA000082B18BF704708BF1CF0400F0AD04FF019
:103BB00000004FF0000170471CF0400F18BF4FF09D
:103BC000004070471CF0100F08D000F07F4220F03A
:103BD000704342EAD3014FEA4370704700F06040FF
:103BE00021F07F4242EA000201F07F4040EA727019
:103BF00070474FF0FF0212EAD0521CBF92F0FF0351
:103C00008B42C2BFD14200EBC1507047002A0AD09C
:103C1000002B0BD000F000400029A4BF40F0FE4074
:103C200040F40000704700F00040704743024FF03E
:103C30000B0C18BF4CF0806C7FF4C4AB70471CF4C5
:103C4000801F11D01CF4E02F03D06FEACC31490063
:103C500070474FF04050EFF3008222F0704242EA8A
:103C6000000282F3008870474FF0000070470000A8
:103C7000000000006E83F9A22915444ED15727FC9D
:103C8000C0DD34F5999562DB4190433CAB6351FE56
:103C900000000000000000040404040000040A0AFC
:103CA00000000000000A1F0A0A1F0A00041E050E79
:103CB000140F04191902040813130C121408151216
:103CC0000D060408000000000804020202040802B5
:103CD000040808080402000A041F040A000004047F
:103CE0001F040400000000000604080000001F007C
:103CF000000000000000000C0C100804020100008D
:103D00000E11131519110E040C040404040E0E11E7
:103D1000100804021F0E11100C10110E080C0A09D5
:103D20001F08081F010F1010110E0C02010F1111B6
:103D30000E1F1008040202020E11110E11110E0EB8
:103D400011111E100806000C0C000C0C00000C0CCD
:103D5000000C04080804020102040800001F001FF0
:103D60000000020408100804020E111008040004E8
:103D70000E1115150D010E0E11111F1111111E112D
:103D8000111E11111E0E11010101110E1E11111132
:103D900011111E1F01011F01011F1F01011F010140
:103DA000010E11011D11110E1111111F1111110E12
:103DB00004040404040E1C08080809090611090576
:103DC000030509110101010101011F111B15111149
:103DD0001111111315191111110E11111111110ECB
:103DE0001E11111E0101010E1111111509161E11CE
:103DF000111E0509110E11010E10110E1F040404ED
:103E00000404041111111111110E11111111110AD3
:103E10000411111111151B1111110A040A111111AC
:103E2000110A040404041F10080402011F0E0202F8
:103E30000202020E01020408100000040A11000030
:103E4000000000000000001F000408000000000047
:103E50000E11111F1111111E11111E11111E0E1123
:103E6000010101110E1E11111111111E1F01011F5F
:103E700001011F1F01011F0101010E11011D11117F
:103E80000E1111111F1111110E04040404040E1C53
:103E900008080809090611090503050911010101AE
:103EA0000101011F111B1511111111111315191108
:103EB00011110E11111111110E1E11111E0101010E
:103EC0000E1111111509161E11111E0509110E11E1
:103ED000010E10110E1F0404040404041111111129
:103EE00011110E11111111110A0411111111151BCB
:103EF0001111110A040A111111110A040404041FFA
:103F000010080402011F0804040204040804040445
:103F10000004040402040408040402000A1500005A
:103F20000000000000000000000000000000000091
:103F3000B4000000B4000000B4000000B4000000B1
:103F4000542F74203A205043413936383520726559
:103F50006769737465722074657374202870726960
:103F60006E7473204D4F4445312F50524553434199
:103F70004C452C20746F67676C6573204348382963
:103F80000D0A004A2F6A203A205377656570207029
:103F9000656E206368616E6E656C20666F72776116
:103FA0007264202850454E5F4348290D0A004B2F6C
:103FB0006B203A2053776565702070656E206368CA
:103FC000616E6E656C20726576657273652028502F
:103FD000454E5F4348290D0A00562F76203A20446B
:103FE000756D70206D617070696E672073616D70A2
:103FF0006C65732028636F726E657273202B20636B
:10400000656E746572290D0A00482F68203A2048B1
:104010006F6D652061726D202870656E2F6572610D
:104020007365722075702C206D696420616E676CF9
:104030006573290D0A0053657474696E67204348DF
:104040003820746F20353025202874657374290D4D
:104050000A0044756D70696E67206D617070696EDD
:10406000672073616D706C65732E2E2E0D0A000D26
:104070000A45786974696E67205752495445206D26
:104080006F64652E0D0A000D0A5772697465206D04
:104090006F64652063616E63656C6564206279207E
:1040A000627574746F6E2E0D0A000D0A456E74658C
:1040B00072696E67205752495445206D6F64652EB2
:1040C00020507265737320627574746F6E2061671F
:1040D00061696E20746F20657869742E0D0A005531
:1040E0006E6B6E6F776E20636F6D6D616E642E20E8
:1040F0005072657373204D20666F72206D656E750A
:104100002E0D0A00504341393638352054657374FA
:104110003A0D0A0057726974696E672041726D200A
:104120004D656E753A0D0A004572726F723A2050F5
:10413000434139363835206E6F7420726573706F65
:104140006E64696E67206F6E204932430D0A00412C
:104150002F61203A20537765657020626173652076
:104160006368616E6E656C20666F72776172640D54
:104170000A00572F77203A205377656570207065C5
:104180006E206368616E6E656C20666F7277617217
:10419000640D0A00442F64203A205377656570202F
:1041A00062617365206368616E6E656C207265760E
:1041B000657273650D0A00532F73203A205377659B
:1041C00065702070656E206368616E6E656C20722C
:1041D0006576657273650D0A00502F70203A205085
:1041E00072696E742063757272656E7420424153F9
:1041F000452F41524D2F50454E20616E676C6573BF
:104200000D0A004D2F6D203A2053686F7720746897
:104210006973206D656E750D0A004572726F723A92
:1042200020493243206E6F742072656164790D0AF3
:10423000000D0A4177616974696E6720636F6D6D67
:10424000616E643E200057726974653E2000416EC5
:10425000676C65733A20424153453D002041524D01
:104260003D002050454E3D00303132333435363735
:104270003839414243444546005761726E696E6762
:104280003A2050434139363835204D4F4445313D71
:104290003078004D4F4445323D3078005052455300
:1042A00043414C453D307800434838204F46462036
:1042B000726561643D307800434838204F4E20726B
:1042C0006561643D307800202D3E205859286D6D81
:1042D000292000202D3E20464B205859286D6D295D
:1042E000200053616D706C653A206772696420002C
:1042F000202D3E20677269642000202D3E20494B0E
:1043000020616E676C657320002C00002C43000058
:104310000000002030000000E80200005C430000C4
:1043200030000020880400000803000040787D0170
:104330005A0000005A00000032000000B4000000E3
:10434000400000005A00000001000000C409C40938
:0C43500060096009F401F40158025802F1
:040000050000026D88
:00000001FF
