:020000040000FA
:10000000A00400206D0200007102000073020000D5
:100010007502000077020000790200000000000075
:100020000000000000000000000000007B02000053
:100030007D020000000000007F020000810200003D
:10004000830200008302000083020000830200009C
:10005000830200008302000083020000830200008C
:10006000830200008302000083020000830200007C
:10007000830200008302000083020000830200006C
:10008000830200008302000083020000830200005C
:10009000830200008302000083020000830200004C
:1000A000830200008302000083020000830200003C
:1000B0008302000083020000A90500008302000003
:1000C000830200008302000083020000830200001C
:1000D000830200008302000083020000830200000C
:1000E00083020000830200008302000083020000FC
:1000F00083020000830200008302000083020000EC
:1001000083020000830200008302000083020000DB
:1001100083020000830200008302000083020000CB
:1001200083020000830200008302000083020000BB
:1001300083020000830200008302000083020000AB
:1001400000000000000000000000000000000000AF
:10015000830200008302000083020000830200008B
:10016000000000000000000000000000000000008F
:10017000000000000000000000000000000000007F
:10018000000000000000000000000000000000006F
:10019000000000000000000000000000000000005F
:1001A000000000000000000000000000000000004F
:1001B000830200008302000083020000830200002B
:1001C000830200008302000083020000830200001B
:1001D000830200008302000083020000830200000B
:1001E00083020000830200008302000083020000FB
:1001F00083020000830200008302000083020000EB
:10020000830200008302000083020000000000005F
:1002100083020000830200008302000083020000CA
:1002200083020000830200008302000083020000BA
:1002300083020000830200008302000083020000AA
:10024000830200008302000083020000830200009A
:10025000830200008302000083020000830200008A
:1002600083020000830200008302000000F00AB84D
:10027000FEE7FEE7FEE7FEE7FEE7FEE7FEE7FEE756
:10028000FEE7FEE700F002F800F050F814A696E84A
:10029000000CB244B344DA4501D100F047F8BAE8A3
:1002A0000F000FA696E83000A5EB040504EB060747
:1002B000AAEB0704A7F101074FEA15154FEA34141A
:1002C000A4F10104AC4201D300F030F813F0010FA7
:1002D00018BFFB1A43F0010300F001F8DBE71847F1
:1002E0000C2300002C230000103A24BF78C878C1EA
:1002F000FAD8520724BF30C830C144BF04680C602C
:1003000070470000704700000023002400250026ED
:10031000103A28BF78C1FBD8520728BF30C148BF68
:100320000B6070471FB51FBD10B510BD00F029F858
:100330001146FFF7F7FF00F0CBFF00F047F803B4DA
:10034000FFF7F2FF03BC00F04FF8000072B67047F1
:1003500062B67047EFF3108072B6704780F3108872
:10036000704730BF704702480249014A024B70474C
:10037000A0000020A0040020A000002070477047CB
:100380007047754600F02CF8AE46050069465346A6
:1003900020F00700854618B020B5FFF7E4FFBDE860
:1003A00020404FF000064FF000074FF000084FF0DC
:1003B000000BAC46ACE8C009ACE8C009ACE8C00929
:1003C000ACE8C00921F007018D46704710B504461E
:1003D000AFF300802046BDE81040FFF7B0BF00003B
:1003E000004870473000002001491820ABBEFEE7EE
:1003F000260002007047000081B040F29400C2F273
:100400000000007820B9FFE700208DF803001FE00E
:1004100040F29000C2F20000006840F29801C2F27F
:1004200000010968401A32280ED3FFE745F2FC307C
:10043000C4F202000068C006002804D4FFE70120CF
:100440008DF8030004E0FFE700208DF80300FFE7CC
:100450009DF8030001B0704740F29401C2F2000120
:10046000002008707047000081B04EF20861C4F2AD
:100470000F01086840F02000086000200090FFE7AE
:100480000098632805DCFFE7FFE700980130009043
:10049000F6E745F20041C4F20201086840F00E00A0
:1004A0000860086820F01000086045F21C51C4F292
:1004B0000201086840F01E00086045F2FC31C4F2F9
:1004C0000201086820F00E00086045F21051C4F2E5
:1004D0000201086840F01000086045F20441C4F2CF
:1004E0000201086820F01000086045F20841C4F2DB
:1004F0000201086820F01000086045F20C41C4F2C7
:100500000201086820F01000086045F21C41C4F2A6
:1005100002011020086045F21041C4F2020108688F
:1005200040F0100008604EF20011CEF200014FF0D2
:100530008040086001B0704781B08DF803008DF8ED
:1005400002108DF8012000208DF800009DF80300B6
:1005500038B1FFE79DF8000040F002008DF8000080
:10056000FFE79DF8010038B1FFE79DF8000040F07B
:1005700004008DF80000FFE79DF8020038B1FFE7A6
:100580009DF8000040F008008DF80000FFE745F2FC
:10059000FC31C4F2020108689DF80020520862F3A1
:1005A0004300086001B0704745F21C41C4F20201EB
:1005B0001020086040F29000C2F20000006840F293
:1005C0009801C2F20001086040F29401C2F20001F9
:1005D0000120087070470000FFE74EF22061C4F26E
:1005E0000F01086840F002000860FFE7FFE74EF2E5
:1005F0000861C4F20F01086840F001000860FFE7DD
:10060000FFE74EF62020C4F20F00006880070028A4
:1006100001D4FFE7F5E7FFE74EF60820C4F20F002C
:100620000068C00708B9FFE7F6E744F21C51C4F2BE
:100630000001086840F0C000086044F21051C4F2A4
:100640000001086840F0C000086044F22041C4F294
:100650000001086840F0C000086044F22C51C4F268
:1006600000010868332262F31F60086044F20C51F5
:10067000C4F20001086840F08000086044F228518C
:10068000C4F20001086820F0C000086044F2004194
:10069000C4F20001086840F040000860086820F0DB
:1006A00080000860FFE741F22001C4F2020110203F
:1006B0000860FFE741F20C01C4F202010720086064
:1006C0007047000081B08DF802008DF80110FFE73F
:1006D00041F20400C4F202000068C00708B1FFE75D
:1006E000F6E79DF80200400041F20001C4F2020169
:1006F00008609DF8010041F20801C4F2020108609F
:1007000041F20401C4F2020103200860FFE741F254
:100710000400C4F202000068C00708B1FFE7F6E772
:1007200041F20400C4F20200006800F09E008DF85F
:1007300000009DF80000A0B1FFE741F20401C4F2FF
:10074000020104200860FFE741F20400C4F2020045
:100750000068C00708B1FFE7F6E700208DF8030046
:1007600057E09DF802004000013041F20001C4F260
:100770000201086041F20401C4F20201072008608E
:10078000FFE741F20400C4F202000068C00708B1AC
:10079000FFE7F6E741F20400C4F20200006800F04F
:1007A0009E008DF800009DF80000F8B1FFE741F2CF
:1007B0000401C4F2020104200860FFE741F20400D2
:1007C000C4F202000068C00708B1FFE7F6E7FFE7E0
:1007D00041F20400C4F2020000684006002801D57E
:1007E000FFE7F5E700208DF8030012E0FFE741F294
:1007F0000400C4F2020000684006002801D5FFE7AB
:10080000F5E741F20800C4F2020000688DF8030029
:10081000FFE79DF8030001B07047000082B08DF83B
:1008200006008DF805108DF80420FFE741F2040062
:10083000C4F202000068C00708B1FFE7F6E79DF8C0
:100840000600400041F20001C4F2020108609DF878
:10085000050041F20801C4F20201086041F20401FE
:10086000C4F2020103200860FFE741F20400C4F271
:1008700002000068C00708B1FFE7F6E741F2040094
:10088000C4F20200006800F09E008DF803009DF89D
:100890000300A8B1FFE741F20401C4F20201042001
:1008A0000860FFE741F20400C4F202000068C007DC
:1008B00008B1FFE7F6E79DF803008DF807002BE08D
:1008C0009DF8040041F20801C4F20201086041F2FF
:1008D0000401C4F2020105200860FFE741F20400B0
:1008E000C4F202000068C00708B1FFE7F6E7FFE7BF
:1008F00041F20400C4F2020000684006002801D55D
:10090000FFE7F5E741F20400C4F20200006800F0DE
:100910009E008DF80700FFE79DF8070002B07047C2
:1009200080B582B08DF807009DF8070000F01CF834
:100930009DF807000121042200F048FA9DF8070005
:100940000021212200F042FA40F20000C2F2000031
:10095000006800F031FA9DF807000021C4F2482138
:1009600000F06AF802B080BD80B582B08DF8070053
:100970009DF807000021802200F028FA4AF220109A
:10098000C0F2070000F09AFA02B080BD80B582B0D4
:100990008DF807008DF80610ADF804209DF80700CB
:1009A0009DF80610BDF8042000F022FA02B080BDC8
:1009B00010B586B08DF817008DF81610ADF814201C
:1009C000ADF81230BDF814006FF31F30ADF814000D
:1009D000BDF812006FF31F30ADF81200BDF814001F
:1009E0008DF80E009DF8150000F00F008DF80F0037
:1009F000BDF812008DF810009DF8130000F00F00F4
:100A00008DF811009DF817009DF81620062101EBC6
:100A100082019DF80E209DF80F309DF810C09DF8C2
:100A20001140EE46CEF80440CEF800C0C9B201F045
:100A300067F8002006B010BD80B586B08DF81700AD
:100A4000049104984FF07E5101F00BF920B9FFE7B3
:100A50004FF07E500490FFE704984CF20001C4F27E
:100A60005A5101F005F930B9FFE74CF20000C4F229
:100A70005A500490FFE740F20000C2F20000006804
:100A800001F03AFA019004984FF08B4101F0B0FA6E
:100A90000146019801F006F94FF07C5101F06AF827
:100AA0000021CBF6807101F065F8039003980021D6
:100AB000C4F2400101F0D5F828B9FFE70020C4F2E4
:100AC00040000390FFE703980021C4F27F3101F05A
:100AD000CFF828B9FFE70020C4F27F300390FFE78A
:100AE000039801F0D5F98DF80B009DF8170000214F
:100AF000009100F047F900998DF80A009DF80A006E
:100B000000F06F0010308DF809009DF817009DF877
:100B1000092000F05BF99DF817009DF80B20FE21DD
:100B200000F054F900999DF817009DF80A2000F094
:100B30004DF94DF29000C0F2030000F0BFF90099AA
:100B40009DF817009DF80A2042F0A00200F03EF93F
:100B5000049801F09DF940F21001C2F200010880F2
:100B600006B080BD80B582B08DF807008DF8061004
:100B7000ADF804208DF80330BDF80400B0F5805FB7
:100B800005DBFFE740F6FF70ADF80400FFE79DF8D6
:100B9000030078B3FFE7BDF8040050B9FFE79DF804
:100BA00007009DF806104FF480520023FFF700FF66
:100BB0001FE0BDF8040040F6FF7188420AD1FFE74C
:100BC0009DF807009DF8061000224FF48053FFF7B0
:100BD000EFFE0DE09DF807009DF80610BDF804300B
:100BE00040F6FF72D21A93B20022FFF7E1FEFFE750
:100BF000FFE72AE0BDF8040040F6FF7188420AD101
:100C0000FFE79DF807009DF806104FF4805200237F
:100C1000FFF7CEFE18E0BDF8040050B9FFE79DF8DD
:100C200007009DF8061000224FF48053FFF7C0FE26
:100C300009E09DF807009DF80610BDF80430002279
:100C4000FFF7B6FEFFE7FFE7FFE702B080BD000059
:100C500080B584B0844606988DF80FC08DF80E10CC
:100C6000ADF80C20ADF80A30ADF80800BDF90C0065
:100C7000B0F1FF3F04DCFFE70020ADF80C00FFE718
:100C8000BDF90C00B52804DBFFE7B420ADF80C007B
:100C9000FFE7BDF80A00B0F5C87F05DAFFE74FF4BB
:100CA000C870ADF80A00FFE7BDF8080040F6B9319A
:100CB000884205DBFFE740F6B830ADF80800FFE7F3
:100CC000BDF80800BDF80A10884206DCFFE7BDF851
:100CD0000A000130ADF80800FFE7BDF80800BDF8D4
:100CE0000A10401A0190BDF80A00BDF90C10019AD3
:100CF0005143890846F61742C1F2C162A1FB0221A5
:100D000000EB910000909DF80F009DF80E10BDF8CB
:100D10000020FFF73BFE04B080BD000080B582B02C
:100D20008DF807008DF806108DF805209DF8061047
:100D3000062000EB81008DF804009DF8050030B11D
:100D4000FFE79DF8040002308DF80400FFE79DF8EE
:100D500007009DF804100131C9B200F013F88DF8B6
:100D600003009DF807009DF8041000F00BF88DF8C3
:100D700002009DF802009DF8031040EA012002B035
:100D800080BD000080B582B08DF807008DF8061098
:100D90009DF807009DF80610FFF794FC02B080BD97
:100DA00080B582B08DF807009DF80700FE21FFF79F
:100DB000E9FF02B080BD000081B00090009840F2D1
:100DC0000001C2F20001086001B0704780B582B036
:100DD0008DF807008DF806108DF805209DF80700A6
:100DE0009DF806109DF80520FFF718FD02B080BDA4
:100DF00080B586B08DF817008DF81610ADF8142068
:100E00009DF81700FFF7CCFF8DF8130042F2004069
:100E1000C4F6741003909DF81300013001F054F8EB
:100E20000146039801F0E4F8039040F20000C2F29A
:100E30000000006801F060F80146039800F032FFFE
:100E40000390BDF8140001F057F8039900F02AFF51
:100E500002900298002100F004FF18B9FFE700207B
:100E60000290FFE702984FF20001C4F27F5100F0B8
:100E7000FFFE30B9FFE74FF20000C4F27F5002904E
:100E8000FFE79DF8170001909DF81600009002986A
:100E90004FF07C5100F06EFE00F0FAFF009903461F
:100EA00001980022FFF784FD06B080BD4EF21001CC
:100EB000CEF20001042008607047000081B000906D
:100EC000009801384EF21401CEF2000108604EF293
:100ED0001801CEF20001002008604EF21001CEF29F
:100EE0000001086840F001000860FFE74EF21000C2
:100EF000CEF200000068C003002801D4FFE7F5E748
:100F00004EF21001CEF20001086820F001000860E6
:100F100001B07047FFE74CF21800C4F2000000680F
:100F2000C006002801D5FFE7F5E74CF20000C4F247
:100F300000000068C0B270474EF20411C4F20F0105
:100F4000086840F0010008604EF20811C4F20F0179
:100F5000086840F0010008604CF23001C4F2000162
:100F6000086820F0010008604CF22400C4F2000080
:100F7000112202604CF22803C4F20003172018600B
:100F80004CF22C03C4F2000370201860086840F291
:100F900001331843086044F22041C4F2000108689C
:100FA00040F00300086044F21C51C4F200010868DC
:100FB00040F00300086044F22C51C4F200010868BC
:100FC00062F30700086044F22851C4F20001086887
:100FD00020F003000860704780B50D2000F004F891
:100FE0000A2000F001F880BD81B08DF80300FFE712
:100FF0004CF21800C4F2000000688006002801D5F9
:10100000FFE7F5E79DF803004CF20001C4F2000190
:10101000086001B07047000080B582B00190FFE722
:101020000198007840B1FFE701980078FFF7DCFFF6
:10103000019801300190F3E702B080BD80B588B01F
:101040008DF81F0006919DF91F0061280BDBFFE75B
:101050009DF91F007A2806DCFFE79DF81F00203865
:101060008DF81F00FFE79DF91F00412805DBFFE712
:101070009DF91F005B2806DBFFE70698053003217A
:1010800000F05CFC48E09DF91F0000EB800042F29C
:101090007221C0F200010844A0F245100590002022
:1010A0000490FFE70498042830DCFFE705980499D2
:1010B000405C8DF80F0006980499084402900020C7
:1010C0000190FFE7019806281BDCFFE79DF80F0061
:1010D0000199C840C00778B1FFE70298019900F074
:1010E0002DFC00F093F8502000F0E2F800F098F8A2
:1010F0001E2000F0DDF8FFE7FFE7019801300190C6
:10110000E0E7FFE7049801300490CBE7069806304B
:10111000032100F013FCFFE708B080BD80B584B068
:101120000390029102980190FFE70399002000903C
:1011300041B1FFE7039890F90000002818BF012093
:101140000090FFE70098C00768B1FFE7039890F9A7
:1011500000000199FFF772FF019806300190039893
:1011600001300390E1E704B080BD000080B50320AA
:10117000002100F05FF84FF4967000F099F880BD00
:1011800080B582B000F04CF8FFF7F0FF00205A2144
:10119000019100F04FF80199012000F04BF84FF455
:1011A000FA7000F085F802B080BD000080B582B012
:1011B0008DF807009DF8070040F21801C2F2000107
:1011C00000910870FFF772FEFFF706FA00980078AA
:1011D000FFF7A6FB009800780021C4F24821FFF732
:1011E0002BFC02B080BD000080B582B0ADF80600D7
:1011F000ADF80410BDF90610002000F01BF8BDF991
:101200000410012000F016F802B080BD80B5022065
:101210005A2100F00FF84FF4967000F049F880BDA5
:1012200080B50220002100F005F84FF4967000F020
:101230003FF880BD80B586B08DF81700ADF814106A
:101240009DF81700032804DCFFE79DF817000290C3
:1012500002E000200290FFE702988DF813009DF84D
:10126000131040F22200C2F2000030F81100ADF875
:1012700010009DF8131040F21A00C2F2000030F87E
:101280001100ADF80E0040F21800C2F20000007824
:101290009DF81710BDF91420BDF81030BDF80EC030
:1012A000EE46CEF800C0FFF7D3FC06B080BD0000CC
:1012B00080B582B00190FFE70198411E019128B1ED
:1012C000FFE74CF25030FFF7F9FDF5E702B080BDC3
:1012D00080B5B2B000200A903190FFF72DFEFFF7E5
:1012E000C3F80A9A10461146FFF726F94020FFF787
:1012F0005DFF4EF62020C4F20F0000688007002832
:1013000007D4FFE742F25750C0F20000FFF784FE17
:10131000FFE740200021FFF7D5F98DF8C2009DF8C6
:10132000C20038B9FFE742F28F40C0F20000FFF779
:1013300073FE2FE09DF8C20000F02100212828D084
:10134000FFE742F29C50C0F20000FFF765FE42F258
:101350008B50C0F200002E902E989DF8C210090903
:10136000405C8DF8BF002E989DF8C21001F00F016F
:10137000405C8DF8C00000208DF8C1000DF1BF0069
:10138000FFF74AFE42F26B50C0F20000FFF744FE46
:10139000FFE7FFE7FFF7F4FE40F20801C2F20001A9
:1013A0005A20086040F20401C2F20001086040F2D5
:1013B0001401C2F20001086040F20C01C2F2000107
:1013C0000020086000F058FBFFE7FFF715F898B31E
:1013D000FFE7FFF741F840F29C00C2F200000178FD
:1013E000B1FA81F1490901700078A0B1FFE701204D
:1013F00000221146FFF7A0F842F21140C0F20000AF
:10140000FFF70AFEFFF7BCFE42F28350C0F2000075
:10141000FFF702FE0FE0002210461146FFF78CF89E
:1014200042F2D630C0F20000FFF7F6FDFFF7A8FE4B
:1014300000F022FBFFE7FFE740F29C00C2F2000051
:101440000078002800F0BA80FFE70020ADF83600F1
:10145000FFE740F29C00C2F200000078002800F094
:10146000AC80FFE7FEF7C8FFB8B1FFE7FEF7F4FF77
:1014700040F29C00C2F200000022027010461146A9
:10148000FFF75AF842F2EE30C0F20000FFF7C4FD59
:10149000FFF776FE00F0F0FA8FE04CF21800C4F28D
:1014A00000000068C006002879D4FFE7FFF732FD8E
:1014B0008DF835009DF835000D2805D0FFE79DF823
:1014C00035000A2831D1FFE7FFF786FDBDF8360069
:1014D00008B3FFE7BDF836200EA907910020099058
:1014E0008854FFF74DFE07980999FFF717FEFFF79D
:1014F00047FE099A012108911046FFF71DF849F2AD
:101500008060C0F29800FFF7D9FC0898099A11464C
:10151000FFF712F8FFE70020ADF8360042F28350E3
:10152000C0F20000FFF778FD38E09DF8350008288C
:1015300005D0FFE79DF835007F2815D1FFE7BDF8FE
:10154000360080B1FFE7BDF836000138ADF836004F
:1015500008200690FFF748FD2020FFF745FD06987C
:10156000FFF742FDFFE718E09DF83500202813DB68
:10157000FFE7BDF836007E280ED8FFE79DF835005E
:10158000BDF83620511CADF836100EA988549DF8D0
:101590003500FFF729FDFFE7FFE7FFE7FFE74DF223
:1015A0009000C0F20300FFF789FC40F29001C2F204
:1015B00000010868053008604BE706E74CF21800A8
:1015C000C4F200000068C006002800F1A981FFE70E
:1015D000FFF7A0FC8DF8C3009DF8C300FFF704FDE2
:1015E000FFF7FAFC9DF8C300413801460591362803
:1015F00000F288810599DFE811F037008501850147
:101600005300850185018501E2008501A900C5001F
:1016100085018201850185018501850185018C0097
:101620000001850185017000850185018501850125
:1016300085018501850185018501370085018501C9
:101640005300850185018501E2008501A900C500DF
:1016500085018201850185018501850185018C0057
:10166000000185018501700040F20400C2F2000013
:101670000168053101600068B52807DBFFE740F22B
:101680000401C2F20001B4200860FFE740F2040048
:10169000C2F20000B0F900100120FFF7CBFD38E1E5
:1016A00040F20400C2F200000168053901600068E0
:1016B000B0F1FF3F07DCFFE740F20401C2F2000196
:1016C00000200860FFE740F20400C2F20000B0F919
:1016D00000100120FFF7AEFD1BE140F20800C2F24E
:1016E00000000168053101600068B52807DBFFE7ED
:1016F00040F20801C2F20001B4200860FFE740F2A6
:101700000800C2F20000B0F900100020FFF792FDBF
:10171000FFE040F20800C2F20000016805390160F4
:101720000068B0F1FF3F07DCFFE740F20801C2F2BA
:10173000000100200860FFE740F20800C2F200004C
:10174000B0F900100020FFF775FDE2E040F2140050
:10175000C2F200000168053101600068B52807DBAE
:10176000FFE740F21401C2F20001B4200860FFE775
:1017700040F21400C2F20000B0F900100220FFF79E
:1017800059FDC6E040F21400C2F2000001680539BC
:1017900001600068B0F1FF3F07DCFFE740F2140191
:1017A000C2F2000100200860FFE740F21400C2F21C
:1017B0000000B0F900100220FFF73CFDA9E0FFF7A0
:1017C000DFFC40F20801C2F200015A20086040F23A
:1017D0000401C2F20001086040F21401C2F20001EB
:1017E000086040F20C00C2F20000002303604020B9
:1017F00008211A46FFF7B6F98BE042F26B40C0F2BF
:101800000000FFF709FC4020019000210091FFF744
:10181000B9FA8DF8340042F2AD50C0F20000FFF783
:10182000FBFB9DF8340000F007F942F26B50C0F268
:1018300000000490FFF7F0FB019801210391FFF7EE
:10184000A1FA8DF8330042F2B650C0F20000FFF763
:10185000E3FB9DF8330000F0EFF80498FFF7DCFBA2
:101860000198FFF79DFA8DF8320042F2BF50C0F2A6
:101870000000FFF7D1FB9DF8320000F0DDF804987E
:10188000FFF7CAFB42F2BA30C0F20000FFF7C4FB18
:10189000009B0198082102914FF40062FFF762F962
:1018A00044F64030C0F24C00FFF708FB009A019864
:1018B0000299FFF733FAADF8300042F2DB50C0F284
:1018C0000000FFF7A9FBBDF8300000F083F8049892
:1018D000FFF7A2FB01980299039AFFF71FFAADF8F0
:1018E0002E0042F2CB50C0F20000FFF795FBBDF88E
:1018F0002E0000F06FF80498FFF78EFB09E000F06F
:10190000BBF806E042F24640C0F20000FFF784FB5D
:10191000FFE742F26E50C0F20000FFF77DFBFFE7E9
:101920004DF29000C0F20300FFF7C8FA40F29001B8
:10193000C2F2000108680530086046E580B584B051
:10194000039002910398B0F1FF3F03DCFFE7002012
:101950000390FFE70298B0F1FF3F03DCFFE70020B0
:101960000290FFE70298072803DBFFE706200290BA
:10197000FFE703983D2803DBFFE73C200390FFE7E8
:101980000398C0EB0011880048F68902C8F6880267
:1019900050FB02F000EB8101481100EBD1703C30AC
:1019A0000190029800EB8000C0004AF6AB21C2F61D
:1019B000AA2150FB01F000EBD07050300090BDF92F
:1019C0000400BDF90010FFF70FFC5020FFF770FC7A
:1019D00004B080BD80B584B0ADF80E0042F28B50EB
:1019E000C0F2000001900198BDF80E10090B405C98
:1019F0008DF8090001989DF80F1001F00F01405C6F
:101A00008DF80A000198BDF80E10C1F30311405C77
:101A10008DF80B000198BDF80E1001F00F01405C2D
:101A20008DF80C0000208DF80D000DF10900FFF776
:101A3000F3FA04B080BD000080B582B08DF80700D5
:101A400042F28B50C0F20000009000989DF8071001
:101A50000909405C8DF8040000989DF8071001F01A
:101A60000F01405C8DF8050000208DF8060001A8EC
:101A7000FFF7D2FA02B080BD80B542F27B40C0F2DF
:101A80000000FFF7C9FA42F2B640C0F20000FFF7CB
:101A9000C3FA42F2FB40C0F20000FFF7BDFA42F287
:101AA000D940C0F20000FFF7B7FA42F21E50C0F270
:101AB0000000FFF7B1FA42F23730C0F20000FFF742
:101AC000ABFA42F26230C0F20000FFF7A5FA42F230
:101AD0008D30C0F20000FFF79FFA42F24050C0F292
:101AE0000000FFF799FA42F2F420C0F20000FFF77D
:101AF00093FA42F26E50C0F20000FFF78DFA80BDFB
:101B000010B582B08C468646059804998DF807E09A
:101B10008DF806C08DF805208DF804308DF803107F
:101B20008DF802009DF807009DF806109DF805202D
:101B3000FEF774FE9DF807009DF8061001319DF830
:101B40000420C9B2FEF76AFE9DF807009DF8061052
:101B500002319DF80320C9B2FEF760FE9DF8070030
:101B60009DF8061003319DF80220C9B2FEF756FE1B
:101B700002B010BD90EA010F48BF81F0004100F1B2
:101B80000A83421A3CBF801A89184FEAD052A2EB4E
:101B9000D1534FF07F4C1CEA410F18BF9CEA026FF3
:101BA00000F03B804FF0004C4CEA00204CEA012151
:101BB00021FA03FC10EB0C0C1ED202F1FF325FEA9B
:101BC0001C2040EBC25038BF70471CF07F0F4FEA1B
:101BD000400C18BFBCF17F4F38BF7047C3F12003E2
:101BE000994008BF20F00100BCF17F4F38BF70471B
:101BF000A0F1C04000F0C3BA4FEA3C00000A40EB3D
:101C0000C25028BF1CF0FF0F4FEA400CE6D018BFAF
:101C1000BCF17F4F38BF7047EAE79CEA026F05D0FE
:101C200010EA5C0F08BF00F00040704710B500F0EC
:101C300060FA00BF64FBBE3E10B500F0F5F80CBFC3
:101C40000120002010BD10B500F0EEF814BF0120F7
:101C5000002010BD10B500F063F98CBF01200020FA
:101C600010BD10B500F05CF92CBF0120002010BDA4
:101C700010B500F089F994BF0120002010BD10B507
:101C800000F082F934BF0120002010BD401058BF81
:101C9000C0F14040491058BFC1F140418142EFF3CB
:101CA000008070474FF47F0C1CEAD0121EBF1CEA64
:101CB000D11392EA0C0F93EA0C0F00F0858090EAA2
:101CC000010F48BF42F4807240F4000C41F4000060
:101CD0002CF07F4120F07F4000B5A2EB030281424F
:101CE0000FF2081CACEB504E9EF800E0C0F1000073
:101CF0004FEA4E0E00FB0EFC38BF49004FEA2C1C89
:101D00000CFB0EF34FEACE1E0EEB635E4FEA112C76
:101D10000EFB0CFC4FEAC1214FEA1C5300FB0311E0
:101D200002F5FA024FEA112C0EFB0CFC4FEA0131CE
:101D30004FEADC4C00FB0C1142EB2242C14228BFAF
:101D400009184CEB03335DF804EB10EB410143EB56
:101D5000C250B2F57C0F38BF704729D512F0F00F92
:101D60001CBF00F1C04000F000407047008182833A
:101D70008485868788898B8C8D8E8F91929395969A
:101D800097999A9C9D9FA0A2A3A5A7A8AAACAEB024
:101D9000B2B3B5B7B9BCBEC0C2C5C7C9CCCED1D429
:101DA000D7D9DCDFE2E6E9ECF0F3F7FAFE00000059
:101DB0004FEA400C0CF1807CBCF17E4F28BF70478D
:101DC000B0F1C04000F0DBB90CEAD11390EA010F8A
:101DD00048BF42F48072624538BF634507D213F4AE
:101DE0007F0F16D080EA010000F00040704710B568
:101DF00000F07FF9097EFC3E00F005B880EA0100A2
:101E000000F00040704780EA010000F0004000F060
:101E1000B6B912F47F0F04BF0248704780EA010090
:101E200000F0ADB90000C07F50EA010C00F1138052
:101E30001CF5000F58BFBCF5000F01D48842704755
:101E400007D710F5000F58BF11F5000F15D48842C1
:101E50007047894270471CF5000F04D5BCF5000F90
:101E6000F7D5814270474FF0807C1CEB400F38BFA4
:101E70001CEB410F01D28142704710B500F039F9D7
:101E8000922449004FF000504FF08051FFF7FEBE02
:101E900041000B0ED3F19E0208D950F400034FEA23
:101EA000032323FA02F048BF4042704710B500F008
:101EB00020F900BF49922480002070476FF0004253
:101EC00082EA20007047000010F0004148BF404205
:101ED000B0FA80F310FA03F2C3F19D030BD051EA7C
:101EE000C35101EB1220530638BF704700F10100C7
:101EF00008BF20F001007047B0FA80F310FA03F237
:101F0000C3F19D030AD0D90501EB1220530638BF57
:101F1000704700F1010008BF20F001007047000089
:101F200050EA010C00F113801CF5000F58BFBCF5FE
:101F3000000F01D48842704707D710F5000F58BF33
:101F400011F5000F15D488427047894270471CF57F
:101F5000000F04D5BCF5000FF7D5814270474FF054
:101F6000807C1CEB400F38BF1CEB410F01D281423B
:101F7000704710B500F0BDF8922449004FF0805032
:101F80004FF00051FFF782BE50EA010C00F11380C0
:101F90001CF5000F58BFBCF5000F01D488427047F4
:101FA00007D710F5000F58BF11F5000F15D4884260
:101FB0007047894270471CF5000F04D5BCF5000F2F
:101FC000F7D5814270474FF0807C1CEB400F38BF43
:101FD0001CEB410F01D28142704710B500F089F827
:101FE000922449004FF000504FF08051FFF74EBE51
:101FF0004FF47F0C1CEAD0121EBF1CEAD11392EAE8
:102000000C0F93EA0C0F00F0478090EA010F48BFD5
:1020100042F480724FF0004C4CEA00204CEA01215F
:1020200002EB0302A0FB0113A2F50002002918BF76
:1020300043F001035B0028BF4FEA330342EB224227
:102040005FEA132C4CEBC2502EBFBCEB436FB2F5D2
:102050007C0F70474FEA036CBCF1004F08BF20F0C3
:102060000100B2F57C0F38BF70470BD582F0FF023C
:1020700012F5803FC8BF704700F1C040D8BF00F0E4
:102080000040704700F5000C5FEA4C0C48BF7047F9
:10209000B0F1C04000F073B80CEAD11390EA010F20
:1020A00048BF42F48072624538BF634504D280EA7B
:1020B000010000F00040704710B500F01AF800BFB2
:1020C0008900013E00F007B800F009B85FEA410C52
:1020D0005FEA1C6C08D080EA010000F050B85FEAAB
:1020E000400C5FEA1C6CF6D14FF00040A0F5800078
:1020F00070470EF1020E2EF0030E5EF8044B2442E0
:1021000004D44FEA4102B2F17F4F11D84FEA4003A5
:10211000B3F17F4F0CD80ED14FEAD07C0CEB4C0CB6
:102120000CF1020CB2F17F4F08BF4CEBD17C04E004
:102130004FF0080C01E04FEAD17C0CEB4C0324FA81
:1021400003F404F00704B4F1040C06D20EEB840C83
:10215000BDE810404CF0010C6047DFE80CF00708C8
:1021600002024FF00040A0F5800010BD084642007A
:1021700018BFD2F1807288BF00F0004010BDFF216F
:1021800041EAD050C005704790EA010F48BF81F086
:1021900000413FF5F6AC421A04D882F00042A0EBB1
:1021A000020011444FEAD052A2EBD1534FF07F4CC2
:1021B0001CEA410F18BF9CEA026F4AD04FF0004C56
:1021C0004CEA00204CEA012121FA03FCB0EB0C0C94
:1021D0000FD412F0FE0F36D05FEA4C001DD500126E
:1021E00040EBC25038BF70471CF03F0F18BF70471C
:1021F0000BE05FEA1C20A2F1010240EBC25038BFA5
:1022000070471CF07F0F18BF7047C3F1200399403F
:1022100014BF401E20F0010070474FEA12238008CF
:1022200008BF7047B0FA80FCA2EB0C02CCF1280C7E
:1022300060FA0CF093EA122F04BF00EBC250704713
:102240004FEAC3707047130A5FEADC1008BF70479B
:10225000F6E79CEA026F04D010EA5C0F08BF00208A
:10226000704710B5FFF745FF40DFF63E81F00040B4
:1022700070470E111F11111E111E111E0E1110118B
:102280000E1E1111111E1F101E101F1F101E1010E8
:102290000E1017110E11111F11110E0404040E0758
:1022A0000202120C11121C1211101010101F111B1F
:1022B00015111111191513110E1111110E1E111EE8
:1022C00010100E11110E031E111E12110F100E010F
:1022D0001E1F04040404111111110E11110A0A0425
:1022E0001111151B11110A040A11110A0404041F0B
:1022F0000204081F542F74203A20504341393638C5
:102300003520726567697374657220746573742013
:10231000287072696E7473204D4F4445312F5052AE
:10232000455343414C452C20746F67676C6573209F
:10233000434838290D0A004A2F6A203A205377650E
:1023400065702070656E206368616E6E656C2066D6
:102350006F7277617264202850454E5F4348290DA3
:102360000A004B2F6B203A2053776565702070650B
:102370006E206368616E6E656C207265766572733F
:1023800065202850454E5F4348290D0A00482F68B4
:10239000203A20486F6D652061726D202870656E4F
:1023A0002F6572617365722075702C206D696420D1
:1023B000616E676C6573290D0A0053657474696EEC
:1023C000672043483820746F2035302520287465F5
:1023D0007374290D0A000D0A45786974696E6720C7
:1023E0005752495445206D6F64652E0D0A000D0A41
:1023F0005772697465206D6F64652063616E6365F3
:102400006C656420627920627574746F6E2E0D0A9B
:10241000000D0A456E746572696E67205752495403
:1024200045206D6F64652E20507265737320627550
:1024300074746F6E20616761696E20746F206578B7
:1024400069742E0D0A00556E6B6E6F776E20636F88
:102450006D6D616E642E205072657373204D206621
:102460006F72206D656E752E0D0A0050434139362E
:10247000383520546573743A0D0A005772697469CF
:102480006E672041726D204D656E753A0D0A0045EC
:1024900072726F723A2050434139363835206E6F70
:1024A0007420726573706F6E64696E67206F6E2042
:1024B0004932430D0A00412F61203A205377656568
:1024C000702062617365206368616E6E656C206662
:1024D0006F72776172640D0A00572F77203A20538C
:1024E000776565702070656E206368616E6E656CDF
:1024F00020666F72776172640D0A00442F64203A7F
:102500002053776565702062617365206368616E32
:102510006E656C20726576657273650D0A00532FC7
:1025200073203A2053776565702070656E2063686C
:10253000616E6E656C20726576657273650D0A005A
:102540004D2F6D203A2053686F772074686973208F
:102550006D656E750D0A004572726F723A204932D0
:1025600043206E6F742072656164790D0A000D0A54
:102570004177616974696E6720636F6D6D616E6428
:102580003E200057726974653E200030313233348A
:102590003536373839414243444546005761726EFB
:1025A000696E673A2050434139363835204D4F44E3
:1025B00045313D3078004D4F4445323D3078005034
:1025C00052455343414C453D307800434838204FF5
:1025D000464620726561643D307800434838204F9C
:1025E0004E20726561643D30780000000C260000CA
:1025F000000000202C000000E80200003826000047
:1026000030000020700400000803000040787D01C5
:102610005A0000005A0000005A000000320000007A
:102620005A0000004000C409C40960096009F401AF
:08263000F401580258020000F9
:040000050000026D88
:00000001FF
