:020000040000FA
:10000000900400206D0200007102000073020000E5
:100010007502000077020000790200000000000075
:100020000000000000000000000000007B02000053
:100030007D020000000000007F020000810200003D
:10004000830200008302000083020000830200009C
:10005000830200008302000083020000830200008C
:10006000830200008302000083020000830200007C
:10007000830200008302000083020000830200006C
:10008000830200008302000083020000830200005C
:10009000830200008302000083020000830200004C
:1000A000830200008302000083020000830200003C
:1000B000830200008302000083020000830200002C
:1000C000830200008302000083020000830200001C
:1000D000830200008302000083020000830200000C
:1000E00083020000830200008302000083020000FC
:1000F00083020000830200008302000083020000EC
:1001000083020000830200008302000083020000DB
:1001100083020000830200008302000083020000CB
:1001200083020000830200008302000083020000BB
:1001300083020000830200008302000083020000AB
:1001400000000000000000000000000000000000AF
:10015000830200008302000083020000830200008B
:10016000000000000000000000000000000000008F
:10017000000000000000000000000000000000007F
:10018000000000000000000000000000000000006F
:10019000000000000000000000000000000000005F
:1001A000000000000000000000000000000000004F
:1001B000830200008302000083020000830200002B
:1001C000830200008302000083020000830200001B
:1001D000830200008302000083020000830200000B
:1001E00083020000830200008302000083020000FB
:1001F00083020000830200008302000083020000EB
:10020000830200008302000083020000000000005F
:1002100083020000830200008302000083020000CA
:1002200083020000830200008302000083020000BA
:1002300083020000830200008302000083020000AA
:10024000830200008302000083020000830200009A
:10025000830200008302000083020000830200008A
:1002600083020000830200008302000000F00AB84D
:10027000FEE7FEE7FEE7FEE7FEE7FEE7FEE7FEE756
:10028000FEE7FEE700F002F800F050F814A696E84A
:10029000000CB244B344DA4501D100F047F8BAE8A3
:1002A0000F000FA696E83000A5EB040504EB060747
:1002B000AAEB0704A7F101074FEA15154FEA34141A
:1002C000A4F10104AC4201D300F030F813F0010FA7
:1002D00018BFFB1A43F0010300F001F8DBE71847F1
:1002E000C41B0000E41B0000103A24BF78C878C18A
:1002F000FAD8520724BF30C830C144BF04680C602C
:1003000070470000704700000023002400250026ED
:10031000103A28BF78C1FBD8520728BF30C148BF68
:100320000B6070471FB51FBD10B510BD00F029F858
:100330001146FFF7F7FF00F027FE00F047F803B47F
:10034000FFF7F2FF03BC00F04FF8000072B67047F1
:1003500062B67047EFF3108072B6704780F3108872
:10036000704730BF704702480249014A024B70474C
:1003700090000020900400209000002070477047FB
:100380007047754600F02CF8AE46050069465346A6
:1003900020F00700854618B020B5FFF7E4FFBDE860
:1003A00020404FF000064FF000074FF000084FF0DC
:1003B000000BAC46ACE8C009ACE8C009ACE8C00929
:1003C000ACE8C00921F007018D46704710B504461E
:1003D000AFF300802046BDE81040FFF7B0BF00003B
:1003E000004870473000002001491820ABBEFEE7EE
:1003F0002600020070470000FFE74EF22061C4F2C1
:100400000F01086840F002000860FFE7FFE74EF2C6
:100410000861C4F20F01086840F001000860FFE7BE
:10042000FFE74EF62020C4F20F0000688007002886
:1004300001D4FFE7F5E7FFE74EF60820C4F20F000E
:100440000068C00708B9FFE7F6E744F21C51C4F2A0
:100450000001086840F0C000086044F21051C4F286
:100460000001086840F0C000086044F22041C4F276
:100470000001086840F0C000086044F22C51C4F24A
:1004800000010868332262F31F60086044F20C51D7
:10049000C4F20001086840F08000086044F228516E
:1004A000C4F20001086820F0C000086044F2004176
:1004B000C4F20001086840F040000860086820F0BD
:1004C00080000860FFE741F22001C4F20201102021
:1004D0000860FFE741F20C01C4F202010720086046
:1004E0007047000081B08DF802008DF80110FFE721
:1004F00041F20400C4F202000068C00708B1FFE73F
:10050000F6E79DF80200400041F20001C4F202014A
:1005100008609DF8010041F20801C4F20201086080
:1005200041F20401C4F2020103200860FFE741F236
:100530000400C4F202000068C00708B1FFE7F6E754
:1005400041F20400C4F20200006800F09E008DF841
:1005500000009DF80000A0B1FFE741F20401C4F2E1
:10056000020104200860FFE741F20400C4F2020027
:100570000068C00708B1FFE7F6E700208DF8030028
:1005800057E09DF802004000013041F20001C4F242
:100590000201086041F20401C4F202010720086070
:1005A000FFE741F20400C4F202000068C00708B18E
:1005B000FFE7F6E741F20400C4F20200006800F031
:1005C0009E008DF800009DF80000F8B1FFE741F2B1
:1005D0000401C4F2020104200860FFE741F20400B4
:1005E000C4F202000068C00708B1FFE7F6E7FFE7C2
:1005F00041F20400C4F2020000684006002801D560
:10060000FFE7F5E700208DF8030012E0FFE741F275
:100610000400C4F2020000684006002801D5FFE78C
:10062000F5E741F20800C4F2020000688DF803000B
:10063000FFE79DF8030001B07047000082B08DF81D
:1006400006008DF805108DF80420FFE741F2040044
:10065000C4F202000068C00708B1FFE7F6E79DF8A2
:100660000600400041F20001C4F2020108609DF85A
:10067000050041F20801C4F20201086041F20401E0
:10068000C4F2020103200860FFE741F20400C4F253
:1006900002000068C00708B1FFE7F6E741F2040076
:1006A000C4F20200006800F09E008DF803009DF87F
:1006B0000300A8B1FFE741F20401C4F202010420E3
:1006C0000860FFE741F20400C4F202000068C007BE
:1006D00008B1FFE7F6E79DF803008DF807002BE06F
:1006E0009DF8040041F20801C4F20201086041F2E1
:1006F0000401C4F2020105200860FFE741F2040092
:10070000C4F202000068C00708B1FFE7F6E7FFE7A0
:1007100041F20400C4F2020000684006002801D53E
:10072000FFE7F5E741F20400C4F20200006800F0C0
:100730009E008DF80700FFE79DF8070002B07047A4
:1007400080B582B08DF807009DF8070000F01CF816
:100750009DF807000121042200F048FA9DF80700E7
:100760000021212200F042FA40F20000C2F2000013
:10077000006800F031FA9DF807000021C4F248211A
:1007800000F06AF802B080BD80B582B08DF8070035
:100790009DF807000021802200F028FA4AF220107C
:1007A000C0F2070000F09AFA02B080BD80B582B0B6
:1007B0008DF807008DF80610ADF804209DF80700AD
:1007C0009DF80610BDF8042000F022FA02B080BDAA
:1007D00010B586B08DF817008DF81610ADF81420FE
:1007E000ADF81230BDF814006FF31F30ADF81400EF
:1007F000BDF812006FF31F30ADF81200BDF8140001
:100800008DF80E009DF8150000F00F008DF80F0018
:10081000BDF812008DF810009DF8130000F00F00D5
:100820008DF811009DF817009DF81620062101EBA8
:1008300082019DF80E209DF80F309DF810C09DF8A4
:100840001140EE46CEF80440CEF800C0C9B200F028
:1008500031FE002006B010BD80B586B08DF81700BF
:10086000049104984FF07E5100F0D5FE20B9FFE7C7
:100870004FF07E500490FFE704984CF20001C4F260
:100880005A5100F0CFFE30B9FFE74CF20000C4F23D
:100890005A500490FFE740F20000C2F200000068E6
:1008A00001F004F8019004984FF08B4101F07AF8C0
:1008B0000146019800F0D0FE4FF07C5100F034FE6C
:1008C0000021CBF6807100F02FFE039003980021E9
:1008D000C4F2400100F09FFE28B9FFE70020C4F2F7
:1008E00040000390FFE703980021C4F27F3100F03D
:1008F00099FE28B9FFE70020C4F27F300390FFE79C
:10090000039800F09FFF8DF80B009DF81700002161
:10091000009100F047F900998DF80A009DF80A004F
:1009200000F06F0010308DF809009DF817009DF859
:10093000092000F05BF99DF817009DF80B20FE21BF
:1009400000F054F900999DF817009DF80A2000F076
:100950004DF94DF29000C0F2030000F0BFF900998C
:100960009DF817009DF80A2042F0A00200F03EF921
:10097000049800F067FF40F21001C2F20001088005
:1009800006B080BD80B582B08DF807008DF80610E6
:10099000ADF804208DF80330BDF80400B0F5805F99
:1009A00005DBFFE740F6FF70ADF80400FFE79DF8B8
:1009B000030078B3FFE7BDF8040050B9FFE79DF8E6
:1009C00007009DF806104FF480520023FFF700FF48
:1009D0001FE0BDF8040040F6FF7188420AD1FFE72E
:1009E0009DF807009DF8061000224FF48053FFF792
:1009F000EFFE0DE09DF807009DF80610BDF80430ED
:100A000040F6FF72D21A93B20022FFF7E1FEFFE731
:100A1000FFE72AE0BDF8040040F6FF7188420AD1E2
:100A2000FFE79DF807009DF806104FF48052002361
:100A3000FFF7CEFE18E0BDF8040050B9FFE79DF8BF
:100A400007009DF8061000224FF48053FFF7C0FE08
:100A500009E09DF807009DF80610BDF8043000225B
:100A6000FFF7B6FEFFE7FFE7FFE702B080BD00003B
:100A700080B584B0844606988DF80FC08DF80E10AE
:100A8000ADF80C20ADF80A30ADF80800BDF90C0047
:100A9000B0F1FF3F04DCFFE70020ADF80C00FFE7FA
:100AA000BDF90C00B52804DBFFE7B420ADF80C005D
:100AB000FFE7BDF80A00B0F5C87F05DAFFE74FF49D
:100AC000C870ADF80A00FFE7BDF8080040F6B9317C
:100AD000884205DBFFE740F6B830ADF80800FFE7D5
:100AE000BDF80800BDF80A10884206DCFFE7BDF833
:100AF0000A000130ADF80800FFE7BDF80800BDF8B6
:100B00000A10401A0190BDF80A00BDF90C10019AB4
:100B10005143890846F61742C1F2C162A1FB022186
:100B200000EB910000909DF80F009DF80E10BDF8AD
:100B30000020FFF73BFE04B080BD000080B582B00E
:100B40008DF807008DF806108DF805209DF8061029
:100B5000062000EB81008DF804009DF8050030B1FF
:100B6000FFE79DF8040002308DF80400FFE79DF8D0
:100B700007009DF804100131C9B200F013F88DF898
:100B800003009DF807009DF8041000F00BF88DF8A5
:100B900002009DF802009DF8031040EA012002B017
:100BA00080BD000080B582B08DF807008DF806107A
:100BB0009DF807009DF80610FFF794FC02B080BD79
:100BC00080B582B08DF807009DF80700FE21FFF781
:100BD000E9FF02B080BD000081B00090009840F2B3
:100BE0000001C2F20001086001B0704780B582B018
:100BF0008DF807008DF806108DF805209DF8070088
:100C00009DF806109DF80520FFF718FD02B080BD85
:100C100080B586B08DF817008DF81610ADF8142049
:100C20009DF81700FFF7CCFF8DF8130042F200404B
:100C3000C4F6741003909DF81300013000F01EFEFE
:100C40000146039800F0AEFE039040F20000C2F2AD
:100C50000000006800F02AFE0146039800F0FCFC4A
:100C60000390BDF8140000F021FE039900F0F4FC9D
:100C700002900298002100F0CEFC18B9FFE7002096
:100C80000290FFE702984FF20001C4F27F5100F09A
:100C9000C9FC30B9FFE74FF20000C4F27F50029068
:100CA000FFE79DF8170001909DF81600009002984C
:100CB0004FF07C5100F038FC00F0C4FD0099034671
:100CC00001980022FFF784FD06B080BD4EF21001AE
:100CD000CEF20001042008607047000081B000904F
:100CE000009801384EF21401CEF2000108604EF275
:100CF0001801CEF20001002008604EF21001CEF281
:100D00000001086840F001000860FFE74EF21000A3
:100D1000CEF200000068C003002801D4FFE7F5E729
:100D20004EF21001CEF20001086820F001000860C8
:100D300001B07047FFE74CF21800C4F200000068F1
:100D4000C006002801D5FFE7F5E74CF20000C4F229
:100D500000000068C0B270474EF20411C4F20F01E7
:100D6000086840F0010008604EF20811C4F20F015B
:100D7000086840F0010008604CF23001C4F2000144
:100D8000086820F0010008604CF22400C4F2000062
:100D9000112202604CF22803C4F2000317201860ED
:100DA0004CF22C03C4F2000370201860086840F273
:100DB00001331843086044F22041C4F2000108687E
:100DC00040F00300086044F21C51C4F200010868BE
:100DD00040F00300086044F22C51C4F2000108689E
:100DE00062F30700086044F22851C4F20001086869
:100DF00020F003000860704780B50D2000F004F873
:100E00000A2000F001F880BD81B08DF80300FFE7F3
:100E10004CF21800C4F2000000688006002801D5DA
:100E2000FFE7F5E79DF803004CF20001C4F2000172
:100E3000086001B07047000080B582B00190FFE704
:100E40000198007840B1FFE701980078FFF7DCFFD8
:100E5000019801300190F3E702B080BD80B5032016
:100E6000002100F043F84FF4967000F07DF880BD4B
:100E700080B582B000F030F8FFF7F0FF00205A2173
:100E8000019100F033F80199012000F02FF84FF4A0
:100E9000FA7000F069F802B080BD000080B582B041
:100EA0008DF807009DF8070040F21801C2F200011A
:100EB00000910870FFF70AFFFFF79EFA009800788C
:100EC000FFF73EFC009800780021C4F24821FFF7AC
:100ED000C3FC02B080BD000080B50220002100F0FC
:100EE00005F84FF4967000F03FF880BD80B586B0ED
:100EF0008DF81700ADF814109DF81700032804DCD6
:100F0000FFE79DF81700029002E000200290FFE743
:100F100002988DF813009DF8131040F22200C2F2DF
:100F2000000030F81100ADF810009DF8131040F2E9
:100F30001A00C2F2000030F81100ADF80E0040F2C5
:100F40001800C2F2000000789DF81710BDF91420B7
:100F5000BDF81030BDF80EC0EE46CEF800C0FFF769
:100F600087FD06B080BD000080B582B00190FFE72C
:100F70000198411E019128B1FFE74CF25030FFF774
:100F8000ADFEF5E702B080BD80B58CB000200B90BF
:100F9000FFF7E2FE4020FFF781FF4EF62020C4F26B
:100FA0000F0000688007002807D4FFE741F61960AA
:100FB000C0F20000FFF740FFFFE740200021FFF7ED
:100FC00091FA8DF82A009DF82A0038B9FFE741F61A
:100FD0005150C0F20000FFF72FFF2FE09DF82A00CC
:100FE00000F02100212828D0FFE741F65660C0F22A
:100FF0000000FFF721FF41F64560C0F200000890B5
:1010000008989DF82A100909405C8DF82700089877
:101010009DF82A1001F00F01405C8DF82800002097
:101020008DF829000DF12700FFF706FF41F62D602E
:10103000C0F20000FFF700FFFFE7FFE7FFF718FF30
:1010400040F20C01C2F200015A20086040F2140183
:10105000C2F20001086040F20401C2F2000108601F
:1010600040F20801C2F20001086000F0DFF9FFE77A
:10107000FFF760FE8DF82B009DF82B00FFF7C4FEF4
:10108000FFF7BAFE9DF82B0041380146059136283E
:1010900000F26C810599DFE811F037006901690100
:1010A0005300690169016901E2006901A900C500F5
:1010B00069016601690169016901690169018C00C1
:1010C000E50069016901700069016901690169014F
:1010D00069016901690169016901370069016901F3
:1010E0005300690169016901E2006901A900C500B5
:1010F00069016601690169016901690169018C0081
:10110000E50069016901700040F20400C2F20000CC
:101110000168053101600068B52807DBFFE740F290
:101120000401C2F20001B4200860FFE740F20400AD
:10113000C2F20000B0F900100120FFF7D7FE1CE159
:1011400040F20400C2F20000016805390160006845
:10115000B0F1FF3F07DCFFE740F20401C2F20001FB
:1011600000200860FFE740F20400C2F20000B0F97E
:1011700000100120FFF7BAFEFFE040F20800C2F2C3
:1011800000000168053101600068B52807DBFFE752
:1011900040F20801C2F20001B4200860FFE740F20B
:1011A0000800C2F20000B0F900100020FFF79EFE18
:1011B000E3E040F20800C2F2000001680539016076
:1011C0000068B0F1FF3F07DCFFE740F20801C2F220
:1011D000000100200860FFE740F20800C2F20000B2
:1011E000B0F900100020FFF781FEC6E040F21400C5
:1011F000C2F200000168053101600068B52807DB14
:10120000FFE740F21401C2F20001B4200860FFE7DA
:1012100040F21400C2F20000B0F900100220FFF703
:1012200065FEAAE040F21400C2F200000168053930
:1012300001600068B0F1FF3F07DCFFE740F21401F6
:10124000C2F2000100200860FFE740F21400C2F281
:101250000000B0F900100220FFF748FE8DE0FFF714
:1012600007FE8AE041F62D50C0F20000FFF7E4FDD2
:101270004020019000210291FFF794FC8DF81F009F
:1012800041F66760C0F20000FFF7D6FD9DF81F0031
:1012900000F0ACF841F62D60C0F200000490FFF7BA
:1012A000CBFD019801210391FFF77CFC8DF81E0016
:1012B00041F67060C0F20000FFF7BEFD9DF81E0011
:1012C00000F094F80498FFF7B7FD0198FFF778FC59
:1012D0008DF81D0041F67960C0F20000FFF7ACFD0B
:1012E0009DF81D0000F082F80498FFF7A5FD41F677
:1012F000EC40C0F20000FFF79FFD0198029B4FF405
:1013000000621946FFF73EFB44F64030C0F24C0045
:10131000FFF7E4FC0198029A1146FFF70FFCADF8C5
:101320001A0041F69560C0F20000FFF785FDBDF898
:101330001A0000F029F80498FFF77EFD0198029941
:10134000039AFFF7FBFBADF8180041F68560C0F289
:101350000000FFF771FDBDF8180000F015F80498C3
:10136000FFF76AFD09E000F061F806E041F6085079
:10137000C0F20000FFF760FDFFE741F63060C0F209
:101380000000FFF759FD73E680B584B0ADF80E009C
:1013900041F64560C0F2000001900198BDF80E10C2
:1013A000090B405C8DF8090001989DF80F1001F0C1
:1013B0000F01405C8DF80A000198BDF80E10C1F3D2
:1013C0000311405C8DF80B000198BDF80E1001F080
:1013D0000F01405C8DF80C0000208DF80D000DF120
:1013E0000900FFF729FD04B080BD000080B582B080
:1013F0008DF8070041F64560C0F2000000900098AB
:101400009DF807100909405C8DF8040000989DF8CC
:10141000071001F00F01405C8DF8050000208DF8E9
:10142000060001A8FFF708FD02B080BD80B541F6B7
:101430003D50C0F20000FFF7FFFC41F67850C0F2CB
:101440000000FFF7F9FC41F6BD50C0F20000FFF7C5
:10145000F3FC41F69B50C0F20000FFF7EDFC41F6B3
:10146000E050C0F20000FFF7E7FC41F66940C0F22F
:101470000000FFF7E1FC41F69440C0F20000FFF7E6
:10148000DBFC41F6BF40C0F20000FFF7D5FC41F69F
:101490000260C0F20000FFF7CFFC41F62640C0F228
:1014A0000000FFF7C9FC41F63060C0F20000FFF712
:1014B000C3FC80BD10B582B08C4686460598049961
:1014C0008DF807E08DF806C08DF805208DF8043002
:1014D0008DF803108DF802009DF807009DF80610A6
:1014E0009DF80520FFF7AAF89DF807009DF8061063
:1014F00001319DF80420C9B2FFF7A0F89DF807005C
:101500009DF8061002319DF80320C9B2FFF796F846
:101510009DF807009DF8061003319DF80220C9B21E
:10152000FFF78CF802B010BD90EA010F48BF81F0C0
:10153000004100F10A83421A3CBF801A89184FEA21
:10154000D052A2EBD1534FF07F4C1CEA410F18BF91
:101550009CEA026F00F03B804FF0004C4CEA002008
:101560004CEA012121FA03FC10EB0C0C1ED202F113
:10157000FF325FEA1C2040EBC25038BF70471CF0BE
:101580007F0F4FEA400C18BFBCF17F4F38BF704748
:10159000C3F12003994008BF20F00100BCF17F4F48
:1015A00038BF7047A0F1C04000F0C3BA4FEA3C001A
:1015B000000A40EBC25028BF1CF0FF0F4FEA400C5E
:1015C000E6D018BFBCF17F4F38BF7047EAE79CEA0E
:1015D000026F05D010EA5C0F08BF00F000407047B2
:1015E00010B500F060FA00BF64FBBE3E10B500F01D
:1015F000F5F80CBF0120002010BD10B500F0EEF88A
:1016000014BF0120002010BD10B500F063F98CBF9D
:101610000120002010BD10B500F05CF92CBF0120A6
:10162000002010BD10B500F089F994BF0120002002
:1016300010BD10B500F082F934BF0120002010BDAC
:10164000401058BFC0F14040491058BFC1F140415F
:101650008142EFF3008070474FF47F0C1CEAD012F8
:101660001EBF1CEAD11392EA0C0F93EA0C0F00F094
:10167000858090EA010F48BF42F4807240F4000C6C
:1016800041F400002CF07F4120F07F4000B5A2EB38
:10169000030281420FF2081CACEB504E9EF800E0B2
:1016A000C0F100004FEA4E0E00FB0EFC38BF4900AF
:1016B0004FEA2C1C0CFB0EF34FEACE1E0EEB635EC2
:1016C0004FEA112C0EFB0CFC4FEAC1214FEA1C53D0
:1016D00000FB031102F5FA024FEA112C0EFB0CFC81
:1016E0004FEA01314FEADC4C00FB0C1142EB224285
:1016F000C14228BF09184CEB03335DF804EB10EB33
:10170000410143EBC250B2F57C0F38BF704729D579
:1017100012F0F00F1CBF00F1C04000F00040704715
:10172000008182838485868788898B8C8D8E8F91BA
:101730009293959697999A9C9D9FA0A2A3A5A7A8DE
:10174000AAACAEB0B2B3B5B7B9BCBEC0C2C5C7C90A
:10175000CCCED1D4D7D9DCDFE2E6E9ECF0F3F7FA6E
:10176000FE0000004FEA400C0CF1807CBCF17E4F83
:1017700028BF7047B0F1C04000F0DBB90CEAD113CC
:1017800090EA010F48BF42F48072624538BF63455A
:1017900007D213F47F0F16D080EA010000F000405A
:1017A000704710B500F07FF9097EFC3E00F005B8E7
:1017B00080EA010000F00040704780EA010000F07C
:1017C000004000F0B6B912F47F0F04BF0248704722
:1017D00080EA010000F0ADB90000C07F50EA010CC2
:1017E00000F113801CF5000F58BFBCF5000F01D4A9
:1017F0008842704707D710F5000F58BF11F5000F4A
:1018000015D488427047894270471CF5000F04D5F3
:10181000BCF5000FF7D5814270474FF0807C1CEB80
:10182000400F38BF1CEB410F01D28142704710B509
:1018300000F039F9922449004FF000504FF08051E8
:10184000FFF7FEBE41000B0ED3F19E0208D950F403
:1018500000034FEA032323FA02F048BF40427047D7
:1018600010B500F020F900BF499224800020704795
:101870006FF0004282EA20007047000010F0004143
:1018800048BF4042B0FA80F310FA03F2C3F19D035F
:101890000BD051EAC35101EB1220530638BF7047F9
:1018A00000F1010008BF20F001007047B0FA80F39A
:1018B00010FA03F2C3F19D030AD0D90501EB1220FF
:1018C000530638BF704700F1010008BF20F0010047
:1018D0007047000050EA010C00F113801CF5000F66
:1018E00058BFBCF5000F01D48842704707D710F5E8
:1018F000000F58BF11F5000F15D488427047894278
:1019000070471CF5000F04D5BCF5000FF7D58142D8
:1019100070474FF0807C1CEB400F38BF1CEB410F31
:1019200001D28142704710B500F0BDF89224490001
:101930004FF080504FF00051FFF782BE50EA010C8B
:1019400000F113801CF5000F58BFBCF5000F01D447
:101950008842704707D710F5000F58BF11F5000FE8
:1019600015D488427047894270471CF5000F04D592
:10197000BCF5000FF7D5814270474FF0807C1CEB1F
:10198000400F38BF1CEB410F01D28142704710B5A8
:1019900000F089F8922449004FF000504FF0805138
:1019A000FFF74EBE4FF47F0C1CEAD0121EBF1CEA9C
:1019B000D11392EA0C0F93EA0C0F00F0478090EAE3
:1019C000010F48BF42F480724FF0004C4CEA0020F7
:1019D0004CEA012102EB0302A0FB0113A2F5000275
:1019E000002918BF43F001035B0028BF4FEA33030F
:1019F00042EB22425FEA132C4CEBC2502EBFBCEBF1
:101A0000436FB2F57C0F70474FEA036CBCF1004F97
:101A100008BF20F00100B2F57C0F38BF70470BD52E
:101A200082F0FF0212F5803FC8BF704700F1C0404E
:101A3000D8BF00F00040704700F5000C5FEA4C0C86
:101A400048BF7047B0F1C04000F073B80CEAD11342
:101A500090EA010F48BF42F48072624538BF634587
:101A600004D280EA010000F00040704710B500F099
:101A70001AF800BF8900013E00F007B800F009B86D
:101A80005FEA410C5FEA1C6C08D080EA010000F0BC
:101A900050B85FEA400C5FEA1C6CF6D14FF0004092
:101AA000A0F5800070470EF1020E2EF0030E5EF8D6
:101AB000044B244204D44FEA4102B2F17F4F11D8C3
:101AC0004FEA4003B3F17F4F0CD80ED14FEAD07CE0
:101AD0000CEB4C0C0CF1020CB2F17F4F08BF4CEB3D
:101AE000D17C04E04FF0080C01E04FEAD17C0CEB14
:101AF0004C0324FA03F404F00704B4F1040C06D2F6
:101B00000EEB840CBDE810404CF0010C6047DFE8A0
:101B10000CF0070802024FF00040A0F5800010BD55
:101B20000846420018BFD2F1807288BF00F0004022
:101B300010BDFF2141EAD050C005704790EA010F67
:101B400048BF81F000413FF5F6AC421A04D882F05C
:101B50000042A0EB020011444FEAD052A2EBD15355
:101B60004FF07F4C1CEA410F18BF9CEA026F4AD02D
:101B70004FF0004C4CEA00204CEA012121FA03FC12
:101B8000B0EB0C0C0FD412F0FE0F36D05FEA4C0015
:101B90001DD5001240EBC25038BF70471CF03F0FFC
:101BA00018BF70470BE05FEA1C20A2F1010240EB76
:101BB000C25038BF70471CF07F0F18BF7047C3F189
:101BC0002003994014BF401E20F0010070474FEAE7
:101BD0001223800808BF7047B0FA80FCA2EB0C0209
:101BE000CCF1280C60FA0CF093EA122F04BF00EB42
:101BF000C25070474FEAC3707047130A5FEADC10A7
:101C000008BF7047F6E79CEA026F04D010EA5C0F49
:101C100008BF0020704710B5FFF745FF40DFF63ED4
:101C200081F000407047542F74203A2050434139CE
:101C30003638352072656769737465722074657310
:101C40007420287072696E7473204D4F4445312F93
:101C50005052455343414C452C20746F67676C6567
:101C60007320434830290D0A004A2F6A203A205336
:101C7000776565702070656E206368616E6E656C57
:101C800020666F7277617264202850454E5F43482A
:101C9000290D0A004B2F6B203A2053776565702081
:101CA00070656E206368616E6E656C207265766526
:101CB000727365202850454E5F4348290D0A00483D
:101CC0002F68203A20486F6D652061726D20287062
:101CD000656E2F6572617365722075702C206D6959
:101CE0006420616E676C6573290D0A005365747416
:101CF000696E672043483020746F203530252028D6
:101D000074657374290D0A00556E6B6E6F776E20C3
:101D1000636F6D6D616E642E205072657373204D1C
:101D200020666F72206D656E752E0D0A005043415E
:101D30003936383520546573743A0D0A0057726984
:101D400074696E672041726D204D656E753A0D0A9B
:101D5000004572726F723A2050434139363835204F
:101D60006E6F7420726573706F6E64696E67206F3A
:101D70006E204932430D0A00412F61203A205377EB
:101D80006565702062617365206368616E6E656C65
:101D900020666F72776172640D0A00572F77203AC0
:101DA0002053776565702070656E206368616E6E84
:101DB000656C20666F72776172640D0A00442F644F
:101DC000203A2053776565702062617365206368EF
:101DD000616E6E656C20726576657273650D0A00C2
:101DE000532F73203A2053776565702070656E20FD
:101DF0006368616E6E656C20726576657273650DE1
:101E00000A004D2F6D203A2053686F77207468695F
:101E100073206D656E750D0A004572726F723A20FF
:101E2000493243206E6F742072656164790D0A0037
:101E30000D0A4177616974696E6720636F6D6D612A
:101E40006E643E2000303132333435363738394114
:101E50004243444546005761726E696E673A2050AE
:101E6000434139363835204D4F4445313D307800B7
:101E70004D4F4445323D3078005052455343414C1C
:101E8000453D307800434830204F4646207265611A
:101E9000643D307800434830204F4E2072656164C5
:101EA0003D307800C41E0000000000202C0000001F
:101EB000E8020000F01E0000300000206004000076
:101EC0000803000040787D015A0000005A0000001D
:101ED0005A000000320000005A0000004000C4090F
:101EE000C40960096009F401F401580258020000B5
:040000050000026D88
:00000001FF
